:020000040800F2
:1000000000C000201D1800085D4700086147000877
:1000100065470008694700086D47000800000000B8
:100020000000000000000000000000007147000810
:1000300075470008000000007947000835220008D5
:100040006D1800086D1800086D1800086D1800087C
:100050006D1800086D1800086D1800086D1800086C
:10006000C94D0008414D0008514E00086D180008A8
:100070006D1800086D1800086D1800086D1800084C
:100080006D1800086D1800086D1800086D1800083C
:100090007D4700086D1800086D1800086D180008ED
:1000A0006D1800080D4500086D1800086D1800084F
:1000B0006D1800086D1800086D1800086D1800080C
:1000C0006D1800086D1800086D1800086D180008FC
:1000D0006D1800086D1800086D1800086D180008EC
:1000E0006D1800086D180008814700086D18000899
:1000F000814500086D1800086D1800086D1800088B
:100100006D1800086D1800084D4400086D180008AF
:10011000F92500086D1800086D1800086D18000812
:100120006D1800086D1800086D1800086D1800089B
:1001300000000000000000000000000000000000BF
:1001400000000000000000000000000000000000AF
:10015000000000000000000000000000000000009F
:10016000000000000000000000000000000000008F
:10017000000000000000000000000000000000007F
:10018000000000000000000000000000000000006F
:10019000000000000000000000000000000000005F
:1001A000000000000000000000000000000000004F
:1001B000000000000000000000000000000000003F
:1001C000000000000000000000000000000000002F
:1001D000000000000000000000000000000000001F
:0401E0005FF8E0F1F3
:1001E80081F0004102E000BF83F0004330B54FEAE0
:1001F80041044FEA430594EA050F08BF90EA020F4D
:100208001FBF54EA000C55EA020C7FEA645C7FEADF
:10021800655C00F0E2804FEA5454D4EB5555B8BF02
:100228006D420CDD2C4480EA020281EA030382EA73
:10023800000083EA010180EA020281EA0303362D05
:1002480088BF30BD11F0004F4FEA01314FF4801CD8
:100258004CEA113102D0404261EB410113F0004FEA
:100268004FEA03334CEA133302D0524263EB4303A1
:1002780094EA050F00F0A780A4F10104D5F1200E3F
:100288000DDB02FA0EFC22FA05F2801841F100019A
:1002980003FA0EF2801843FA05F359410EE0A5F16E
:1002A80020050EF1200E012A03FA0EFC28BF4CF09F
:1002B800020C43FA05F3C01851EBE37101F0004555
:1002C80007D54FF0000EDCF1000C7EEB00006EEB62
:1002D8000101B1F5801F1BD3B1F5001F0CD34908EC
:1002E8005FEA30004FEA3C0C04F101044FEA445243
:1002F80012F5800F80F09A80BCF1004F08BF5FEACA
:10030800500C50F1000041EB045141EA050130BDA9
:100318005FEA4C0C404141EB010111F4801FA4F14C
:100328000104E9D191F0000F04BF01460020B1FAA1
:1003380081F308BF2033A3F10B03B3F120020CDAD9
:100348000C3208DD02F1140CC2F10C0201FA0CF0B7
:1003580021FA02F10CE002F11402D8BFC2F1200C1C
:1003680001FA02F120FA0CFCDCBF41EA0C019040D2
:10037800E41AA2BF01EB0451294330BD6FEA04041B
:100388001F3C1CDA0C340EDC04F11404C4F1200206
:1003980020FA04F001FA02F340EA030021FA04F318
:1003A80045EA030130BDC4F10C04C4F1200220FA6F
:1003B80002F001FA04F340EA0300294630BD21FAAD
:1003C80004F0294630BD94F0000F83F4801306BF73
:1003D80081F480110134013D4EE77FEA645C18BF67
:1003E8007FEA655C29D094EA050F08BF90EA020FFE
:1003F80005D054EA000C04BF1946104630BD91EAF6
:10040800030F1EBF0021002030BD5FEA545C05D1F8
:100418004000494128BF41F0004130BD14F5800437
:100428003CBF01F5801130BD01F0004545F0FE41AB
:1004380041F470014FF0000030BD7FEA645C1ABFE0
:10044800194610467FEA655C1CBF0B46024650EA17
:10045800013406BF52EA033591EA030F41F4002143
:1004680030BD00BF90F0000F04BF0021704730B5C9
:100478004FF4806404F132044FF000054FF000019E
:1004880050E700BF90F0000F04BF0021704730B55F
:100498004FF4806404F1320410F0004548BF404234
:1004A8004FF000013EE700BF42004FEAE2014FEA89
:1004B80031014FEA02701FBF12F07F4393F07F4F64
:1004C80081F06051704792F0000F14BF93F07F4F96
:1004D800704730B54FF4607401F0004521F00041D9
:1004E80020E700BF50EA010208BF704730B54FF05F
:1004F80000050AE050EA010208BF704730B511F064
:10050800004502D5404261EB41014FF4806404F19B
:1005180032045FEA915C3FF4DCAE4FF003025FEA1D
:10052800DC0C18BF03325FEADC0C18BF033202EBA5
:10053800DC02C2F1200300FA03FC20FA02F001FAFF
:1005480003FE40EA0E0021FA02F11444C1E600BF9E
:1005580070B54FF0FF0C4CF4E06C1CEA11541DBF51
:100568001CEA135594EA0C0F95EA0C0F00F0DEF81C
:100578002C4481EA030621EA4C5123EA4C5350EA01
:10058800013518BF52EA033541F4801143F4801352
:1005980038D0A0FB02CE4FF00005E1FB02E506F0E3
:1005A8000042E0FB03E54FF00006E1FB03569CF038
:1005B800000F18BF4EF0010EA4F1FF04B6F5007F3E
:1005C80064F5407404D25FEA4E0E6D4146EB0606B0
:1005D80042EAC62141EA55514FEAC52040EA5E5039
:1005E8004FEACE2EB4F1FD0C88BFBCF5E06F1ED8E3
:1005F800BEF1004F08BF5FEA500E50F1000041EB1A
:10060800045170BD06F0004646EA010140EA0200C6
:1006180081EA0301B4EB5C04C2BFD4EB0C0541EAE8
:10062800045170BD41F480114FF0000E013C00F3FD
:10063800AB8014F1360FDEBF002001F0004170BD21
:10064800C4F10004203C35DA0C341BDC04F114043A
:10065800C4F1200500FA05F320FA04F001FA05F2C6
:1006680040EA020001F0004221F0004110EBD37093
:1006780021FA04F642EB06015EEA430E08BF20EABF
:10068800D37070BDC4F10C04C4F1200500FA04F362
:1006980020FA05F001FA04F240EA020001F00041F4
:1006A80010EBD37041F100015EEA430E08BF20EA67
:1006B800D37070BDC4F1200500FA05F24EEA020EAF
:1006C80020FA04F301FA05F243EA020321FA04F0DE
:1006D80001F0004121FA04F220EA020000EBD37095
:1006E8005EEA430E08BF20EAD37070BD94F0000F95
:1006F8000FD101F00046400041EB010111F4801FC9
:1007080008BF013CF7D041EA060195F0000F18BF79
:10071800704703F00046520043EB030313F4801FB5
:1007280008BF013DF7D043EA0603704794EA0C0F6F
:100738000CEA135518BF95EA0C0F0CD050EA410685
:1007480018BF52EA4306D1D181EA030101F0004102
:100758004FF0000070BD50EA410606BF104619462A
:1007680052EA430619D094EA0C0F02D150EA013636
:1007780013D195EA0C0F05D152EA03361CBF104677
:1007880019460AD181EA030101F0004141F0FE4116
:1007980041F470014FF0000070BD41F0FE4141F49A
:1007A800780170BD70B54FF0FF0C4CF4E06C1CEA9A
:1007B80011541DBF1CEA135594EA0C0F95EA0C0F4F
:1007C80000F0A7F8A4EB050481EA030E52EA03350A
:1007D8004FEA013100F088804FEA03334FF080552B
:1007E80045EA131343EA12634FEA022245EA111558
:1007F80045EA10654FEA00260EF000419D4208BF09
:10080800964244F1FD0404F5407402D25B084FEAB5
:100818003202B61A65EB03055B084FEA32024FF461
:1008280080104FF4002CB6EB020E75EB030E22BFBE
:10083800B61A754640EA0C005B084FEA3202B6EB7E
:10084800020E75EB030E22BFB61A754640EA5C002D
:100858005B084FEA3202B6EB020E75EB030E22BFBD
:10086800B61A754640EA9C005B084FEA3202B6EBBE
:10087800020E75EB030E22BFB61A754640EADC007D
:1008880055EA060E18D04FEA051545EA16754FEADF
:1008980006164FEAC30343EA52734FEAC2025FEAFD
:1008A8001C1CC0D111F4801F0BD141EA00014FF08C
:1008B80000004FF0004CB6E711F4801F04BF01435D
:1008C8000020B4F1FD0C88BFBCF5E06F3FF6AFAE79
:1008D800B5EB030C04BFB6EB020C5FEA500C50F109
:1008E800000041EB045170BD0EF0004E4EEA11318C
:1008F80014EB5C04C2BFD4EB0C0541EA045170BD93
:1009080041F480114FF0000E013C90E645EA060ED6
:100918008DE60CEA135594EA0C0F08BF95EA0C0F04
:100928003FF43BAF94EA0C0F0AD150EA01347FF44C
:1009380034AF95EA0C0F7FF425AF104619462CE723
:1009480095EA0C0F06D152EA03353FF4FDAE104686
:10095800194622E750EA410618BF52EA43067FF4D7
:10096800C5AE50EA41047FF40DAF52EA43057FF467
:10097800EBAE12E74FF0FF3C06E000BF4FF0010C72
:1009880002E000BF4FF0010C4DF804CD4FEA410CD6
:100998007FEA6C5C4FEA430C18BF7FEA6C5C1BD0A3
:1009A80001B050EA410C0CBF52EA430C91EA030F24
:1009B80002BF90EA020F0020704710F1000F91EA81
:1009C800030F58BF994208BF90422CBFD8176FEA4F
:1009D800E37040F0010070474FEA410C7FEA6C5C1D
:1009E80002D150EA013C07D14FEA430C7FEA6C5C24
:1009F800D6D152EA033CD3D05DF8040B704700BF50
:100A08008446104662468C461946634600E000BF9D
:100A180001B5FFF7B7FF002848BF10F1000F01BD6F
:100A28004DF808EDFFF7F4FF0CBF012000205DF83A
:100A380008FB00BF4DF808EDFFF7EAFF34BF0120BF
:100A480000205DF808FB00BF4DF808EDFFF7E0FF58
:100A580094BF012000205DF808FB00BF4DF808EDA9
:100A6800FFF7CEFF94BF012000205DF808FB00BF10
:100A78004DF808EDFFF7C4FF34BF012000205DF8F2
:100A880008FB00BF4FEA410212F5001215D211D53A
:100A98006FF47873B3EB625212D94FEAC12343F073
:100AA800004343EA505311F0004F23FA02F018BFF5
:100AB800404270474FF00000704750EA013005D1BE
:100AC80011F0004008BF6FF0004070474FF0000081
:100AD800704700BF4FEA4102B2F1E04324BFB3F5CB
:100AE800001CDCF1FE5C0DD901F0004C4FEAC0029D
:100AF8004CEA5070B2F1004F40EB830008BF20F081
:100B08000100704711F0804F21D113F13872BCBF3A
:100B180001F00040704741F480114FEA5252C2F18F
:100B28001802C2F1200C10FA0CF320FA02F018BFD8
:100B380040F001004FEAC1234FEAD32303FA0CFC2B
:100B480040EA0C0023FA02F34FEA4303CCE77FEABA
:100B5800625307D150EA01331EBF4FF0FE4040F404
:100B68004000704701F0004040F0FE4040F40000B3
:100B7800704700BF80F0004002E000BF81F00041F4
:100B880042001FBF5FEA410392EA030F7FEA226C2B
:100B98007FEA236C6AD04FEA1262D2EB1363C1BFBB
:100BA800D218414048404140B8BF5B42192B88BF2A
:100BB800704710F0004F40F4000020F07F4018BF4D
:100BC800404211F0004F41F4000121F07F4118BF6D
:100BD800494292EA030F3FD0A2F1010241FA03FC15
:100BE80010EB0C00C3F1200301FA03F100F00043FD
:100BF80002D5494260EB4000B0F5000F13D3B0F1C5
:100C0800807F06D340084FEA310102F10102FE2A33
:100C180051D2B1F1004F40EBC25008BF20F00100A3
:100C280040EA03007047490040EB000010F4000F51
:100C3800A2F10102EDD1B0FA80FCACF1080CB2EBE4
:100C48000C0200FA0CF0AABF00EBC2505242184343
:100C5800BCBFD0401843704792F0000F81F40001E8
:100C680006BF80F400000132013BB5E74FEA4103BB
:100C78007FEA226C18BF7FEA236C21D092EA030F27
:100C880004D092F0000F08BF0846704790EA010FA1
:100C98001CBF0020704712F07F4F04D1400028BFCE
:100CA80040F00040704712F100723CBF00F50000B0
:100CB800704700F0004343F0FE4040F400007047E6
:100CC8007FEA226216BF08467FEA23630146420292
:100CD80006BF5FEA412390EA010F40F480007047A5
:100CE8004FF0000304E000BF10F0004348BF40424B
:100CF8005FEA000C08BF704743F0964301464FF087
:100D080000001CE050EA010208BF70474FF00003E2
:100D18000AE000BF50EA010208BF704711F0004323
:100D280002D5404261EB41015FEA010C02BF8446F3
:100D38000146002043F0B64308BFA3F18053A3F552
:100D48000003BCFA8CF2083AA3EBC25310DB01FA99
:100D580002FC634400FA02FCC2F12002BCF1004F1D
:100D680020FA02F243EB020008BF20F001007047AE
:100D780002F1200201FA02FCC2F1200250EA4C0002
:100D880021FA02F243EB020008BF20EADC70704748
:100D98004FF0FF0C1CEAD0521EBF1CEAD15392EA56
:100DA8000C0F93EA0C0F6FD01A4480EA010C400232
:100DB80018BF5FEA41211ED04FF0006343EA50108C
:100DC80043EA5111A0FB01310CF00040B1F5000FCE
:100DD8003EBF490041EAD3715B0040EA010062F17D
:100DE8007F02FD2A1DD8B3F1004F40EBC25008BF67
:100DF80020F00100704790F0000F0CF0004C08BF85
:100E080049024CEA502040EA51207F3AC2BFD2F151
:100E1800FF0340EAC250704740F400004FF000035F
:100E2800013A5DDC12F1190FDCBF00F00040704799
:100E3800C2F10002410021FA02F1C2F1200200FAD7
:100E480002FC5FEA310040F1000053EA4C0308BF9E
:100E580020EADC70704792F0000F00F0004C02BFEF
:100E6800400010F4000F013AF9D040EA0C0093F06A
:100E7800000F01F0004C02BF490011F4000F013BC4
:100E8800F9D041EA0C018FE70CEAD15392EA0C0F32
:100E980018BF93EA0C0F0AD030F0004C18BF31F09D
:100EA800004CD8D180EA010000F00040704790F073
:100EB800000F17BF90F0004F084691F0000F91F017
:100EC800004F14D092EA0C0F01D142020FD193EADD
:100ED8000C0F03D14B0218BF084608D180EA010065
:100EE80000F0004040F0FE4040F40000704740F041
:100EF800FE4040F4400070474FF0FF0C1CEAD0520F
:100F08001EBF1CEAD15392EA0C0F93EA0C0F69D06A
:100F1800A2EB030280EA010C49024FEA402037D0D5
:100F28004FF0805343EA111143EA10130CF00040CC
:100F38008B4238BF5B0042F17D024FF4000C8B42BC
:100F480024BF5B1A40EA0C00B3EB510F24BFA3EB9C
:100F5800510340EA5C00B3EB910F24BFA3EB91036C
:100F680040EA9C00B3EBD10F24BFA3EBD10340EAC6
:100F7800DC001B0118BF5FEA1C1CE0D1FD2A3FF60C
:100F880050AF8B4240EBC25008BF20F001007047C1
:100F98000CF0004C4CEA50207F32C2BFD2F1FF0364
:100FA80040EAC250704740F400004FF00003013A95
:100FB80037E792F0000F00F0004C02BF400010F439
:100FC800000F013AF9D040EA0C0093F0000F01F04D
:100FD800004C02BF490011F4000F013BF9D041EA6F
:100FE8000C0195E70CEAD15392EA0C0F08D14202A2
:100FF8007FF47DAF93EA0C0F7FF470AF084676E775
:1010080093EA0C0F04D14B023FF44CAF08466EE74D
:1010180030F0004C18BF31F0004CCAD130F000421B
:101028007FF45CAF31F000437FF43CAF5FE700BF73
:101038004FF0FF3C06E000BF4FF0010C02E000BF9C
:101048004FF0010C4DF804CD4FEA40024FEA41033E
:101058007FEA226C18BF7FEA236C11D001B052EAF4
:10106800530C18BF90EA010F58BFB2EB030088BFBA
:10107800C81738BF6FEAE17018BF40F00100704729
:101088007FEA226C02D15FEA402C05D17FEA236C0B
:10109800E4D15FEA412CE1D05DF8040B704700BF52
:1010A800844608466146FFE70FB5FFF7C9FF0028E9
:1010B80048BF10F1000F0FBD4DF808EDFFF7F4FF22
:1010C8000CBF012000205DF808FB00BF4DF808EDBB
:1010D800FFF7EAFF34BF012000205DF808FB00BFDE
:1010E8004DF808EDFFF7E0FF94BF012000205DF800
:1010F80008FB00BF4DF808EDFFF7D2FF94BF0120B1
:1011080000205DF808FB00BF4DF808EDFFF7C8FFA9
:1011180034BF012000205DF808FB00BF4FEA400201
:10112800B2F1FE4F0FD34FF09E03B3EB12620DD90D
:101138004FEA002343F0004310F0004F23FA02F077
:1011480018BF404270474FF00000704712F1610F1E
:1011580001D1420205D110F0004008BF6FF00040F5
:1011680070474FF000007047844641EA000313F0CF
:10117800030349D1403A23D30B6803604B684360AB
:101188008B688360CB68C3600B6903614B694361FB
:101198008B698361CB69C3610B6A03624B6A4362E3
:1011A8008B6A8362CB6AC3620B6B03634B6B4363CB
:1011B8008B6B8363CB6BC36340304031403ADBD2E7
:1011C80030320BD30B6803604B6843608B688360D5
:1011D800CB68C36010301031103AF3D20C3205D30B
:1011E80051F8043B40F8043B043AF9D2043208D0E1
:1011F800D2071CBF11F8013B00F8013B01D30B8853
:1012080003806046704700BF082A13D38B07B1D00C
:1012180010F00303AED0C3F10403D21ADB071CBFDE
:1012280011F8013B00F8013BA4D331F8023B20F848
:10123800023B9FE7043AD9D3013A11F8013B00F881
:10124800013BF9D20B7803704B7843708B7883702D
:10125800604670474BB942B9002908BF002802D040
:101268004FF0FF31084600F03BB882B0EC462DE95C
:10127800005000F01DF8DDF804E002B00CBC704727
:101288002DE9704F089E14461D468046894600F099
:1012980029F804FB01F3A4FB00AB00FB05329344DF
:1012A800B8EB0A0869EB0B09C6E90089BDE8708F3D
:1012B8002DE9704F089E14461D468046894600F069
:1012C80061F900FB05F5A0FB04AB04FB0154A34442
:1012D800B8EB0A0869EB0B09C6E90089BDE8708F0D
:1012E800704700BF00292DE9F00FC0F2A18000244B
:1012F800002BC0F29880154606460F46002B3FD1BA
:101308008A4258D9B2FA82F34BB1C3F1200201FAEA
:1013180003F720FA02F29D4000FA03F61743290C5E
:10132800B7FBF1F201FB1277A8B200FB02F34FEA18
:10133800164C4CEA0747BB4209D97F1902F1FF3C1A
:1013480080F00581BB4240F20281023A2F44FF1A25
:10135800B7FBF1F301FB137100FB03F0B6B246EAE9
:101368000141884208D9491903F1FF3780F0F1801B
:10137800884240F2EE80023B43EA0242002303E047
:101388008B420AD900231A461046194614B1404226
:1013980061EB4101BDE8F00F7047B3FA83F8B8F18B
:1013A800000F40F088808B4202D3824200F2E28034
:1013B80000230122E8E712B90123B3FBF2F5B5FADD
:1013C80085F2002A3AD17F1B280C1FFA85FC0123DD
:1013D800B7FBF0F100FB11770CFB01F24FEA16485E
:1013E80048EA0747BA4207D97F1901F1FF3802D204
:1013F800BA4200F2C4804146BF1AB7FBF0F200FBC4
:1014080012700CFB02FCB6B246EA0040844507D9CC
:10141800401902F1FF3702D2844500F2AE803A4605
:1014280042EA0142B0E7E443524263EB430362E716
:10143800404261EB41014FF0FF3459E79540C2F15A
:10144800200927FA09F126FA09F99740280CB1FB77
:10145800F0F800FB18111FFA85FC0CFB08F349EAA9
:1014680007094FEA194747EA01418B4206FA02F693
:1014780008D9491908F1FF327AD28B4278D9A8F1F4
:1014880002082944C91AB1FBF0F300FB13170CFB3F
:1014980003F21FFA89F949EA0747BA4207D97F19BF
:1014A80003F1FF3160D2BA425ED9023B2F44BF1A22
:1014B80043EA08438CE7C8F1200225FA02F103FA4F
:1014C80008FC27FA02F320FA02F207FA08F741EAC1
:1014D8000C0C4FEA1C49B3FBF9F109FB11331FFA55
:1014E8008CFA0AFB01FB17433A0C42EA03439B457B
:1014F80005FA08F008D913EB0C0301F1FF3235D2D5
:101508009B4533D902396344CBEB0303B3FBF9F2B0
:1015180009FB12330AFB02FABFB247EA0347BA458E
:1015280008D917EB0C0702F1FF331BD2BA4519D9BA
:10153800023A674442EA0145A5FB0001CAEB0707E6
:101548008F424FF000030AD305D02A461CE76246B3
:10155800FDE63B4610E706FA08F68642F5D26A1E13
:10156800002311E71A46E5E70B46A0E71146CBE74B
:10157800904687E74346424606E7023A50E7023973
:101588002F4439E72DE9F00F144605460E46002B87
:1015980043D18A4253D9B2FA82F757B1C7F120062C
:1015A80020FA06F601FA07F302FA07F400FA07F53B
:1015B8001E43210CB6FBF1F201FB1266A0B200FB40
:1015C80002F32F0C47EA0646B34209D9361902F14D
:1015D800FF3780F0FD80B34240F2FA80023A264499
:1015E800F61AB6FBF1F301FB136100FB03F0ADB291
:1015F80045EA0141884208D9091903F1FF3680F00C
:10160800E980884240F2E680023B43EA0242002336
:1016180010461946BDE8F00F70478B424CD8B3FA14
:1016280083F6002E4FD18B4202D3824200F2DD8036
:10163800BDE8F00F0023012210461946704712B981
:101648000124B4FBF2F4B4FA84F2002A40F0828058
:10165800091B260CA7B20123B1FBF6F006FB1011FB
:1016680007FB00F24FEA154C4CEA01418A4207D9C0
:10167800091900F1FF3C02D28A4200F2C880604694
:10168800891AB1FBF6F206FB121107FB02F7ADB29D
:1016980045EA0145AF4208D92C1902F1FF3180F023
:1016A8009B80A74240F29880023A42EA00421046E4
:1016B8001946BDE8F00F704700231A461046194630
:1016C800BDE8F00F7047C6F1200522FA05F703FAC6
:1016D80006F421FA05F301FA06FB20FA05F53C4366
:1016E8004FEA1448B3FBF8FC08FB1C331FFA84F9D3
:1016F80009FB0CFA45EA0B0B4FEA1B4545EA034385
:101708009A4502FA06F204D91B190CF1FF356FD37A
:10171800AC46CAEB0303B3FBF8F508FB153309FB2A
:1017280005F91FFA8BFB4BEA0347B94504D93F1962
:1017380005F1FF3362D31D4645EA0C4CACFB02238E
:10174800C9EB07079F424FF000054AD346D06246CF
:101758002B465DE79440C2F1200921FA09FC91402B
:1017680020FA09F9260CBCFBF6F806FB18CCA7B240
:1017780007FB08F349EA01094FEA194141EA0C4C11
:10178800634500FA02F509D91CEB040C08F1FF3295
:101798003BD2634539D9A8F10208A444C3EB0C0C29
:1017A800BCFBF6F306FB13C107FB03F21FFA89F92A
:1017B80049EA01418A4207D9091903F1FF3022D2C7
:1017C8008A4220D9023B2144891A43EA084343E765
:1017D8003A4605E7334618E70A4666E7B0409042BE
:1017E800B5D20CF1FF32002312E7334632460FE739
:1017F8009A458DD9ACF1020C23448AE7B9459AD9A8
:10180800023D274498E70346DEE79046C6E70238DC
:10181800214435E7002100F004B80D4B5B584350D4
:1018280004310C480C4B42189A42FFF4F6AF0B4AAD
:1018380000F003B8002342F8043B094B9A42FFF436
:10184800F9AF01F0D9FF06F073F803F087F9704794
:10185800DCC1000800000020AC090020AC09002011
:10186800501A0020FFF7FEBF2DE9F003CD78EB06F4
:1018780048BF8B78098805F00F0748BF1F4311F050
:10188800FF0F23D0D0F800C0002301264FF00F0827
:1018980002E00133082B17D006FA03F202EA01042A
:1018A8009442F6D19A0008FA02F907FA02F22CEAF1
:1018B800090C282D4CEA020C35D0482D03F1010300
:1018C80008BF0461082BE7D1C0F800C0FF2925D95B
:1018D800D0F804C0002301264FF00F0802E00133BE
:1018E800082B19D003F1080206FA02F202EA0104F1
:1018F8009442F4D19A0008FA02F907FA02F22CEAA3
:10190800090C282D4CEA020C0BD0482D03F10103D9
:1019180008BF0461082BE5D1C0F804C0BDE8F00396
:1019280070474461DBE74461B3E700BF836819424D
:101938000CBF00200120704701617047416170476A
:101948000AB9416170470161704700BFC3685940D7
:10195800C16070470028194B00F44012B4BFDB691E
:101968005B68B2F5401F30B484B21FD0C20214D5F0
:10197800C0F30342032505FA02F223EA020343F007
:10198800706319B1420D1201944023430B4A002899
:10199800B4BFD361536030BC7047420D120104FAE2
:1019A80002F223EA020343F07063EAE7034A23F0F2
:1019B8007063556825F070655560E2E700000140E6
:1019C80001F003039B000F229A4000FA03F301F091
:1019D800FC0101F1804101F58031886820EA0202AA
:1019E8008A608A6813438B60704700BF837930B47C
:1019F8002BB31D4B01681A68CC4322401A605D68FE
:101A080002792C4002F180425C6002F5823215684E
:101A180044792943116002689868D1430840986066
:101A2800D868102C01EA0001D96014D004F1804371
:101A380003F58233196830BC0A431A60704703798A
:101A4800016803F1804303F582331A6830BC22EA47
:101A580001021A607047996830BC11439960D968CF
:101A68000A43DA60704700BF00040140024B1A695C
:101A780010431861704700BF00040140014B5861D2
:101A8800704700BF0004014008B5174B984212D0B8
:101A9800164B98421BD0164B984200D008BD4FF405
:101AA8000040012100F046FBBDE808404FF400402B
:101AB800002100F03FBB4FF40070012100F03AFB19
:101AC800BDE808404FF40070002100F033BB4FF42C
:101AD8008060012100F02EFBBDE808404FF48060D3
:101AE800002100F027BB00BF00240140002801406E
:101AF800003C014043680A6823F4702330B423F49F
:101B080080730C79134343EA0423436085688C6827
:101B1800CA68094B22432B404D79134343EA4503D6
:101B280083600B7CC26A013BDBB222F4700242EA9A
:101B38000353C36230BC7047FDF7F1FF836819B9DE
:101B480023F001038360704743F00103836070470B
:101B5800836843F008038360704700BF8068C0F360
:101B6800C0007047836843F004038360704700BF78
:101B78008068C0F38000704740F0BF60024B40F4BB
:101B88000030D860704700BF00ED00E0C37830B483
:101B98005BB90378012103F01F02914030BC5B0957
:101BA800144A203342F823107047134B4478DB68FB
:101BB8000F22DB43C3F30223C3F1040122FA03F328
:101BC8008C408578017803EA0502224301F16043DD
:101BD8001201D2B203F5614383F80023037801218F
:101BE80003F01F02914030BC024A5B0942F82310FF
:101BF800704700BF00E100E000ED00E0294A0388DB
:101C0800904270B49BB212D002F5006290420ED09E
:101C1800B0F1804F0BD0A2F59832904207D002F570
:101C28008062904203D002F58062904203D14A88D4
:101C380023F0700313431C4A90422AD002F58062B5
:101C4800904226D0CE8823F440738D880C889BB2AE
:101C580002F58C323343904203808585048512D087
:101C6800124B98420FD003F5406398420BD003F50E
:101C78008063984207D003F58063984203D070BC14
:101C88000123838270470B7A70BC03860123838209
:101C9800704703808B8870BC83850B88038501237C
:101CA80083827047002C014000100040003401403E
:101CB800038CF0B423F001031B041B0C0384028C77
:101CC8000D8984884F88038B2F4322F0020223F06A
:101CD80073031A4D12041B040E88120CBFB21B0C9E
:101CE800A84247EA0202A4B243EA060316D005F561
:101CF8000065A84212D005F54065A8420ED005F54A
:101D08008065A8420AD005F58065A84206D0C98832
:101D180084800383F0BC8186028470474E89CF8912
:101D28008D8922F0080232433D438E8824F44074A2
:101D380022F00402ADB232432C43E8E7002C014004
:101D4800038CF0B423F010031B041B0C0384028CD7
:101D5800848822F02002038B0D89120423F4E643C1
:101D6800120C42EA05124F881B040E88174D1B0CF3
:101D780042EA071243EA0623A84292B2A4B29BB2EF
:101D88000AD005F50065A84206D0C9888480038377
:101D9800F0BC01870284704722F08002B1F80AC0C3
:101DA80092B28F8942EA0C1C24F440644FF6BF7546
:101DB8008A88CE890CEA050544EA870445EA0212B6
:101DC80044EA860492B2A4B2DFE700BF002C0140C7
:101DD800038CF0B423F480731B041B0C0384028C63
:101DE8000D8922F4007284881204838B120C42EA53
:101DF80005224F8823F07303174D1B040E8842EA0F
:101E080007221B0CA84292B2A4B243EA06030AD0E6
:101E180005F50065A84206D0C98884808383F0BC94
:101E280081870284704722F40062B1F80AC092B236
:101E38008F8942EA0C2C24F440544FF6FF358A88E7
:101E4800CE890CEA050544EA071445EA022244EA69
:101E5800061492B2A4B2DFE7002C014010B40B883C
:101E68004C888A882343CC8813430A8923434C89A6
:101E780013438A89234313439BB2A0F844305DF887
:101E8800044B7047038829B923F001031B041B0C7A
:101E9800038070479BB243F001030380704700BF83
:101EA800B0F8443021B9C3F30E03A0F844307047AA
:101EB8006FEA43436FEA53439BB2A0F8443070473C
:101EC800038B23F008031B041B0C19430183704781
:101ED800038B23F400631B041B0C43EA01218BB220
:101EE80003837047838B23F008031B041B0C1943DF
:101EF80081837047038ACA889BB223F440531343F3
:101F080030B50382828904460B8988880D4692B2CF
:101F18004989034322F4B0520B4322F00C021343C5
:101F28009BB2A381A38AAA899BB223F4407387B08A
:101F38001343A38201A800F08FF8A189049A1A48D4
:101F4800039B09B2844208BF13462A68002903EBA1
:101F58008303B4BF5200920003EB83031349B3FB1E
:101F6800F2F3A1FB0352A089520900B264250028AC
:101F780002FB15334FEA02120ADB1B013233A1FBC5
:101F88000351C1F343110A4392B2228107B030BD15
:101F9800DB003233A1FB0301C1F342110A4392B2C1
:101FA800228107B030BD00BF003801401F85EB51CA
:101FB80030B40B884D888C88028A2B43C988234308
:101FC80092B20B4322F4706213439BB2038230BC7B
:101FD800704700BF0023038043808380C38070471D
:101FE800838929B923F400531B041B0C8381704790
:101FF8009BB243F400538381704700BF01F01F0375
:1020080010B4C1F342110124A14204FA03F310D021
:1020180002290CBF1030143004682AB924EA0303DB
:1020280003605DF8044B7047234303605DF8044B7D
:1020380070470C30F0E700BF014B1860704700BFD5
:10204800D8004242034B5A6822F440421043586079
:10205800704700BF001002401F4930B44B6803F0BE
:102068000C03042B01D0082B20D01C4A02601A4B09
:102078001B495D681B4CC5F303154D5DEA40426082
:102088005D68C5F302254D5D22FA05F585605D683A
:10209800C5F3C225495DCA40C2605B68C3F381339A
:1020A800E35C30BCB2FBF3F2026170474A684B68EC
:1020B800C2F38342DC0302F1020207D54B689B039B
:1020C80004D4064B03FB02F20260D0E7064B03FB85
:1020D80002F20260CBE700BF0010024000127A0053
:1020E800040000200000002000093D00044B5A694C
:1020F80019B922EA000058617047104358617047C7
:1021080000100240044B9A6919B922EA000098614C
:10211800704710439861704700100240044BDA6919
:1021280019B922EA0000D86170471043D861704796
:1021380000100240044BDA6819B922EA0000D8609E
:1021480070471043D86070470010024030B587B020
:102158000823002469461C48ADF800308DF8034078
:10216800FFF782FB4FF40040FFF76CFF01214FF4AB
:102178000070FFF7C7FF1548FFF786FC01254FF4ED
:102188006023124801A9039301948DF808408DF843
:10219800094004948DF81450FFF7ACFC0B4829460D
:1021A800FFF7CCFC0948FFF7D3FC0848FFF7D6FC3B
:1021B8000028FAD10548FFF7D5FC0448FFF7D8FCFA
:1021C8000028FAD107B030BD0010014000240140BA
:1021D80030B4104A104D13680F4CA86800BF00BFF8
:1021E80011688B42F7D122680B49D20348BFA06817
:1021F8000A4A4968126801F10101C0EB0100B0FB0D
:10220800F2F048BF01334FF47A7202FB030030BC8E
:10221800704700BFAC09002010E000E01400002067
:10222800014B1868704700BFAC09002008B572B6AA
:10223800054B064A12681A6801321A6062B6044BE6
:102248001B6803B1984708BDAC09002010E000E006
:10225800B0090020014B1860704700BFB00900208A
:102268000E4B0F4A1B680F49A2FB0302A1FB030395
:1022780092090D49013A9B0CB2F1807F30B40B6092
:1022880009D20A4B0A4CF025002007215A6084F82D
:1022980023509860196030BC704700BF2C000020A4
:1022A800D34D621083DE1B431400002010E000E0D1
:1022B80000ED00E010B5124C4FF4006120460122F9
:1022C800FFF73EFB20464FF480610122FFF738FB01
:1022D800012001F077FE20464FF400610022FFF74D
:1022E8002FFB012001F06EFE20464FF48061002292
:1022F800FFF726FBBDE81040012001F063BE00BFD8
:10230800000C014010B5134C4FF4806120460022A8
:10231800FFF716FB012001F055FE20464FF400613F
:102328000022FFF70DFB012001F04CFE20464FF480
:1023380080610122FFF704FB012001F043FE2046E3
:102348004FF400610122FFF7FBFABDE810400120BD
:1023580001F038BE000C014010B5134C4FF48061F9
:1023680020460022FFF7ECFA012001F02BFE204660
:102378004FF400610022FFF7E3FA012001F022FE8A
:1023880020464FF480610122FFF7DAFA012001F0BC
:1023980019FE20464FF480610022FFF7D1FABDE80C
:1023A8001040012001F00EBE000C014010B5134C86
:1023B8004FF4806120460022FFF7C2FA012001F0A5
:1023C80001FE20464FF400610122FFF7B9FA01200F
:1023D80001F0F8FD20464FF480610122FFF7B0FAC2
:1023E800012001F0EFFD20464FF480610022FFF745
:1023F800A7FABDE81040012001F0E4BD000C01403F
:1024080038B50446082514E00022FFF799FA0120A0
:1024180001F0D8FD012214484FF48061FFF790FACB
:10242800012001F0CFFD6A1E640012F0FF05E4B23E
:1024380011D04FF480610C480022FFF781FA012087
:1024480001F0C0FD230608484FF40061DCD50122E5
:10245800FFF776FADBE72A4603484FF48061BDE8C8
:102468003840FFF76DBA00BF000C0140F8B51B48B3
:102478004FF400610122FFF763FA082700264FF4A2
:10248800806100221548FFF75BFA012001F09AFDF0
:1024980012484FF480610122FFF752FA7600F6B233
:1024A800082500240D484FF40061FFF73FFA6B1E22
:1024B800204413F0FF05C4B2F4D1032C07F1FF3216
:1024C80088BF46F0010612F0FF07D8D13A46034804
:1024D8004FF48061FFF734FA3046F8BD000C014034
:1024E80008B54FF4806100221748FFF729FA012048
:1024F80001F068FD4FF4006101221348FFF720FA4C
:10250800012001F05FFD4FF4806101220E48FFF7C2
:1025180017FA012001F056FD0B484FF40061FFF750
:1025280005FA012807D0BDE8084007484FF4806144
:102538000022FFF705BA054B186001F011FD044BA6
:102548001A6801321A60EEE7000C0140140F0020EF
:10255800100F0020024840F227710122FFF74EBDFC
:10256800004C004000B54FF4A06083B0FFF704FBB7
:1025780001233421002201A88DF804108DF80530BC
:102588008DF807308DF80620FFF700FB03B05DF8E3
:1025980004FB00BF014801F09DBA00BFC40B002036
:1025A800014801F0D3B900BFC40B002008B50348A7
:1025B80001F0CCF90028FAD108BD00BFB409002009
:1025C80001460122014801F0D5B900BFB409002035
:1025D80010B5017841B104460448012201F0CAF956
:1025E80014F8011F0029F7D110BD00BFB40900205D
:1025F800264B274A70B5196815880131ADB21960A4
:10260800290613D5234C2168636899422DD0236885
:10261800204623441B7B9380266801F093F90136FA
:10262800864216BF2368002301332360AB0600D41B
:1026380070BD174B184C9B8820469EB201F086F956
:102648000546204601F07EF96B1C834216D063686C
:102658002046234465681E7301F074F901358542EC
:1026680010D063680133636070BD104640F2277173
:102678000022FFF7C3FC00BF00BFD7E7A368013300
:10268800A36070BD0023636070BD00BF180F0020F9
:10269800004C0040B4090020C40B002008B50548D0
:1026A800054901F047F9BDE808400448002101F058
:1026B80041B900BFB40900205D250008C40B002003
:1026C80030B5234D89B0284601A9182203234FF4B9
:1026D8008064ADF804408DF807201E4C8DF8063054
:1026E800FFF7C2F84FF40062282301A92846ADF885
:1026F80004208DF80730FFF7B7F802A8FFF76AFC47
:1027080002A92046FFF754FC4FF416550023204633
:102718000C2204A9ADF81430ADF81630ADF8183015
:10272800ADF81C30ADF81A200495FFF7E3FB012241
:10273800204640F22551FFF761FC20460121FFF7B2
:102748004FFCFFF7ABFFFFF70DFF09B030BD00BF2F
:1027580000100140004C0040014B9868704700BFD2
:102768001C0F002038B50F4C256861682368C91A0A
:1027780000290FD00FDB6019C9B20C3003F09AFDA5
:1027880025680544074801F0DDF895FBF0F303FBE5
:102798001050206038BD204601F0D4F82168411A55
:1027A800E9E700BF1C0F002008B5064B1B6803B102
:1027B80008BDFFF735FD044B1860BDE80840FFF77A
:1027C800D1BF00BFFC190020D40D002008B507496F
:1027D800074B012000221A600860FFF721FD054B16
:1027E8001860BDE80840FFF7BDBF00BFD80D002046
:1027F800FC190020D40D002008B503F0C5FC03F037
:10280800F9FC03F015FD03F089FBBDE80840024818
:10281800024901F08FB800BF1C0F0020B127000843
:1028280038B505460C4603F09FFD28B129460348F4
:102838002246002301F0E6F8204638BD1C0F002090
:10284800014B1868704700BF481A0020054B10B5A7
:102858001C688C42A8BF0C46214603F04FFD204659
:1028680010BD00BF481A002010B50446FFF7B0FCA1
:102878002060606010BD00BF10B50446FFF7A8FCDB
:1028880063686060C01A10BD05C8101A704700BFA1
:10289800184B2DE9F04118681749FEF779FA174BDC
:1028A800174C1968FEF76CF905466078FEF718FAB8
:1028B8001149FEF721FB2946FEF76AFA07462079F7
:1028C800FEF70EFA0F49FEF717FB0F4E80463168E8
:1028D8002846FEF753F901464046FEF759FA3946AD
:1028E8003560FEF74DF9094BE179BDE8F041186014
:1028F80001F040BD2C11002000007A44DC0D0020BE
:10290800440000200000C842300E00205011002072
:10291800184B2DE9F04158681749FEF739FA174B5B
:10292800174C1968FEF72CF905462078FEF7D8F9F8
:102938001149FEF7E1FA2946FEF72AFA0746E07838
:10294800FEF7CEF90F49FEF7D7FA0F4E80463168E9
:102958002846FEF713F901464046FEF719FA3946AC
:102968003560FEF70DF9094BA179BDE8F0415860D3
:1029780001F020BD2C11002000007A44380E002000
:10298800440000200000C842080E0020501100201A
:10299800184B2DE9F04198681749FEF7F9F9174BDC
:1029A800174C1968FEF7ECF80546A078FEF798F979
:1029B8001149FEF7A1FA2946FEF7EAF907466079B8
:1029C800FEF78EF90F49FEF797FA0F4E80463168E9
:1029D8002846FEF7D3F801464046FEF7D9F93946AE
:1029E8003560FEF7CDF8094B217ABDE8F0419860D3
:1029F80001F000BD2C11002000007A44F00D0020E9
:102A0800440000200000C8425C0E00205011002045
:102A18002DE9F0411D4D1E4C96261C4801F0AAF9DF
:102A2800A968286803F088FEA9688046686803F0EA
:102A380083FE184907462068FEF7AAF94146FEF7C3
:102A48009DF81549FEF758FA124920606068FEF7AC
:102A58009FF901463846FEF793F80F49FEF74CFAFE
:102A68006060012001F0B6FA013E094FD5D10B4A4A
:102A78000B4B0C497E683D680B4800245660156076
:102A88009460986059601960BDE8F081100E0020CC
:102A98004411002000001543000016432C110020AB
:102AA800381100200000B442000034432DE9F84FEB
:102AB8001746926806460C46104611461D46FEF714
:102AC80067F9D7F80480814641464046FEF760F929
:102AD80001464846FEF754F8D7F80090DDF82880FC
:102AE80003F02CFE0146484603F026FEB9688146ED
:102AF800786803F021FE3B4907463068FEF748F93D
:102B08004946FEF73BF83849FEF7F6F93549306093
:102B18007068FEF73DF901463846FEF731F832494C
:102B2800FEF7EAF97060296881464046FEF730F9F9
:102B3800676801463846FEF723F839468246484614
:102B4800FEF71CF82949FEF723F901465046FEF71F
:102B580017F86060814603F0B1FD0746484603F068
:102B680077FD8146A868394600F10040FEF710F964
:102B7800696882464846FEF70BF901465046FDF75C
:102B8800FFFF01464046FEF703F9D4F800A00146CE
:102B98005046FDF7F5FF514683463068FDF7EEFFD6
:102BA8001249FEF7F5F801465846FDF7E9FF20609F
:102BB800A968484601F10041FEF7EAF86968064647
:102BC8003846FEF7E5F801463046FDF7D7FF0146DF
:102BD8004046FEF7DDF80146A068FDF7D1FFA0608A
:102BE800BDE8F88F0000C6420000C84217B7513947
:102BF800F8B51E4D04462E680F4630464FF080410A
:102C0800FDF7BCFF2146FEF77FFA00282BD14FF0D5
:102C180080413046FDF7B4FF01462046FEF774FABE
:102C2800B0B9134A00232B6013601D46114C12499A
:102C38002068FEF7ADF82946FDF7A2FF0F49FEF719
:102C48005BF90346014623603846FDF797FFF8BD58
:102C58004FF040432B6020460949FEF799F8044B92
:102C680005461860E2E74FF08043F3E7F40D0020D3
:102C7800400E00201C0E002000001C4200002042D4
:102C8800CDCC0C3F2DE9F04F304F99B03B681190F7
:102C980001333B6001F048F901F068F916A8FFF725
:102CA800E3FD2B4801F066F816A8FFF7E5FD129042
:102CB800284801F08BF816A8FFF7DEFDDFF8B8A06A
:102CC8001199244B1390009123485146204AFFF74D
:102CD800EDFE16A8FFF7D0FD204D14906B7A312B2E
:102CE80050D0DAF80440DFF89480DFF894B0D8F8D0
:102CF8000030002B51D11A4E1A49DBF80400FEF7B8
:102D0800FBF83168FDF73CFF21463060FDF738FFDE
:102D18001549FEF73DF815490446FEF7D7F900288E
:102D280040F0618120464FF07E51FEF7EDF908B181
:102D38004FF07E540E4B0E4910930E4B08681C60E2
:102D48002146FDF71DFF109A106081E0200E00203B
:102D5800100E0020240E0020441100204400002002
:102D6800E00D002000007A4433336542000080BF44
:102D7800380E0020641100202C11002018000020BB
:102D8800F80D0020DFF82483D8F80030002B00F07D
:102D98002E81DAF80440DFF818B3A64EA649706809
:102DA800FDF7ECFEA549FDF7F3FFDFF8F4920346C3
:102DB800C9F8043001462046FDF7E0FEA049CBF8EB
:102DC8000400FEF799F89F4A1168FDF7D9FE9D4B5C
:102DD80021461860FDF7D4FE9B49FDF7D9FF9B49B2
:102DE8000446FEF773F9002840F0FF8020464FF0B4
:102DF8007E51FEF789F908B14FF07E54944B9549FE
:102E08001C60086810912146FDF7BAFE109A924995
:102E18001060B068FDF7B2FE8849FDF7B9FF0346B8
:102E2800C9F808300146DAF80800FDF7A7FE8B4C10
:102E380081462168CBF80800FDF7A2FE884E206085
:102E48007F494846FEF758F83168FDF799FE30602B
:102E5800844CDBF800007A49FEF74EF82168FDF74C
:102E68008FFEDAF800102060FDF78AFE0446E87A43
:102E78006438FDF739FF7C49FEF73EF801F0BAF8EF
:102E880001462046FDF77CFE6F49FDF781FF6F493B
:102E98000446FEF71BF9002840F0A38020464FF0B7
:102EA8007E51FEF731F908B14FF07E546F4B704EEA
:102EB8001C6030682146FDF763FEAB7A3060302B2A
:102EC800D8F8003000F0838083B9DBF80880634CC1
:102ED80040462168FDF754FE614D20605849404640
:102EE800FEF70AF82968FDF74BFE286016A8FFF7D9
:102EF800C3FC0446FFF70CFDFFF7CAFCFFF748FDCB
:102F080016A8FFF7B9FC804616A8FFF7BDFC594D77
:102F180081462B680133B3F5FA7F2B6052DB564BA1
:102F28001B68002B40F0E180544B1B68002B40F0DD
:102F38000D81534B1B68002B40F03881514B1B68A7
:102F4800002B40F04C81504B1B68002B40F07381E4
:102F58004E4B424C1B68002B40F088814C4B1B6841
:102F6800002B40F0AE814B4B324E1B68002B40F0DB
:102F7800A180B0683049FDF701FE3049FDF708FF30
:102F8800FDF792FA0646DAF808000F46FDF78CFAC4
:102F9800CDE90001DBF80800FDF786FACDE902016A
:102FA8002F4B1868FDF780FACDE904012068FDF77A
:102FB8007BFA3B46CDE906013246374801F048FC2A
:102FC80000232B6000F0B8FF19B0BDE8F08F002B8C
:102FD8008CD1324B214C98682168FFF709FE20609C
:102FE80084E71A4C62E7194CA4E6184C06E7DFF8A8
:102FF800C0B02B49584601F06BFFDAF80440294964
:103008002046DBF80460FEF761F820B13046002165
:10301800FEF77AF848B920462349FEF775F828B133
:1030280030460021FEF752F800B10026CBF80460C4
:103038005DE600BF381100200000B44234FA8E3C2F
:1030480000007A44E00D002033336542000080BF61
:1030580064110020380E002000003443F00D0020D9
:10306800EC0D0020440E0020000020415C110020DF
:10307800DC0D0020340E00200C0E0020480E00202D
:10308800600E00203C0E0020E80D0020E40D00201A
:10309800040E00204C0E00204CB6000850110020F1
:1030A800500E0020F1665FBFD90FC93F18000020FD
:1030B800F80D002070689349FDF760FDFDF7F4F9FD
:1030C800804630688946FDF7EFF9CDE900018E4961
:1030D800B068FDF753FDFDF7E7F94246CDE9020177
:1030E8004B468A4801F0B4FB43E7894B3F681A68AE
:1030F800DAF800000D92159700F074FF0146DAF82F
:1031080004000F9100F06EFF0346DAF808000E93F2
:1031180000F068FF0F9907460846FDF7C5F90E9BB2
:10312800CDE900011846FDF7BFF9CDE9020138469F
:10313800FDF7BAF90D9ACDE904011599754801F022
:1031480087FB754B1B68002B3FF4F3AE1198FDF716
:10315800ABF9724F024638680D920E91FDF7A4F94B
:10316800CDE900017868FDF79FF9CDE90201B8685B
:10317800FDF79AF96A4FCDE904013868FDF794F92B
:10318800CDE906017868FDF78FF9CDE90801B8683F
:10319800FDF78AF90E9BCDE90A010D9A614801F005
:1031A80057FB614B1B68002B3FF4C8AE01F0F0FBE6
:1031B800FDF77AF90B461299024601911399CDF859
:1031C80000900291149904940391CDF81480574803
:1031D80001F03EFB564B1B68002B3FF4B4AE554C38
:1031E8002068FDF761F9804660688946FDF75CF95B
:1031F800CDE90001A068FDF757F9CDE90201DBF838
:103208000000FDF751F9CDE90401DBF80400FDF7F2
:103218004BF9CDE90601DBF80800FDF745F94B4607
:10322800CDE908014246444801F012FB434B1B68B4
:10323800002B3FF48DAE3068FDF736F9109A06463C
:1032480010680F46FDF730F9CDE900013C4C2068C5
:10325800FDF72AF93B46CDE902013246394801F02B
:10326800F7FA394B1B68002B3FF478AE374A3848D9
:10327800384BD2F80080576896680ECB12930368D3
:10328800D0F80890109343680F9111930D92FFF7AF
:1032980063FA0F990D9A119B009101921299109A55
:1032A80002910392049306903346CDF81490414658
:1032B8003A46294801F0CCFA284B1B68002B3FF40A
:1032C80052AEDFF8A480D8F80400FDF7EDF8064602
:1032D800D8F800000F46FDF7E7F8CDE90001D8F867
:1032E8000800FDF7E1F8CDE902011D4B1868FDF76C
:1032F800DBF83246CDE904013B461A4801F0A8FA4A
:1033080031E600BF0000B4420000344310B60008A4
:10331800100F0020C8B30008480E0020100E00202F
:10332800240E002010B40008600E00205CB40008D1
:103338003C0E0020500E0020C0B40008E80D00200C
:10334800F00D002020B50008E40D002078110020C1
:10335800841100206C11002068B50008040E0020BC
:10336800F40D0020C0B500085011002070B501F020
:10337800A5FA041E62DB00F0D7FDA4F124035A2B42
:103388005CD8DFE813F04B015B005B005B005B007F
:103398005B005B0045015B0036015B005B005B0086
:1033A8005B005B005B005B005B005B005B005B003D
:1033B8005B005B005B005B005B005B005B005B002D
:1033C8005B005B005B005B005B005B0032015B0045
:1033D8005B005B005B005B005B005B005B005B000D
:1033E8005B0027015B005B005B005B005B005B0030
:1033F8005B005B005B005B005B005B005B0018012F
:103408000901FE00EF00E0005B005B00D000C00097
:10341800BC00B8005B005B005B005B00A9009A0081
:103428005B008B007C005B0071006B005B005B0045
:103438005B005B005B005B005B005C0070BDAD4B3C
:10344800AD481A68AD4982F00102002A08BF01465A
:103458001A60AB48BDE8704001F0FAB9A948AA491A
:10346800BDE8704001F0F4B9A84B1C6802F09AFF5F
:1034780021460246BDE87040A54801F005BAA54BB3
:103488009D481A689D4982F00102002A08BF01463A
:103498001A60A148BDE8704001F0DAB99F4B964820
:1034A8001A68964982F00102002A08BF01461A608C
:1034B8009B48BDE8704001F0CBB99A4B8E481A681A
:1034C8008E4982F00102002A08BF01461A60964818
:1034D800BDE8704001F0BCB9944B87481A68874929
:1034E80082F00102002A08BF01461A609048BDE830
:1034F800704001F0ADB98F4B00221A6070BD8D4B42
:1035080001221A6070BD8C4D002401F0D7F9002803
:10351800FBDBFE28D8BF605501340C2CF5D1BDE883
:10352800704001F037BE642000F054FD782001F0AF
:10353800F9F9824C04F10C0514F8010F01F0F2F9C5
:10354800AC42F9D170BD7E4B6B481A686B4982F06A
:103558000102002A08BF01461A607A48BDE8704097
:1035680001F076B9784B64481A68644982F0010220
:10357800002A08BF01461A607448BDE8704001F08F
:1035880067B9734801F064F94FF47A7000F022FDCE
:10359800BDE8704000F0A8BD6E4B57481A685749FF
:1035A80082F00102002A08BF01461A606A48BDE895
:1035B800704001F04DB9694B4F481A684F4982F085
:1035C8000102002A08BF01461A606548BDE870403C
:1035D80001F03EB9634801F03BF94FF47A7000F00E
:1035E800F9FCBDE8704000F075BDBDE8704001F021
:1035F800EFBD5D4C5D492068FDF7C0FA2060FCF71F
:1036080053FFBDE8704002460B46594801F020B907
:10361800554C56492068FDF7B3FAEFE701F076F903
:1036280009281EDD0125002408E0E31E022B27D906
:10363800092C1BD10A2D13D00134013501F03EF9B4
:103648003038FDF751FB022C0146EEDC002C3ED051
:10365800012C32D0474E7068FDF792FA7060E9E7A6
:1036680070BD2420BDE8704001F022B9062C1BD0A3
:10367800072C0FD03F4EB068FDF782FAB060D9E74B
:10368800032C7DD0042C2BD03A4E3068FDF778FA05
:103698003060CFE73849FDF77BFB364E0146B0680E
:1036A800FDF76EFAB060C7E73449FDF771FB0021FA
:1036B800FDF766FA2F4B9860BEE72F49FDF768FBC8
:1036C8002C4E01467068FDF75BFA7060B4E72B4931
:1036D800FDF75EFB0021FDF753FA264B5860ABE778
:1036E8002549FDF755FB234E01463068FDF748FA9A
:1036F8003060A1E74C0E002060B600085CB60008F8
:10370800A0B700086CB700087CB70008C80E0020F6
:1037180040B70008480E002028B700083C0E0020DB
:1037280004B70008600E0020E8B60008E80D002085
:10373800CCB6000868110020440000204300002097
:103748000C0E0020B8B60008E40D0020A0B6000852
:103758007CB60008040E002064B60008180000209B
:10376800B4B7000818B7000830000020CDCCCC3D15
:1037780084B7000838110020000020410000C8422A
:103788000449FDF705FB0021FDF7FAF9024B186023
:1037980052E700BF0000C84238110020114B5A6898
:1037A80002F00C02082A0ED15A685968C2F3834203
:1037B800C90302F1020211D55B689B030ED40A4BC0
:1037C80003FB02F200E0084A064B08485968084B18
:1037D800C1F30311415CCA401A607047054B03FBF3
:1037E80002F2F1E70010024000127A001C000020EB
:1037F8002C00002000093D00494B10B51968494AC2
:1038080041F001011960596882B00A405A6019688C
:10381800002021F0847121F48031196019684FF477
:103828001F0421F48021196059681A4621F4FE0109
:1038380059609C6000900190196841F480311960CA
:1038480003E0009BB3F5A06F09D0136803F40033BD
:103858000193009B01330093019B002BF1D0304B67
:10386800314A1B6813F4003318BF01230193019BED
:103878001068012B40F0100010601068284B20F0F1
:10388800030010601068194640F0020010605A6882
:103898005A605A685A605A6842F480625A605A6894
:1038A80022F47C125A605A681FD042F460125A609F
:1038B8001A6842F080721A600B68194A9B01FBD59E
:1038C8005368114623F003035360536843F002031F
:1038D80053604B6803F00C03082BFAD1FFF75EFF27
:1038E800124A134B9A6002B010BD42F4E8125A60B3
:1038F8001A6842F080721A600B68094A9801FBD571
:103908005368114623F003035360536843F00203DE
:1039180053604B6803F00C03082BFAD1E0E700BFB3
:10392800001002400000FFF80020024000000008DC
:1039380000ED00E000230360C0F80C1243608360D0
:10394800704700BF4FF40070704700BF42680368BB
:103958000748D31A03F500731840002800DB7047A6
:1039680001386FEAC0506FEAD0500130704700BF8D
:10397800FF01008038B532B340F2FF1501E0AB42D9
:1039880010D1446802681E4BA21A02F50072134057
:10399800002BF4DA013B6FEAC3536FEAD3530133C8
:1039A800AB42EED04468426840F2FF139A4216BF19
:1039B800436800230133044421734360D0F80C3278
:1039C80003B1984738BD446802680D4BA21A02F546
:1039D80000721340002B07DB40F2FF129342E1D143
:1039E80083680133836038BD013B6FEAC3536FEAD4
:1039F800D353013340F2FF129342D3D1F0E700BF13
:103A0800FF010080F8B504460F461646EBB9416839
:103A180002682F4B8A1A02F500721340002B49DB0B
:103A28003344B3F5007F1DDBA268D4F80C3216448A
:103A3800A66073BB2EE0013B6FEAC3536FEAD35312
:103A480001333344B3F5007F0CDB65682068204BF5
:103A5800281A00F500700340002BECDB3344B3F563
:103A6800007FF2DA65686068C5F50075AE4212DD60
:103A78002044761B39462A460C30FDF775FB791928
:103A8800324604F10C00FDF76FFB6660D4F80C3287
:103A980003B19847F8BD204439460C303246FDF74B
:103AA80063FB63683344B3F5007F0ED063681E443C
:103AB8006660EBE7013B6FEAC3536FEAD353013308
:103AC8003344B3F5007FCDDBAEE700236360DDE769
:103AD800FF01008001684268034691420DD00068EA
:103AE800196840F2FF12914218BF1A6818440CBFB7
:103AF80000220132007B1A6070474FF0FF30704798
:103B080010B5FEF7D7FBD020FEF77AFCFEF7E8FCED
:103B18007520FEF775FCFEF7E3FCFEF7F3FB0120CA
:103B280000F058FAFEF7C6FBD120FEF769FCFEF755
:103B3800D7FCFEF79BFC0446FEF738FCFEF7E2FBD9
:103B4800682C40F0CB80052000F044FAFEF7B2FB69
:103B5800D020FEF755FCFEF7C3FC6B20FEF750FCA7
:103B6800FEF7BEFC8020FEF74BFCFEF7B9FCFEF723
:103B7800C9FB962000F02EFAFEF79CFBD020FEF73A
:103B88003FFCFEF7ADFC6B20FEF73AFCFEF7A8FC05
:103B98000320FEF735FCFEF7A3FCFEF7B3FB052078
:103BA80000F018FAFEF786FBD020FEF729FCFEF796
:103BB80097FC6C20FEF724FCFEF792FC0020FEF731
:103BC8001FFCFEF78DFCFEF79DFB052000F002FAB6
:103BD800FEF770FBD020FEF713FCFEF781FC1920DE
:103BE800FEF70EFCFEF77CFC0020FEF709FCFEF752
:103BF80077FCFEF787FB052000F0ECF9FEF75AFB8F
:103C0800D020FEF7FDFBFEF76BFC1A20FEF7F8FB51
:103C1800FEF766FC0020FEF7F3FBFEF761FCFEF7FB
:103C280071FB052000F0D6F9FEF744FBD020FEF723
:103C3800E7FBFEF755FC1B20FEF7E2FBFEF750FC06
:103C48000020FEF7DDFBFEF74BFCFEF75BFB0520D3
:103C580000F0C0F9FEF72EFBD020FEF7D1FBFEF7EF
:103C68003FFC1C20FEF7CCFBFEF73AFC0020FEF7D9
:103C7800C7FBFEF735FCFEF745FB052000F0AAF967
:103C8800FEF718FBD020FEF7BBFBFEF729FC372018
:103C9800FEF7B6FBFEF724FC0020FEF7B1FBFEF7AB
:103CA8001FFCFEF72FFB052000F094F9FEF702FB3E
:103CB800D020FEF7A5FBFEF713FC3820FEF7A0FB8B
:103CC800FEF70EFC0020FEF79BFBFEF709FCFEF753
:103CD80019FB052000F07EF9002010BD4FF0FF30E1
:103CE80010BD00BF70B5224C002323600E46054668
:103CF800FEF7E0FAD020FEF783FBFEF7F1FB23681E
:103D080003B170BDE8B2FEF77BFBFEF7E9FB236861
:103D1800002BF6D1FEF7F6FAFEF7CCFAD120FEF723
:103D28006FFBFEF7DDFB2368002BEAD1FEF79EFB55
:103D38003070FEF711FBFEF799FB7070FEF70CFB75
:103D4800FEF794FBB070FEF707FBFEF78FFBF070F1
:103D5800FEF702FBFEF78AFB3071FEF7FDFAFEF76D
:103D680085FB7071FEF722FBBDE87040FEF7CABA0A
:103D7800140F002010B582B0044669463B20FFF7B7
:103D8800B1FF114B1B68EBB99DF801309DF800009D
:103D980043EA002000B2FCF7A7FF9DF802209DF837
:103DA8000330206043EA022000B2FCF79DFF9DF833
:103DB80004209DF80530606043EA022000B2FCF759
:103DC80093FFA06002B010BD140F002010B582B0A0
:103DD800044669464320FFF785FF1F4B1B68002BED
:103DE80038D19DF800109DF801301C4A43EA0123A0
:103DF800138018B2FCF778FF194B1968FCF7BEFE60
:103E08001849FDF779F89DF802109DF80330164A15
:103E180043EA01231380206018B2FCF765FF134BB7
:103E28001968FCF7ABFE0F49FDF766F89DF804101A
:103E38009DF805300E4A43EA01231380606018B2EA
:103E4800FCF752FF0B4B1968FCF798FE0549FDF784
:103E580053F8A06002B010BD140F00206C0E0020B3
:103E6800700E0020FA8DEA45640E0020740E0020C2
:103E78006E0E0020680E00202DE9F04F234EDFF86B
:103E88009CB0234DDFF898A0224CDFF8989085B0BD
:103E98004FF0960801A8FFF799FFBBF90000FCF75F
:103EA80023FF3168FCF76CFE3060BAF90000FCF7BC
:103EB8001BFF2968FCF764FE2860B9F90000FCF7CD
:103EC80013FF2168FCF75CFE2060022000F082F8F6
:103ED800B8F101080F4FDDD10C4B0F491868FDF7F9
:103EE8000BF80A4B0C491860094B1868FDF704F8E1
:103EF800074B094918603868FCF7FEFF3860052051
:103F080000F068F805B0BDE8F08F00BF700E002023
:103F1800740E0020680E0020000016436C0E00206E
:103F2800640E00206E0E002002484FF48051FDF709
:103F380003BD00BF000C014002484FF48051FDF75B
:103F4800FDBC00BF000C014008B572B603484FF431
:103F58008051FDF7FBFC62B608BD00BF000C0140B4
:103F680001480821FDF7E8BC000801400148082184
:103F7800FDF7E4BC0008014008B572B60248082104
:103F8800FDF7E4FC62B608BD0008014038B50B4CEB
:103F9800422000F0D5FC20464FF48051FDF7CCFCC0
:103FA800074D28460138FDD84FF480512046FDF7CB
:103FB800C5FC28460138FDD838BD00BF000C0140BB
:103FC800009F240000EB4000830018460138FDD80C
:103FD800704700BF42F6E06303FB00F31846013860
:103FE800FDD8704708B50249FCF7D2FE08BD00BFEE
:103FF800E02E654208B50249FCF7CAFE08BD00BFBD
:1040080035FA8E3C10B500210446FDF773F828B147
:1040180020464FF07C51FCF7B3FD10BD20464FF011
:104028007C51FCF7ABFD10BD012870B418D00228F4
:104038000FD1002A0ADD124C8E18254623885B060C
:10404800FCD511F8013BB142AB80F7D1104670BCEA
:1040580070470C4B09224FF0FF301A6070BC704754
:10406800002AF3DD064C8E18254623885806FCD511
:1040780011F8013BB142AB80F7D11046E7E700BF2A
:10408800004C00404C1A00200D4B10B51A6804462D
:1040980092B11046EFF3088102198A4201D81A60DA
:1040A80010BD084919220220FFF7BEFF064B0C225B
:1040B8001A604FF0FF3010BD04481860EAE700BFEF
:1040C800780E0020D8B700084C1A0020501A00209B
:1040D800704700BF024B034ADA6000BFFDE700BF2C
:1040E80000ED00E00400FA050F4B10B5B3F1006FC6
:1040F80000D110BD0D490E4BC8690E4A40F0C050A2
:10410800C8611C6846F6B43044F4807444F6FC2157
:104118001C60A2F8B800A2F8BC101A6822F48072D9
:104128001A60FFF7D7FF00BF000000080010024028
:1041380000700040006C004038B504460D46FDF79D
:10414800B7FD20462946FDF7FBFD20462946FDF729
:104158003FFE20460821FDF7B3FE20460821FDF763
:10416800B7FE20460821BDE83840FDF7BBBE00BFBA
:10417800F0B589B00D4600244FF47A724FF40073FD
:10418800064601A90327ADF80820ADF80A30ADF8B6
:104198000470ADF80640FDF731FD6022012330467A
:1041A80004A9ADF81850ADF81640ADF81020ADF8D8
:1041B8001230FFF7C1FF09B0F0BD00BFF0B58DB0F8
:1041C800002403224FF47A7301A90546ADF80420B0
:1041D800ADF80830ADF80640ADF80A408DF80C404F
:1041E800FDF70CFD1B4B4FF4006ED3F800C02846BA
:1041F8004FF480764FF400524FF4804304A94FF4F3
:104208008067ADF816C0ADF810E0ADF81A20ADF82B
:104218001C30ADF81840ADF81270ADF81460FDF719
:104228001DFE284601220423602508A9ADF8264072
:10423800ADF82840ADF82A40ADF82C60ADF82E4016
:10424800ADF82050ADF82220ADF82430FFF774FF08
:104258000DB0F0BD3C0000200D4A30B4136800F1E9
:104268000C05C3F5FA7464000168CB1AA342A8BF11
:10427800234640F8043B11688B42B8BF0023A8428C
:1042880040F8043C01D01368EEE730BC704700BF2B
:1042980034000020F8B5324B04461D680F46284606
:1042A80000211646FCF726FF002850D02D49284645
:1042B800FCF722FE4FF08941FCF76AFDFFF7A2FEEA
:1042C800FCF72CFF284B0340002B42DB002BB8BF28
:1042D80003F58063254803F2551103F2AB22C2F3BC
:1042E8000902C1F3090130F9135030F9111030F9FE
:1042F800123006EB860202FB01F102FB03F302FB1C
:1043080005F21B4801F57F5103F57F5302F57F52F3
:104318003F313F333F3280FB015680FB037580FB02
:1043280002700E441D441044C917DB17D217C1EBA5
:10433800A631C3EBA533C2EBA03201F5FA7103F540
:10434800FA7302F5FA726160A3602260F8BD3D4617
:10435800ACE7013B6FEA83536FEA93530133B5E748
:1043680030000020DB0FC940FF03008090110020BF
:104378000300018000B585B00A46014601A8FFF791
:1043880089FF72B6094B01A807C883E8070062B61F
:1043980072B6074A0121138A23F001031B041B0C80
:1043A8001382918162B605B05DF804FB7C0E002093
:1043B8000034014000B585B00A46014601A8FFF760
:1043C80069FF72B6094B01A807C883E8070062B6FF
:1043D80072B6074A0121138A23F001031B041B0C40
:1043E8001382918162B605B05DF804FB880E002047
:1043F800002C014000B585B00A46014601A8FFF728
:1044080049FF01A8FFF728FF72B60B4B01A807C8A0
:1044180083E8070062B6094B00221A6072B6084AA0
:104428000121138A23F001031B041B0C13829181C1
:1044380062B605B05DF804FB940E00203800002039
:10444800000C0040274BF0B41A8AD2071AD51A8AF2
:1044580022F001021204120C1A8272B6224A23496F
:1044680094689B8C886801349BB29460204A83428C
:10447800C8BF8B6091688B42B8BF9360B3F5487F23
:1044880002D362B6F0BC70471A4B1B68EBB91A4BE3
:104498001A4A1B681488908811895B009BB2184AD5
:1044A8001F191E185D180F4BBFB2B6B2ADB2978672
:1044B800168795879C86188799870A4A938923F0D7
:1044C80001031B041B0C9381DBE70D49054B40F2EC
:1044D800E93000228886088788879A861A879A870B
:1044E800EBE700BF000C0040841100206C11002095
:1044F800781100203800002034000020940E00209D
:1045080000080040174A10B4138A23F001031B0463
:104518001B0C138272B61448938C144942689BB2E0
:104528004C689342124A04F101044C605168C8BFB8
:1045380043608B42B8BF5360B3F5487F0DD20D4A34
:10454800084B108891881289988619879A879A89C2
:1045580022F001021204120C9A8162B65DF8044B33
:10456800704700BF002C01406C110020841100200E
:1045780078110020880E0020174A10B4138A23F0FF
:1045880001031B041B0C138272B61448938C144944
:1045980002689BB20C689342124A04F101040C6051
:1045A8001168C8BF03608B42B8BF1360B3F5487F7A
:1045B8000DD20D4A084B1088918812899886198760
:1045C8009A879A8922F001021204120C9A8162B623
:1045D8005DF8044B704700BF003401406C110020A7
:1045E80084110020781100207C0E002010B5412095
:1045F80000F0A6F972B60B4A00231360536093606B
:1046080062B672B6084A13605360936062B6074C8C
:1046180007480849084A0123236083818B819381D5
:1046280010BD00BF7C0E0020880E0020380000203E
:10463800000C0040002C0140003401402DE9F043FB
:10464800DFF80881374B3849384D394E83B000249C
:1046580040F2E9324046DFF8F8909A605A601A60F2
:104668008C604C600C60AC606C602C60314FFFF764
:10467800A5FD3046FFF7A2FD21464846FFF778FD25
:1046880038460221FFF774FD2B4B01251B8801A832
:1046980003F5A87103F29F2289B292B2BB84A8F8ED
:1046A80024103223B2848DF804308DF805408DF83B
:1046B80006408DF80750FDF769FA01A819238DF80F
:1046C80004308DF805408DF806408DF80750FDF749
:1046D8005DFA2C2301A88DF805408DF806408DF869
:1046E80007508DF80430FDF751FA72B6134A144B8F
:1046F8001449154C0D6048462560294615601D6013
:10470800FDF7CEFB38462946FDF7CAFB4046294649
:10471800FDF7C6FB30462946FDF7C2FB62B603B07B
:10472800BDE8F083781100206C110020841100206E
:104738000034014000080040340000200080254279
:10474800008026420080014200000142002C014006
:10475800000C0040704700BFFEE700BFFEE700BF47
:10476800FEE700BFFEE700BF704700BF704700BF0D
:10477800704700BF01F0A0BC4FF48020FDF77EB960
:1047880038B5044605200D46FFF724FCFDF792FDD9
:10479800AE20FDF735FEFDF7A3FE2046FDF730FEFF
:1047A800FDF79EFE2846FDF72BFEFDF799FEFDF767
:1047B800A9FDBDE838400520FFF70CBC38B5054613
:1047C800174C0120FFF706FC00232360FDF772FD5C
:1047D800AE20FDF715FEFDF783FE2846FDF710FE17
:1047E800FDF77EFEFDF78EFD0120FFF7F3FBFDF7D9
:1047F80061FDAF20FDF704FEFDF772FEFDF736FE02
:104808000546FDF7D3FDFDF77DFD0120FFF7E2FB2F
:104818002368002B0CBF28464FF0FF3038BD00BF7F
:10482800140F002008B5FDF74BFF0748FDF7D0FE31
:10483800FDF7BCFEFDF7E0FF0448FDF7C9FEBDE843
:104848000840FDF7B3BE00BFF4B7000804B800087D
:104858000FB410B5C2B044AC54F8042BFF21234662
:1048680002A8019403F0E6F802A8FDF7B1FE02A839
:1048780003F086F8014602A8FDF7D2FF42B0BDE872
:10488800104004B0704700BF0FB410B5C2B044ACBC
:1048980054F8042BFF21234602A8019403F0CAF818
:1048A80002A8FDF795FE42B0BDE8104004B070477D
:1048B800014B1860704700BF4000002000B50C4B4A
:1048C80083B01868002805DB4FF0FF321A6003B088
:1048D8005DF804FBFDF7B4FF38B10DF107000121C5
:1048E800FDF7B4FF9DF80700F1E7FDF753FEEEE78B
:1048F8004000002010B5002402E0642C04D00134EC
:10490800FFF7DCFF0028F8DA204610BD08B5FDF7F0
:1049180097FF18B9BDE80840FDF742BEBDE808405A
:10492800FDF78EBF10B582B002AC04F8010DFDF79B
:1049380047FE20460121FDF773FF02B010BD00BFFE
:10494800704700BF10B5084C23685A1CB3F57A7F2E
:10495800226008DDFFF7F8FAFFF748FE5720FFF757
:10496800EFFF0023236010BDA40E002008B542F617
:104978007D200121FDF7C6FB04480121FDF7CEFB90
:10498800BDE8084001200146FDF7B0BB0F00080054
:10499800014B1868704700BFA00E002038B5FDF71E
:1049A8005FFCFFF7E3FF00F035FB62B6FFF73AFF65
:1049B8004F48FFF74DFF4F48FFF74AFFFFF73EFE0E
:1049C8001424FFF7C1FAFFF7D7FA6420FFF702FBB8
:1049D800013CF6D1FFF7B0FA01F0E4FC002859D009
:1049E8004548FFF735FF40F6B830FFF7F3FA01F016
:1049F800D9FC012877D04148FFF72AFF40484149B0
:104A0800FFF726FF404B414A1B68116813F4003F2B
:104A18003F4B18BF3F48A3FB012108BF3E48890C04
:104A2800FFF716FF3D48FFF713FFFDF78FFB3C48E4
:104A3800FFF70EFF0A24FFF763F8013C2146002820
:104A480033D03848FFF704FFFFF7A0FA002CF2D163
:104A5800354D36482C60FFF7FBFE3548FFF7F8FE6A
:104A680000F084FB2B6823BB3248FFF7F1FE00F00F
:104A7800FFF800F055FBFFF73DFF002802DD2E4848
:104A8800FFF7E6FE2D48FFF7E3FEBDE838402C4867
:104A9800FDF7E0BB2B48FFF7DBFE40F6B830FFF729
:104AA80099FA2948FFF7D4FEA5E71F4D01232B608B
:104AB800D3E72648FFF7CCFE0D24FFF745FA4FF45D
:104AC8007A70FFF787FA013CF7D1FDF7A9FB014699
:104AD8001F48FFF7BDFEFFF7CFF91E48FFF7B8FEE6
:104AE800FDF796FFC0E71C48FFF7B2FE83E700BF5B
:104AF80018B8000850B8000864B8000818B90008C9
:104B08006CB900087CB70008001002402C00002097
:104B180083DE1B43A4B90008DCB9000818BA0008F2
:104B280028BA00083CBA0008A80E002040BB0008BC
:104B380068BA0008DCBA0008ECBA000828BB00080C
:104B48004D490008B4B80008E4B800087CBA000869
:104B5800A4BA0008C8BA000880B800082DE9F84FC0
:104B6800FFF71CFFFDF75CFB0446FDF759FB844289
:104B7800FBD0FDF72DFB044672B60027FDF728FB96
:104B8800001BB0F5FA7F07F10107F7D362B6FDF70E
:104B98001FFBDFF894A0DFF89490DFF894B0DFF8FB
:104BA80094807F0006460024FDF712FB0546801B13
:104BB800B0F5FA6F04F10104F6D3FCF791F8064654
:104BC8002046FCF791F81549FCF7E2F81449FCF780
:104BD800DFF83146FCF790F904463846FCF784F8CC
:104BE80001462046FCF788F9D9F80030CAF80000D9
:104BF80013B9DBF8003053B9FFF7F8FCFFF7C6F933
:104C080000232E46C8F80030FEF7B0FBCBE7054975
:104C18003046FCF771F9FEF735F8F1E70000C842B5
:104C280000007A4400247449A00E00206811002076
:104C3800A80E0020A40E002030B50C4C85B000232F
:104C48004FF6FF72204601A94725ADF80630ADF8AA
:104C58000A30ADF80820ADF80450FCF7CFFF204625
:104C68000121FDF70FF905B030BD00BF0004004079
:104C780030B585B072B604242A480121FCF76AFED3
:104C880003250DEB04014FF400432748ADF8043029
:104C98008DF807408DF80650FCF7E6FD182228230A
:104CA8000DEB04012148ADF804208DF807308DF88C
:104CB8000650FCF7D9FD0DEB04011D48ADF8044082
:104CC800FCF7D2FD29460120FCF77AFE2146012097
:104CD800FCF776FE02200146FCF772FE1C24002138
:104CE8001022012302A88DF80C108DF80D208DF8E4
:104CF8000E300294FCF77AFE2046FCF7B7FE2046F9
:104D0800FCF7BCFE0B4B4FF400704FF480614FF47E
:104D18008072186019601A60FFF78EFF62B605B0DE
:104D280030BD00BF0002300000080140000C014007
:104D38000010014000E100E01B4B10B55B6918074B
:104D480000D410BD3320FFF7FBFD18480821FCF7FD
:104D5800EDFD012822D0164C14480821FCF7E6FD89
:104D6800B0B1144B1B88218840F2E6325B1A9BB223
:104D78006FF47A71591889B2914203D80E4AA3F593
:104D88007A731360084B5A6942F008025A6110BDE1
:104D98000A4B084A9B8C9BB21380E4E7074B044CF0
:104DA8009B8C2380D8E700BF00040140000C014021
:104DB800C20E0020C00E0020B40E002000040040E7
:104DC8001B4B10B55B69580700D410BD3220FFF7A4
:104DD800B7FD18480421FCF7A9FD012822D0164C7C
:104DE80014480421FCF7A2FDB0B1144B1B8821889C
:104DF80040F2E6325B1A9BB26FF47A71591889B2A5
:104E0800914203D80E4AA3F57A731360084B5A6986
:104E180042F004025A6110BD0A4B084A9B8C9BB2AF
:104E28001380E4E7074B044C9B8C2380D8E700BF32
:104E38000004014000100140BC0E0020BE0E0020FE
:104E4800B00E0020000400401B4B10B55B69D8066B
:104E580000D410BD3420FFF773FD18481021FCF76B
:104E680065FD012822D0164C14481021FCF75EFD80
:104E7800B0B1144B1B88218840F2E6325B1A9BB212
:104E88006FF47A71591889B2914203D80E4AA3F582
:104E98007A731360084B5A6942F010025A6110BDC8
:104EA8000A4B084A9B8C9BB21380E4E7074B044CDF
:104EB8009B8C2380D8E700BF00040140000C014010
:104EC800AC0E0020AE0E0020B80E002000040040FA
:104ED8002DE9F843464B474AD3F80080464B054630
:104EE8000C4617681E68B8F1000F69D04868434936
:104EF800FBF74EFF81464046FBF7F6FE4049FBF7BD
:104F08003DFE01464846FBF73BFE3E49FBF7F4FFF2
:104F18003D4960608046FCF7F7F800284AD04046D3
:104F28003A49FBF735FF6860002F4DD033492068B8
:104F3800FBF72EFF80463846FBF7D6FE3049FBF7D5
:104F48001DFE01464046FBF71BFE2E49FBF7D4FF2A
:104F58002D4920600746FCF7D7F800283CD0384692
:104F68002A49FBF715FF2860002E31D02349A06895
:104F7800FBF70EFF07463046FBF7B6FE2049FBF766
:104F8800FDFD01463846FBF7FBFD1E49FBF7B4FF64
:104F98001D49A0600646FCF7B7F820B930461C4901
:104FA800FCF794F8A0B130461849FBF7F1FEA86069
:104FB800BDE8F88340461649FCF788F80028AED1CA
:104FC80000236B60002FB1D100232B60002ECDD1C0
:104FD8000023AB60BDE8F88338460D49FCF776F846
:104FE8000028F1D038460949FBF7D2FE2860BBE714
:104FF800B40E0020B00E0020B80E00200000474379
:105008000000FA43000048430000A0416F12033B30
:105018000000A0C12DE9F043DFF8008183B03D4EC8
:1050280018250224404601A94FF4E063ADF8043086
:105038008DF806408DF80750FCF716FC4FF46043D6
:1050480001A93046ADF804308DF806404FF4E079F8
:105058008DF80750FCF708FC01A92F488DF8064089
:105068008DF80750ADF80490FCF7FEFB802340460E
:1050780001A90327ADF804308DF806408DF80750D4
:10508800FCF7F2FB304601A98DF806408DF8075071
:10509800ADF80470FCF7E8FB0723404601A9ADF81A
:1050A80004308DF806408DF80750FCF7DDFB3046DC
:1050B80001A98DF80640ADF8049010248DF807502A
:1050C800FCF7D2FB304601A94FF48053ADF8043009
:1050D8008DF806708DF80740FCF7C6FB404601A91D
:1050E8000823ADF804308DF807408DF80670FCF7FA
:1050F800BBFB4FF440621423304601A98DF80670BB
:10510800ADF804208DF80730FCF7AEFB03B0BDE81E
:10511800F08300BF000C014000100140000801406E
:1051280038B500200E4D00240BE02046FBF7DCFDCF
:105138000C49FBF72DFE4FF06A51FBF729FE01F0F1
:10514800BDFA0949FBF724FEFEF75CFFFBF7E6FF13
:105158000134B4F5806F25F8020FE6D138BD00BFE1
:105168008E110020DB0FC94000FEFF4638B5084D00
:105178000024E0B2FFF722FB0346FE2B98BF6355DD
:1051880005200134FEF726FF0C2CF2D138BD00BFF4
:105198004400002070B5FEF7C7FE0C4E0024E5B2AF
:1051A8002846FFF70BFB421C034605D0A15D2846A5
:1051B800994201D0FFF7E4FA01340520FEF70AFF0F
:1051C8000C2CECD1BDE87040FEF7B6BE44000020C0
:1051D80038B50948FFF73CFB084C04F10C0514F8F6
:1051E800011F0748FFF734FBAC42F8D10548BDE87A
:1051F8003840FFF72DBB00BF88BB000843000020E4
:1052080098BB000884BB00082DE9F047002382B052
:10521800DFF86491DFF87081544EADF80630D8F8A5
:105228000030534C9AB213F4004F524F4BF6BF70F4
:105238005149A9F80020DFF834A100F08B800B88D1
:105248004E4D03F00F039A0002F1804202F5B84276
:105258002B706BBB23689BB23380338803F0300319
:105268003B80338803F4405333802368184080F42C
:10527800005080F0200040F4004040F080002060A2
:105288000B88DB063DD523689BB2ADF80630BDF828
:1052980006301D0561D4BDF806301BB2002BBEDAFE
:1052A800226840F68F731340236000F059FD2FE009
:1052B800116889B2ADF80610BDF8061009B20029C8
:1052C80014DBBDF806301B06A9D529782C488B00BD
:1052D80003F1804303F5B8431C6848F60F7201399F
:1052E80022401A6050F82130984798E714682548FA
:1052F80040F68F712140013B50F8233011609847E8
:10530800DFE7226848F60F731340236000F0B8FD0A
:105318002168BAF800204BF6BF73D404BAF800200D
:1053280001EA030348BF83F4805390043A8848BFD6
:1053380083F40053D1063A8848BF83F010039206DD
:1053480048BF83F0200343F4004343F08003084A36
:105358009BB2136002B0BDE8F087226840F68F73F5
:105368001340236000F03CFBD2E700BF90190020F7
:10537800005C004092190020F0190020A0190020BC
:10538800500000206C000020445C00404FF6F87389
:10539800014A034013607047505C0040800000F1F0
:1053A800804000F5B840036823F4EC4323F0700311
:1053B80019438BB203607047800000F1804000F50C
:1053C800B8400368CA0623F4E04323F040039BB2C5
:1053D80048BF83F010038A0648BF83F0200343F4D4
:1053E800004343F080030360704700BF800000F172
:1053F800804000F5B8400368CA0423F4804323F0D2
:1054080070039BB248BF83F480538A0448BF83F477
:10541800005343F4004343F080030360704700BF28
:10542800800000F1804000F5B840036823F4E043B1
:1054380023F040039BB283F0300343F4004343F06E
:1054480080030360704700BF800000F1804000F5D2
:10545800B840036823F4804323F070039BB283F4BD
:10546800405343F4004343F080030360704700BF98
:10547800800000F1804000F5B840036840F60F62F4
:10548800134043F4004343F080030360704700BFB8
:10549800800000F1804000F5B84003685B0408D53F
:1054A800026840F60F73134043F4404343F080030F
:1054B80003607047800000F1804000F5B840036841
:1054C8005B0608D5026840F60F73134043F40043A7
:1054D80043F0C00303607047064B49081B68490046
:1054E8009BB203EBC00000F1005000F540504000B3
:1054F80001607047505C0040054A064B1268490835
:1055080092B202EBC000034449005B001960704787
:10551800505C004004300020054B1B689BB203EB35
:10552800C00000F1005000F540504000008870476E
:10553800505C0040044A054B126892B202EBC0006E
:1055480003445B0018887047505C0040043000201A
:10555800044A054B126892B202EBC00003445B0098
:1055680019607047505C0040023000200E4A0F4B13
:1055780012683E2992B202EBC00003444FEA43038B
:105588000AD94A09C80604BF02F1FF3292B2920250
:1055980042F400421A6070474A08C90748BF0132FE
:1055A80092021A60704700BF505C0040063000202D
:1055B800054A064B126892B202EBC00003445B0036
:1055C8001868C0F309007047505C0040063000209E
:1055D800C3B2000A40EA0320704700BF08B538B1DB
:1055E800064B1B681B689847054B18680A3008BDAE
:1055F800034B01221B681A8208BD00BFC019002096
:10560800C419002008B538B1064B1B689B68984739
:10561800054B18680C3008BD034B01221B681A8221
:1056280008BD00BFC0190020C419002008B5224BCE
:10563800002832D021481A6800210180137813F01D
:105648007F0316D0012B27D0022B24D1537903F0E6
:105658000F021B0625D4930003F1804303F5B843DA
:105668001B6803F44053B3F5805F0ED10123037028
:105678000BE0537A9A0654BF0278022259064CBFAF
:1056880042F0010222F0010202700D4B1B681B69F7
:1056980098470A4808BD084608BD1B6802221A82B6
:1056A80008BD920002F1804202F5B842136803F087
:1056B8003003102BE9D1D9E7C41900209419002030
:1056C800C01900202DE9F041264F3C68238A267A2C
:1056D80023B9042E2DD0A58A042603E0A58AAB425F
:1056E800FAD902269D4228BF1D462846A369984735
:1056F80080460020FFF710FF2A460146404600F08A
:1057080029FC29460020FFF723FF618AB4F810C05E
:105718001548164BC5EB0C0C3A680D4430274FF46E
:1057280040510780A4F810C0658219801672BDE840
:10573800F0810F490A78012A07D00B4B2246072629
:10574800102116721980BDE8F0810A480A4A0568D6
:105758000548ADB22A44570030253B6022460B70FD
:105768000580E3E7C4190020921900209019002051
:10577800C40E0020505C00400230002010B50B4BD6
:105788000B4A1B685178DA78914201D2022010BD89
:1057980099780029FAD19C88002CF7D105499A728A
:1057A8000B685B689847204610BD00BFC4190020ED
:1057B80014010020C019002038B5104A104C126896
:1057C80023685879D9789369984723689A7A0AB9E7
:1057D800022038BD0028FBD11A79002AF8D19D781B
:1057E800002DF5D1074B1B68DB68984723682846CE
:1057F8005979DA78D9721A7338BD00BF9C1900201C
:10580800C4190020C019002038B5324B1B6818781D
:1058180010F07F0003D0022806D0022038BD5A7A43
:1058280022F020025A7238BD5A88002AF6D11A7915
:10583800002AF3D15A7922F08000840004F18041D3
:10584800150601F5B84156BF09680D6801F44055C1
:10585800214948BF05F0300509788842DDD2002D7E
:10586800DBD09B7A002BD8D004F1804404F5B844EF
:105878001206236809D503F03003102B1ED0174BEE
:105888001B685B699847002038BD03F44053B3F5A3
:10589800805FF4D1D8B9124B93F82C10FFF766FE4D
:1058A800236823F4804323F070039BB283F44053AE
:1058B80043F4004343F080032360E0E7C4B220468A
:1058C800FFF7F8FD20463021FFF776FDD7E7FFF711
:1058D800DFFDE5E7C419002014010020C0190020ED
:1058E8009000002038B5244B1868437923F08002D3
:1058F800940004F180411D0601F5B84156BF0968BE
:105908000D6801F440551D4948BF05F03005097878
:105918008A4201D3022038BD4288002AFAD1002DDC
:10592800F8D0827A002AF5D004F1804404F5B8440E
:1059380013F0800F236811D023F4E04323F04003D1
:105948009BB283F0100343F4004343F080032360C9
:105958000B4B1B689B699847002038BD23F4804394
:1059680023F070039BB283F4805343F4004343F065
:1059780080032360ECE700BFC41900201401002055
:10598800C0190020054B1B685A8A10B108681044DA
:10599800704789888A1A1A82704700BFC419002084
:1059A80010B50B4B002093F82C10FFF7DFFD094BC7
:1059B8001B68187A082806D10749084B4FF4805409
:1059C80010220C801A80B0F109035842584110BDCA
:1059D80090000020C419002090190020921900207E
:1059E80070B5A94BA94D1A682C68A94B92B21344FB
:1059F800227A5B00092A82B01E6847D0B6B27600C8
:105A080006F1804606F5C0463378237073786370D4
:105A1800B088FFF7DDFD608030892C68FFF7D8FD7E
:105A2800A080B2892B680121DA801972002A33D04C
:105A38005878062800F08680002846D15988002921
:105A480000F09380934C23681B69984703282B68C0
:105A58004BD01A8A4FF6FF718A4246D002280FD0DF
:105A680072B193F900100029C0F2B4808A494FF44A
:105A78004050032208801A72FFF792FF02B070BDEF
:105A880008221A72FFF78CFF02B070BDE288234625
:105A980001211972002ACBD11A785C7812F07F02A2
:105AA80029D0012A00F0AC80022A00F0CE80794B80
:105AB80020461B685B699847032800F001812B6822
:105AC800002831D008221A72D6E708285FD11A7840
