:020000040800F2
:1000000000C000201D180008AD470008B1470008D7
:10001000B5470008B9470008BD47000800000000C8
:10002000000000000000000000000000C1470008C0
:10003000C547000800000000C94700083522000835
:100040006D1800086D1800086D1800086D1800087C
:100050006D1800086D1800086D1800086D1800086C
:10006000194E0008914D0008A14E00086D180008B7
:100070006D1800086D1800086D1800086D1800084C
:100080006D1800086D1800086D1800086D1800083C
:10009000CD4700086D1800086D1800086D1800089D
:1000A0006D1800085D4500086D1800086D180008FF
:1000B0006D1800086D1800086D1800086D1800080C
:1000C0006D1800086D1800086D1800086D180008FC
:1000D0006D1800086D1800086D1800086D180008EC
:1000E0006D1800086D180008D14700086D18000849
:1000F000D14500086D1800086D1800086D1800083B
:100100006D1800086D1800089D4400086D1800085F
:10011000F92500086D1800086D1800086D18000812
:100120006D1800086D1800086D1800086D1800089B
:1001300000000000000000000000000000000000BF
:1001400000000000000000000000000000000000AF
:10015000000000000000000000000000000000009F
:10016000000000000000000000000000000000008F
:10017000000000000000000000000000000000007F
:10018000000000000000000000000000000000006F
:10019000000000000000000000000000000000005F
:1001A000000000000000000000000000000000004F
:1001B000000000000000000000000000000000003F
:1001C000000000000000000000000000000000002F
:1001D000000000000000000000000000000000001F
:0401E0005FF8E0F1F3
:1001E80081F0004102E000BF83F0004330B54FEAE0
:1001F80041044FEA430594EA050F08BF90EA020F4D
:100208001FBF54EA000C55EA020C7FEA645C7FEADF
:10021800655C00F0E2804FEA5454D4EB5555B8BF02
:100228006D420CDD2C4480EA020281EA030382EA73
:10023800000083EA010180EA020281EA0303362D05
:1002480088BF30BD11F0004F4FEA01314FF4801CD8
:100258004CEA113102D0404261EB410113F0004FEA
:100268004FEA03334CEA133302D0524263EB4303A1
:1002780094EA050F00F0A780A4F10104D5F1200E3F
:100288000DDB02FA0EFC22FA05F2801841F100019A
:1002980003FA0EF2801843FA05F359410EE0A5F16E
:1002A80020050EF1200E012A03FA0EFC28BF4CF09F
:1002B800020C43FA05F3C01851EBE37101F0004555
:1002C80007D54FF0000EDCF1000C7EEB00006EEB62
:1002D8000101B1F5801F1BD3B1F5001F0CD34908EC
:1002E8005FEA30004FEA3C0C04F101044FEA445243
:1002F80012F5800F80F09A80BCF1004F08BF5FEACA
:10030800500C50F1000041EB045141EA050130BDA9
:100318005FEA4C0C404141EB010111F4801FA4F14C
:100328000104E9D191F0000F04BF01460020B1FAA1
:1003380081F308BF2033A3F10B03B3F120020CDAD9
:100348000C3208DD02F1140CC2F10C0201FA0CF0B7
:1003580021FA02F10CE002F11402D8BFC2F1200C1C
:1003680001FA02F120FA0CFCDCBF41EA0C019040D2
:10037800E41AA2BF01EB0451294330BD6FEA04041B
:100388001F3C1CDA0C340EDC04F11404C4F1200206
:1003980020FA04F001FA02F340EA030021FA04F318
:1003A80045EA030130BDC4F10C04C4F1200220FA6F
:1003B80002F001FA04F340EA0300294630BD21FAAD
:1003C80004F0294630BD94F0000F83F4801306BF73
:1003D80081F480110134013D4EE77FEA645C18BF67
:1003E8007FEA655C29D094EA050F08BF90EA020FFE
:1003F80005D054EA000C04BF1946104630BD91EAF6
:10040800030F1EBF0021002030BD5FEA545C05D1F8
:100418004000494128BF41F0004130BD14F5800437
:100428003CBF01F5801130BD01F0004545F0FE41AB
:1004380041F470014FF0000030BD7FEA645C1ABFE0
:10044800194610467FEA655C1CBF0B46024650EA17
:10045800013406BF52EA033591EA030F41F4002143
:1004680030BD00BF90F0000F04BF0021704730B5C9
:100478004FF4806404F132044FF000054FF000019E
:1004880050E700BF90F0000F04BF0021704730B55F
:100498004FF4806404F1320410F0004548BF404234
:1004A8004FF000013EE700BF42004FEAE2014FEA89
:1004B80031014FEA02701FBF12F07F4393F07F4F64
:1004C80081F06051704792F0000F14BF93F07F4F96
:1004D800704730B54FF4607401F0004521F00041D9
:1004E80020E700BF50EA010208BF704730B54FF05F
:1004F80000050AE050EA010208BF704730B511F064
:10050800004502D5404261EB41014FF4806404F19B
:1005180032045FEA915C3FF4DCAE4FF003025FEA1D
:10052800DC0C18BF03325FEADC0C18BF033202EBA5
:10053800DC02C2F1200300FA03FC20FA02F001FAFF
:1005480003FE40EA0E0021FA02F11444C1E600BF9E
:1005580070B54FF0FF0C4CF4E06C1CEA11541DBF51
:100568001CEA135594EA0C0F95EA0C0F00F0DEF81C
:100578002C4481EA030621EA4C5123EA4C5350EA01
:10058800013518BF52EA033541F4801143F4801352
:1005980038D0A0FB02CE4FF00005E1FB02E506F0E3
:1005A8000042E0FB03E54FF00006E1FB03569CF038
:1005B800000F18BF4EF0010EA4F1FF04B6F5007F3E
:1005C80064F5407404D25FEA4E0E6D4146EB0606B0
:1005D80042EAC62141EA55514FEAC52040EA5E5039
:1005E8004FEACE2EB4F1FD0C88BFBCF5E06F1ED8E3
:1005F800BEF1004F08BF5FEA500E50F1000041EB1A
:10060800045170BD06F0004646EA010140EA0200C6
:1006180081EA0301B4EB5C04C2BFD4EB0C0541EAE8
:10062800045170BD41F480114FF0000E013C00F3FD
:10063800AB8014F1360FDEBF002001F0004170BD21
:10064800C4F10004203C35DA0C341BDC04F114043A
:10065800C4F1200500FA05F320FA04F001FA05F2C6
:1006680040EA020001F0004221F0004110EBD37093
:1006780021FA04F642EB06015EEA430E08BF20EABF
:10068800D37070BDC4F10C04C4F1200500FA04F362
:1006980020FA05F001FA04F240EA020001F00041F4
:1006A80010EBD37041F100015EEA430E08BF20EA67
:1006B800D37070BDC4F1200500FA05F24EEA020EAF
:1006C80020FA04F301FA05F243EA020321FA04F0DE
:1006D80001F0004121FA04F220EA020000EBD37095
:1006E8005EEA430E08BF20EAD37070BD94F0000F95
:1006F8000FD101F00046400041EB010111F4801FC9
:1007080008BF013CF7D041EA060195F0000F18BF79
:10071800704703F00046520043EB030313F4801FB5
:1007280008BF013DF7D043EA0603704794EA0C0F6F
:100738000CEA135518BF95EA0C0F0CD050EA410685
:1007480018BF52EA4306D1D181EA030101F0004102
:100758004FF0000070BD50EA410606BF104619462A
:1007680052EA430619D094EA0C0F02D150EA013636
:1007780013D195EA0C0F05D152EA03361CBF104677
:1007880019460AD181EA030101F0004141F0FE4116
:1007980041F470014FF0000070BD41F0FE4141F49A
:1007A800780170BD70B54FF0FF0C4CF4E06C1CEA9A
:1007B80011541DBF1CEA135594EA0C0F95EA0C0F4F
:1007C80000F0A7F8A4EB050481EA030E52EA03350A
:1007D8004FEA013100F088804FEA03334FF080552B
:1007E80045EA131343EA12634FEA022245EA111558
:1007F80045EA10654FEA00260EF000419D4208BF09
:10080800964244F1FD0404F5407402D25B084FEAB5
:100818003202B61A65EB03055B084FEA32024FF461
:1008280080104FF4002CB6EB020E75EB030E22BFBE
:10083800B61A754640EA0C005B084FEA3202B6EB7E
:10084800020E75EB030E22BFB61A754640EA5C002D
:100858005B084FEA3202B6EB020E75EB030E22BFBD
:10086800B61A754640EA9C005B084FEA3202B6EBBE
:10087800020E75EB030E22BFB61A754640EADC007D
:1008880055EA060E18D04FEA051545EA16754FEADF
:1008980006164FEAC30343EA52734FEAC2025FEAFD
:1008A8001C1CC0D111F4801F0BD141EA00014FF08C
:1008B80000004FF0004CB6E711F4801F04BF01435D
:1008C8000020B4F1FD0C88BFBCF5E06F3FF6AFAE79
:1008D800B5EB030C04BFB6EB020C5FEA500C50F109
:1008E800000041EB045170BD0EF0004E4EEA11318C
:1008F80014EB5C04C2BFD4EB0C0541EA045170BD93
:1009080041F480114FF0000E013C90E645EA060ED6
:100918008DE60CEA135594EA0C0F08BF95EA0C0F04
:100928003FF43BAF94EA0C0F0AD150EA01347FF44C
:1009380034AF95EA0C0F7FF425AF104619462CE723
:1009480095EA0C0F06D152EA03353FF4FDAE104686
:10095800194622E750EA410618BF52EA43067FF4D7
:10096800C5AE50EA41047FF40DAF52EA43057FF467
:10097800EBAE12E74FF0FF3C06E000BF4FF0010C72
:1009880002E000BF4FF0010C4DF804CD4FEA410CD6
:100998007FEA6C5C4FEA430C18BF7FEA6C5C1BD0A3
:1009A80001B050EA410C0CBF52EA430C91EA030F24
:1009B80002BF90EA020F0020704710F1000F91EA81
:1009C800030F58BF994208BF90422CBFD8176FEA4F
:1009D800E37040F0010070474FEA410C7FEA6C5C1D
:1009E80002D150EA013C07D14FEA430C7FEA6C5C24
:1009F800D6D152EA033CD3D05DF8040B704700BF50
:100A08008446104662468C461946634600E000BF9D
:100A180001B5FFF7B7FF002848BF10F1000F01BD6F
:100A28004DF808EDFFF7F4FF0CBF012000205DF83A
:100A380008FB00BF4DF808EDFFF7EAFF34BF0120BF
:100A480000205DF808FB00BF4DF808EDFFF7E0FF58
:100A580094BF012000205DF808FB00BF4DF808EDA9
:100A6800FFF7CEFF94BF012000205DF808FB00BF10
:100A78004DF808EDFFF7C4FF34BF012000205DF8F2
:100A880008FB00BF4FEA410212F5001215D211D53A
:100A98006FF47873B3EB625212D94FEAC12343F073
:100AA800004343EA505311F0004F23FA02F018BFF5
:100AB800404270474FF00000704750EA013005D1BE
:100AC80011F0004008BF6FF0004070474FF0000081
:100AD800704700BF4FEA4102B2F1E04324BFB3F5CB
:100AE800001CDCF1FE5C0DD901F0004C4FEAC0029D
:100AF8004CEA5070B2F1004F40EB830008BF20F081
:100B08000100704711F0804F21D113F13872BCBF3A
:100B180001F00040704741F480114FEA5252C2F18F
:100B28001802C2F1200C10FA0CF320FA02F018BFD8
:100B380040F001004FEAC1234FEAD32303FA0CFC2B
:100B480040EA0C0023FA02F34FEA4303CCE77FEABA
:100B5800625307D150EA01331EBF4FF0FE4040F404
:100B68004000704701F0004040F0FE4040F40000B3
:100B7800704700BF80F0004002E000BF81F00041F4
:100B880042001FBF5FEA410392EA030F7FEA226C2B
:100B98007FEA236C6AD04FEA1262D2EB1363C1BFBB
:100BA800D218414048404140B8BF5B42192B88BF2A
:100BB800704710F0004F40F4000020F07F4018BF4D
:100BC800404211F0004F41F4000121F07F4118BF6D
:100BD800494292EA030F3FD0A2F1010241FA03FC15
:100BE80010EB0C00C3F1200301FA03F100F00043FD
:100BF80002D5494260EB4000B0F5000F13D3B0F1C5
:100C0800807F06D340084FEA310102F10102FE2A33
:100C180051D2B1F1004F40EBC25008BF20F00100A3
:100C280040EA03007047490040EB000010F4000F51
:100C3800A2F10102EDD1B0FA80FCACF1080CB2EBE4
:100C48000C0200FA0CF0AABF00EBC2505242184343
:100C5800BCBFD0401843704792F0000F81F40001E8
:100C680006BF80F400000132013BB5E74FEA4103BB
:100C78007FEA226C18BF7FEA236C21D092EA030F27
:100C880004D092F0000F08BF0846704790EA010FA1
:100C98001CBF0020704712F07F4F04D1400028BFCE
:100CA80040F00040704712F100723CBF00F50000B0
:100CB800704700F0004343F0FE4040F400007047E6
:100CC8007FEA226216BF08467FEA23630146420292
:100CD80006BF5FEA412390EA010F40F480007047A5
:100CE8004FF0000304E000BF10F0004348BF40424B
:100CF8005FEA000C08BF704743F0964301464FF087
:100D080000001CE050EA010208BF70474FF00003E2
:100D18000AE000BF50EA010208BF704711F0004323
:100D280002D5404261EB41015FEA010C02BF8446F3
:100D38000146002043F0B64308BFA3F18053A3F552
:100D48000003BCFA8CF2083AA3EBC25310DB01FA99
:100D580002FC634400FA02FCC2F12002BCF1004F1D
:100D680020FA02F243EB020008BF20F001007047AE
:100D780002F1200201FA02FCC2F1200250EA4C0002
:100D880021FA02F243EB020008BF20EADC70704748
:100D98004FF0FF0C1CEAD0521EBF1CEAD15392EA56
:100DA8000C0F93EA0C0F6FD01A4480EA010C400232
:100DB80018BF5FEA41211ED04FF0006343EA50108C
:100DC80043EA5111A0FB01310CF00040B1F5000FCE
:100DD8003EBF490041EAD3715B0040EA010062F17D
:100DE8007F02FD2A1DD8B3F1004F40EBC25008BF67
:100DF80020F00100704790F0000F0CF0004C08BF85
:100E080049024CEA502040EA51207F3AC2BFD2F151
:100E1800FF0340EAC250704740F400004FF000035F
:100E2800013A5DDC12F1190FDCBF00F00040704799
:100E3800C2F10002410021FA02F1C2F1200200FAD7
:100E480002FC5FEA310040F1000053EA4C0308BF9E
:100E580020EADC70704792F0000F00F0004C02BFEF
:100E6800400010F4000F013AF9D040EA0C0093F06A
:100E7800000F01F0004C02BF490011F4000F013BC4
:100E8800F9D041EA0C018FE70CEAD15392EA0C0F32
:100E980018BF93EA0C0F0AD030F0004C18BF31F09D
:100EA800004CD8D180EA010000F00040704790F073
:100EB800000F17BF90F0004F084691F0000F91F017
:100EC800004F14D092EA0C0F01D142020FD193EADD
:100ED8000C0F03D14B0218BF084608D180EA010065
:100EE80000F0004040F0FE4040F40000704740F041
:100EF800FE4040F4400070474FF0FF0C1CEAD0520F
:100F08001EBF1CEAD15392EA0C0F93EA0C0F69D06A
:100F1800A2EB030280EA010C49024FEA402037D0D5
:100F28004FF0805343EA111143EA10130CF00040CC
:100F38008B4238BF5B0042F17D024FF4000C8B42BC
:100F480024BF5B1A40EA0C00B3EB510F24BFA3EB9C
:100F5800510340EA5C00B3EB910F24BFA3EB91036C
:100F680040EA9C00B3EBD10F24BFA3EBD10340EAC6
:100F7800DC001B0118BF5FEA1C1CE0D1FD2A3FF60C
:100F880050AF8B4240EBC25008BF20F001007047C1
:100F98000CF0004C4CEA50207F32C2BFD2F1FF0364
:100FA80040EAC250704740F400004FF00003013A95
:100FB80037E792F0000F00F0004C02BF400010F439
:100FC800000F013AF9D040EA0C0093F0000F01F04D
:100FD800004C02BF490011F4000F013BF9D041EA6F
:100FE8000C0195E70CEAD15392EA0C0F08D14202A2
:100FF8007FF47DAF93EA0C0F7FF470AF084676E775
:1010080093EA0C0F04D14B023FF44CAF08466EE74D
:1010180030F0004C18BF31F0004CCAD130F000421B
:101028007FF45CAF31F000437FF43CAF5FE700BF73
:101038004FF0FF3C06E000BF4FF0010C02E000BF9C
:101048004FF0010C4DF804CD4FEA40024FEA41033E
:101058007FEA226C18BF7FEA236C11D001B052EAF4
:10106800530C18BF90EA010F58BFB2EB030088BFBA
:10107800C81738BF6FEAE17018BF40F00100704729
:101088007FEA226C02D15FEA402C05D17FEA236C0B
:10109800E4D15FEA412CE1D05DF8040B704700BF52
:1010A800844608466146FFE70FB5FFF7C9FF0028E9
:1010B80048BF10F1000F0FBD4DF808EDFFF7F4FF22
:1010C8000CBF012000205DF808FB00BF4DF808EDBB
:1010D800FFF7EAFF34BF012000205DF808FB00BFDE
:1010E8004DF808EDFFF7E0FF94BF012000205DF800
:1010F80008FB00BF4DF808EDFFF7D2FF94BF0120B1
:1011080000205DF808FB00BF4DF808EDFFF7C8FFA9
:1011180034BF012000205DF808FB00BF4FEA400201
:10112800B2F1FE4F0FD34FF09E03B3EB12620DD90D
:101138004FEA002343F0004310F0004F23FA02F077
:1011480018BF404270474FF00000704712F1610F1E
:1011580001D1420205D110F0004008BF6FF00040F5
:1011680070474FF000007047844641EA000313F0CF
:10117800030349D1403A23D30B6803604B684360AB
:101188008B688360CB68C3600B6903614B694361FB
:101198008B698361CB69C3610B6A03624B6A4362E3
:1011A8008B6A8362CB6AC3620B6B03634B6B4363CB
:1011B8008B6B8363CB6BC36340304031403ADBD2E7
:1011C80030320BD30B6803604B6843608B688360D5
:1011D800CB68C36010301031103AF3D20C3205D30B
:1011E80051F8043B40F8043B043AF9D2043208D0E1
:1011F800D2071CBF11F8013B00F8013B01D30B8853
:1012080003806046704700BF082A13D38B07B1D00C
:1012180010F00303AED0C3F10403D21ADB071CBFDE
:1012280011F8013B00F8013BA4D331F8023B20F848
:10123800023B9FE7043AD9D3013A11F8013B00F881
:10124800013BF9D20B7803704B7843708B7883702D
:10125800604670474BB942B9002908BF002802D040
:101268004FF0FF31084600F03BB882B0EC462DE95C
:10127800005000F01DF8DDF804E002B00CBC704727
:101288002DE9704F089E14461D468046894600F099
:1012980029F804FB01F3A4FB00AB00FB05329344DF
:1012A800B8EB0A0869EB0B09C6E90089BDE8708F3D
:1012B8002DE9704F089E14461D468046894600F069
:1012C80061F900FB05F5A0FB04AB04FB0154A34442
:1012D800B8EB0A0869EB0B09C6E90089BDE8708F0D
:1012E800704700BF00292DE9F00FC0F2A18000244B
:1012F800002BC0F29880154606460F46002B3FD1BA
:101308008A4258D9B2FA82F34BB1C3F1200201FAEA
:1013180003F720FA02F29D4000FA03F61743290C5E
:10132800B7FBF1F201FB1277A8B200FB02F34FEA18
:10133800164C4CEA0747BB4209D97F1902F1FF3C1A
:1013480080F00581BB4240F20281023A2F44FF1A25
:10135800B7FBF1F301FB137100FB03F0B6B246EAE9
:101368000141884208D9491903F1FF3780F0F1801B
:10137800884240F2EE80023B43EA0242002303E047
:101388008B420AD900231A461046194614B1404226
:1013980061EB4101BDE8F00F7047B3FA83F8B8F18B
:1013A800000F40F088808B4202D3824200F2E28034
:1013B80000230122E8E712B90123B3FBF2F5B5FADD
:1013C80085F2002A3AD17F1B280C1FFA85FC0123DD
:1013D800B7FBF0F100FB11770CFB01F24FEA16485E
:1013E80048EA0747BA4207D97F1901F1FF3802D204
:1013F800BA4200F2C4804146BF1AB7FBF0F200FBC4
:1014080012700CFB02FCB6B246EA0040844507D9CC
:10141800401902F1FF3702D2844500F2AE803A4605
:1014280042EA0142B0E7E443524263EB430362E716
:10143800404261EB41014FF0FF3459E79540C2F15A
:10144800200927FA09F126FA09F99740280CB1FB77
:10145800F0F800FB18111FFA85FC0CFB08F349EAA9
:1014680007094FEA194747EA01418B4206FA02F693
:1014780008D9491908F1FF327AD28B4278D9A8F1F4
:1014880002082944C91AB1FBF0F300FB13170CFB3F
:1014980003F21FFA89F949EA0747BA4207D97F19BF
:1014A80003F1FF3160D2BA425ED9023B2F44BF1A22
:1014B80043EA08438CE7C8F1200225FA02F103FA4F
:1014C80008FC27FA02F320FA02F207FA08F741EAC1
:1014D8000C0C4FEA1C49B3FBF9F109FB11331FFA55
:1014E8008CFA0AFB01FB17433A0C42EA03439B457B
:1014F80005FA08F008D913EB0C0301F1FF3235D2D5
:101508009B4533D902396344CBEB0303B3FBF9F2B0
:1015180009FB12330AFB02FABFB247EA0347BA458E
:1015280008D917EB0C0702F1FF331BD2BA4519D9BA
:10153800023A674442EA0145A5FB0001CAEB0707E6
:101548008F424FF000030AD305D02A461CE76246B3
:10155800FDE63B4610E706FA08F68642F5D26A1E13
:10156800002311E71A46E5E70B46A0E71146CBE74B
:10157800904687E74346424606E7023A50E7023973
:101588002F4439E72DE9F00F144605460E46002B87
:1015980043D18A4253D9B2FA82F757B1C7F120062C
:1015A80020FA06F601FA07F302FA07F400FA07F53B
:1015B8001E43210CB6FBF1F201FB1266A0B200FB40
:1015C80002F32F0C47EA0646B34209D9361902F14D
:1015D800FF3780F0FD80B34240F2FA80023A264499
:1015E800F61AB6FBF1F301FB136100FB03F0ADB291
:1015F80045EA0141884208D9091903F1FF3680F00C
:10160800E980884240F2E680023B43EA0242002336
:1016180010461946BDE8F00F70478B424CD8B3FA14
:1016280083F6002E4FD18B4202D3824200F2DD8036
:10163800BDE8F00F0023012210461946704712B981
:101648000124B4FBF2F4B4FA84F2002A40F0828058
:10165800091B260CA7B20123B1FBF6F006FB1011FB
:1016680007FB00F24FEA154C4CEA01418A4207D9C0
:10167800091900F1FF3C02D28A4200F2C880604694
:10168800891AB1FBF6F206FB121107FB02F7ADB29D
:1016980045EA0145AF4208D92C1902F1FF3180F023
:1016A8009B80A74240F29880023A42EA00421046E4
:1016B8001946BDE8F00F704700231A461046194630
:1016C800BDE8F00F7047C6F1200522FA05F703FAC6
:1016D80006F421FA05F301FA06FB20FA05F53C4366
:1016E8004FEA1448B3FBF8FC08FB1C331FFA84F9D3
:1016F80009FB0CFA45EA0B0B4FEA1B4545EA034385
:101708009A4502FA06F204D91B190CF1FF356FD37A
:10171800AC46CAEB0303B3FBF8F508FB153309FB2A
:1017280005F91FFA8BFB4BEA0347B94504D93F1962
:1017380005F1FF3362D31D4645EA0C4CACFB02238E
:10174800C9EB07079F424FF000054AD346D06246CF
:101758002B465DE79440C2F1200921FA09FC91402B
:1017680020FA09F9260CBCFBF6F806FB18CCA7B240
:1017780007FB08F349EA01094FEA194141EA0C4C11
:10178800634500FA02F509D91CEB040C08F1FF3295
:101798003BD2634539D9A8F10208A444C3EB0C0C29
:1017A800BCFBF6F306FB13C107FB03F21FFA89F92A
:1017B80049EA01418A4207D9091903F1FF3022D2C7
:1017C8008A4220D9023B2144891A43EA084343E765
:1017D8003A4605E7334618E70A4666E7B0409042BE
:1017E800B5D20CF1FF32002312E7334632460FE739
:1017F8009A458DD9ACF1020C23448AE7B9459AD9A8
:10180800023D274498E70346DEE79046C6E70238DC
:10181800214435E7002100F004B80D4B5B584350D4
:1018280004310C480C4B42189A42FFF4F6AF0B4AAD
:1018380000F003B8002342F8043B094B9A42FFF436
:10184800F9AF02F001F806F09BF803F0AFF9704722
:101858001CC2000800000020BC090020BC090020B0
:10186800541A0020FFF7FEBF2DE9F003CD78EB06F0
:1018780048BF8B78098805F00F0748BF1F4311F050
:10188800FF0F23D0D0F800C0002301264FF00F0827
:1018980002E00133082B17D006FA03F202EA01042A
:1018A8009442F6D19A0008FA02F907FA02F22CEAF1
:1018B800090C282D4CEA020C35D0482D03F1010300
:1018C80008BF0461082BE7D1C0F800C0FF2925D95B
:1018D800D0F804C0002301264FF00F0802E00133BE
:1018E800082B19D003F1080206FA02F202EA0104F1
:1018F8009442F4D19A0008FA02F907FA02F22CEAA3
:10190800090C282D4CEA020C0BD0482D03F10103D9
:1019180008BF0461082BE5D1C0F804C0BDE8F00396
:1019280070474461DBE74461B3E700BF836819424D
:101938000CBF00200120704701617047416170476A
:101948000AB9416170470161704700BFC3685940D7
:10195800C16070470028194B00F44012B4BFDB691E
:101968005B68B2F5401F30B484B21FD0C20214D5F0
:10197800C0F30342032505FA02F223EA020343F007
:10198800706319B1420D1201944023430B4A002899
:10199800B4BFD361536030BC7047420D120104FAE2
:1019A80002F223EA020343F07063EAE7034A23F0F2
:1019B8007063556825F070655560E2E700000140E6
:1019C80001F003039B000F229A4000FA03F301F091
:1019D800FC0101F1804101F58031886820EA0202AA
:1019E8008A608A6813438B60704700BF837930B47C
:1019F8002BB31D4B01681A68CC4322401A605D68FE
:101A080002792C4002F180425C6002F5823215684E
:101A180044792943116002689868D1430840986066
:101A2800D868102C01EA0001D96014D004F1804371
:101A380003F58233196830BC0A431A60704703798A
:101A4800016803F1804303F582331A6830BC22EA47
:101A580001021A607047996830BC11439960D968CF
:101A68000A43DA60704700BF00040140024B1A695C
:101A780010431861704700BF00040140014B5861D2
:101A8800704700BF0004014008B5174B984212D0B8
:101A9800164B98421BD0164B984200D008BD4FF405
:101AA8000040012100F046FBBDE808404FF400402B
:101AB800002100F03FBB4FF40070012100F03AFB19
:101AC800BDE808404FF40070002100F033BB4FF42C
:101AD8008060012100F02EFBBDE808404FF48060D3
:101AE800002100F027BB00BF00240140002801406E
:101AF800003C014043680A6823F4702330B423F49F
:101B080080730C79134343EA0423436085688C6827
:101B1800CA68094B22432B404D79134343EA4503D6
:101B280083600B7CC26A013BDBB222F4700242EA9A
:101B38000353C36230BC7047FDF7F1FF836819B9DE
:101B480023F001038360704743F00103836070470B
:101B5800836843F008038360704700BF8068C0F360
:101B6800C0007047836843F004038360704700BF78
:101B78008068C0F38000704740F0BF60024B40F4BB
:101B88000030D860704700BF00ED00E0C37830B483
:101B98005BB90378012103F01F02914030BC5B0957
:101BA800144A203342F823107047134B4478DB68FB
:101BB8000F22DB43C3F30223C3F1040122FA03F328
:101BC8008C408578017803EA0502224301F16043DD
:101BD8001201D2B203F5614383F80023037801218F
:101BE80003F01F02914030BC024A5B0942F82310FF
:101BF800704700BF00E100E000ED00E0294A0388DB
:101C0800904270B49BB212D002F5006290420ED09E
:101C1800B0F1804F0BD0A2F59832904207D002F570
:101C28008062904203D002F58062904203D14A88D4
:101C380023F0700313431C4A90422AD002F58062B5
:101C4800904226D0CE8823F440738D880C889BB2AE
:101C580002F58C323343904203808585048512D087
:101C6800124B98420FD003F5406398420BD003F50E
:101C78008063984207D003F58063984203D070BC14
:101C88000123838270470B7A70BC03860123838209
:101C9800704703808B8870BC83850B88038501237C
:101CA80083827047002C014000100040003401403E
:101CB800038CF0B423F001031B041B0C0384028C77
:101CC8000D8984884F88038B2F4322F0020223F06A
:101CD80073031A4D12041B040E88120CBFB21B0C9E
:101CE800A84247EA0202A4B243EA060316D005F561
:101CF8000065A84212D005F54065A8420ED005F54A
:101D08008065A8420AD005F58065A84206D0C98832
:101D180084800383F0BC8186028470474E89CF8912
:101D28008D8922F0080232433D438E8824F44074A2
:101D380022F00402ADB232432C43E8E7002C014004
:101D4800038CF0B423F010031B041B0C0384028CD7
:101D5800848822F02002038B0D89120423F4E643C1
:101D6800120C42EA05124F881B040E88174D1B0CF3
:101D780042EA071243EA0623A84292B2A4B29BB2EF
:101D88000AD005F50065A84206D0C9888480038377
:101D9800F0BC01870284704722F08002B1F80AC0C3
:101DA80092B28F8942EA0C1C24F440644FF6BF7546
:101DB8008A88CE890CEA050544EA870445EA0212B6
:101DC80044EA860492B2A4B2DFE700BF002C0140C7
:101DD800038CF0B423F480731B041B0C0384028C63
:101DE8000D8922F4007284881204838B120C42EA53
:101DF80005224F8823F07303174D1B040E8842EA0F
:101E080007221B0CA84292B2A4B243EA06030AD0E6
:101E180005F50065A84206D0C98884808383F0BC94
:101E280081870284704722F40062B1F80AC092B236
:101E38008F8942EA0C2C24F440544FF6FF358A88E7
:101E4800CE890CEA050544EA071445EA022244EA69
:101E5800061492B2A4B2DFE7002C014010B40B883C
:101E68004C888A882343CC8813430A8923434C89A6
:101E780013438A89234313439BB2A0F844305DF887
:101E8800044B7047038829B923F001031B041B0C7A
:101E9800038070479BB243F001030380704700BF83
:101EA800B0F8443021B9C3F30E03A0F844307047AA
:101EB8006FEA43436FEA53439BB2A0F8443070473C
:101EC800038B23F008031B041B0C19430183704781
:101ED800038B23F400631B041B0C43EA01218BB220
:101EE80003837047838B23F008031B041B0C1943DF
:101EF80081837047038ACA889BB223F440531343F3
:101F080030B50382828904460B8988880D4692B2CF
:101F18004989034322F4B0520B4322F00C021343C5
:101F28009BB2A381A38AAA899BB223F4407387B08A
:101F38001343A38201A800F08FF8A189049A1A48D4
:101F4800039B09B2844208BF13462A68002903EBA1
:101F58008303B4BF5200920003EB83031349B3FB1E
:101F6800F2F3A1FB0352A089520900B264250028AC
:101F780002FB15334FEA02120ADB1B013233A1FBC5
:101F88000351C1F343110A4392B2228107B030BD15
:101F9800DB003233A1FB0301C1F342110A4392B2C1
:101FA800228107B030BD00BF003801401F85EB51CA
:101FB80030B40B884D888C88028A2B43C988234308
:101FC80092B20B4322F4706213439BB2038230BC7B
:101FD800704700BF0023038043808380C38070471D
:101FE800838929B923F400531B041B0C8381704790
:101FF8009BB243F400538381704700BF01F01F0375
:1020080010B4C1F342110124A14204FA03F310D021
:1020180002290CBF1030143004682AB924EA0303DB
:1020280003605DF8044B7047234303605DF8044B7D
:1020380070470C30F0E700BF014B1860704700BFD5
:10204800D8004242034B5A6822F440421043586079
:10205800704700BF001002401F4930B44B6803F0BE
:102068000C03042B01D0082B20D01C4A02601A4B09
:102078001B495D681B4CC5F303154D5DEA40426082
:102088005D68C5F302254D5D22FA05F585605D683A
:10209800C5F3C225495DCA40C2605B68C3F381339A
:1020A800E35C30BCB2FBF3F2026170474A684B68EC
:1020B800C2F38342DC0302F1020207D54B689B039B
:1020C80004D4064B03FB02F20260D0E7064B03FB85
:1020D80002F20260CBE700BF0010024000127A0053
:1020E800040000200000002000093D00044B5A694C
:1020F80019B922EA000058617047104358617047C7
:1021080000100240044B9A6919B922EA000098614C
:10211800704710439861704700100240044BDA6919
:1021280019B922EA0000D86170471043D861704796
:1021380000100240044BDA6819B922EA0000D8609E
:1021480070471043D86070470010024030B587B020
:102158000823002469461C48ADF800308DF8034078
:10216800FFF782FB4FF40040FFF76CFF01214FF4AB
:102178000070FFF7C7FF1548FFF786FC01254FF4ED
:102188006023124801A9039301948DF808408DF843
:10219800094004948DF81450FFF7ACFC0B4829460D
:1021A800FFF7CCFC0948FFF7D3FC0848FFF7D6FC3B
:1021B8000028FAD10548FFF7D5FC0448FFF7D8FCFA
:1021C8000028FAD107B030BD0010014000240140BA
:1021D80030B4104A104D13680F4CA86800BF00BFF8
:1021E80011688B42F7D122680B49D20348BFA06817
:1021F8000A4A4968126801F10101C0EB0100B0FB0D
:10220800F2F048BF01334FF47A7202FB030030BC8E
:10221800704700BFBC09002010E000E01400002057
:10222800014B1868704700BFBC09002008B572B69A
:10223800054B064A12681A6801321A6062B6044BE6
:102248001B6803B1984708BDBC09002010E000E0F6
:10225800C0090020014B1860704700BFC00900206A
:102268000E4B0F4A1B680F49A2FB0302A1FB030395
:1022780092090D49013A9B0CB2F1807F30B40B6092
:1022880009D20A4B0A4CF025002007215A6084F82D
:1022980023509860196030BC704700BF3800002098
:1022A800D34D621083DE1B431400002010E000E0D1
:1022B80000ED00E010B5124C4FF4006120460122F9
:1022C800FFF73EFB20464FF480610122FFF738FB01
:1022D800012001F09FFE20464FF400610022FFF725
:1022E8002FFB012001F096FE20464FF4806100226A
:1022F800FFF726FBBDE81040012001F08BBE00BFB0
:10230800000C014010B5134C4FF4806120460022A8
:10231800FFF716FB012001F07DFE20464FF4006117
:102328000022FFF70DFB012001F074FE20464FF458
:1023380080610122FFF704FB012001F06BFE2046BB
:102348004FF400610122FFF7FBFABDE810400120BD
:1023580001F060BE000C014010B5134C4FF48061D1
:1023680020460022FFF7ECFA012001F053FE204638
:102378004FF400610022FFF7E3FA012001F04AFE62
:1023880020464FF480610122FFF7DAFA012001F0BC
:1023980041FE20464FF480610022FFF7D1FABDE8E4
:1023A8001040012001F036BE000C014010B5134C5E
:1023B8004FF4806120460022FFF7C2FA012001F0A5
:1023C80029FE20464FF400610122FFF7B9FA0120E7
:1023D80001F020FE20464FF480610122FFF7B0FA99
:1023E800012001F017FE20464FF480610022FFF71C
:1023F800A7FABDE81040012001F00CBE000C014016
:1024080038B50446082514E00022FFF799FA0120A0
:1024180001F000FE012214484FF48061FFF790FAA2
:10242800012001F0F7FD6A1E640012F0FF05E4B216
:1024380011D04FF480610C480022FFF781FA012087
:1024480001F0E8FD230608484FF40061DCD50122BD
:10245800FFF776FADBE72A4603484FF48061BDE8C8
:102468003840FFF76DBA00BF000C0140F8B51B48B3
:102478004FF400610122FFF763FA082700264FF4A2
:10248800806100221548FFF75BFA012001F0C2FDC8
:1024980012484FF480610122FFF752FA7600F6B233
:1024A800082500240D484FF40061FFF73FFA6B1E22
:1024B800204413F0FF05C4B2F4D1032C07F1FF3216
:1024C80088BF46F0010612F0FF07D8D13A46034804
:1024D8004FF48061FFF734FA3046F8BD000C014034
:1024E80008B54FF4806100221748FFF729FA012048
:1024F80001F090FD4FF4006101221348FFF720FA24
:10250800012001F087FD4FF4806101220E48FFF79A
:1025180017FA012001F07EFD0B484FF40061FFF728
:1025280005FA012807D0BDE8084007484FF4806144
:102538000022FFF705BA054B186001F039FD044B7E
:102548001A6801321A60EEE7000C0140240F0020DF
:10255800200F0020024840F227710122FFF74EBDEC
:10256800004C004000B54FF4A06083B0FFF704FBB7
:1025780001233421002201A88DF804108DF80530BC
:102588008DF807308DF80620FFF700FB03B05DF8E3
:1025980004FB00BF014801F0C5BA00BFD40B0020FE
:1025A800014801F0FBB900BFD40B002008B503486F
:1025B80001F0F4F90028FAD108BD00BFC4090020D1
:1025C80001460122014801F0FDB900BFC4090020FD
:1025D80010B5017841B104460448012201F0F2F92E
:1025E80014F8011F0029F7D110BD00BFC40900204D
:1025F800264B274A70B5196815880131ADB21960A4
:10260800290613D5234C2168636899422DD0236885
:10261800204623441B7B9380266801F0BBF90136D2
:10262800864216BF2368002301332360AB0600D41B
:1026380070BD174B184C9B8820469EB201F0AEF92E
:102648000546204601F0A6F96B1C834216D0636844
:102658002046234465681E7301F09CF901358542C4
:1026680010D063680133636070BD104640F2277173
:102678000022FFF7C3FC00BF00BFD7E7A368013300
:10268800A36070BD0023636070BD00BF280F0020E9
:10269800004C0040C4090020D40B002008B50548B0
:1026A800054901F06FF9BDE808400448002101F030
:1026B80069B900BFC40900205D250008D40B0020BB
:1026C80030B5234D89B0284601A9182203234FF4B9
:1026D8008064ADF804408DF807201E4C8DF8063054
:1026E800FFF7C2F84FF40062282301A92846ADF885
:1026F80004208DF80730FFF7B7F802A8FFF76AFC47
:1027080002A92046FFF754FC4FF416550023204633
:102718000C2204A9ADF81430ADF81630ADF8183015
:10272800ADF81C30ADF81A200495FFF7E3FB012241
:10273800204640F22551FFF761FC20460121FFF7B2
:102748004FFCFFF7ABFFFFF70DFF09B030BD00BF2F
:1027580000100140004C0040014B9868704700BFD2
:102768002C0F002038B50F4C256861682368C91AFA
:1027780000290FD00FDB6019C9B20C3003F0C2FD7D
:1027880025680544074801F005F995FBF0F303FBBC
:102798001050206038BD204601F0FCF82168411A2D
:1027A800E9E700BF2C0F002008B5064B1B6803B1F2
:1027B80008BDFFF735FD044B1860BDE80840FFF77A
:1027C800D1BF00BF001A0020E40D002008B507495A
:1027D800074B012000221A600860FFF721FD054B16
:1027E8001860BDE80840FFF7BDBF00BFE80D002036
:1027F800001A0020E40D002008B503F0EDFC03F0FA
:1028080021FD03F03DFD03F0B1FBBDE8084002489F
:10281800024901F0B7B800BF2C0F0020B12700080B
:1028280038B505460C4603F0C7FD28B129460348CC
:102838002246002301F00EF9204638BD2C0F002057
:10284800014B1868704700BF4C1A0020054B10B5A3
:102858001C688C42A8BF0C46214603F077FD204631
:1028680010BD00BF4C1A002010B50446FFF7B0FC9D
:102878002060606010BD00BF10B50446FFF7A8FCDB
:1028880063686060C01A10BD05C8101A704700BFA1
:10289800184B2DE9F04118681749FEF779FA174BDC
:1028A800174C1968FEF76CF905466078FEF718FAB8
:1028B8001149FEF721FB2946FEF76AFA07462079F7
:1028C800FEF70EFA0F49FEF717FB0F4E80463168E8
:1028D8002846FEF753F901464046FEF759FA3946AD
:1028E8003560FEF74DF9094BE179BDE8F041186014
:1028F80001F068BD3C11002000007A44EC0D002076
:10290800500000200000C8423C0E00205411002056
:10291800184B2DE9F04158681749FEF739FA174B5B
:10292800174C1968FEF72CF905462078FEF7D8F9F8
:102938001149FEF7E1FA2946FEF72AFA0746E07838
:10294800FEF7CEF90F49FEF7D7FA0F4E80463168E9
:102958002846FEF713F901464046FEF719FA3946AC
:102968003560FEF70DF9094BA179BDE8F0415860D3
:1029780001F048BD3C11002000007A44440E0020BC
:10298800500000200000C842140E002054110020FE
:10299800184B2DE9F04198681749FEF7F9F9174BDC
:1029A800174C1968FEF7ECF80546A078FEF798F979
:1029B8001149FEF7A1FA2946FEF7EAF907466079B8
:1029C800FEF78EF90F49FEF797FA0F4E80463168E9
:1029D8002846FEF7D3F801464046FEF7D9F93946AE
:1029E8003560FEF7CDF8094B217ABDE8F0419860D3
:1029F80001F028BD3C11002000007A44FC0D0020A5
:102A0800500000200000C842680E00205411002029
:102A18002DE9F0411A4D1B4C9626194801F0D2F9C0
:102A2800A968286803F0B0FEA9688046686803F0C2
:102A3800ABFE154907462068FEF7AAF94146FEF79E
:102A48009DF81249FEF758FA0F4920606068FEF7B2
:102A58009FF901463846FEF793F80C49FEF74CFA01
:102A68006060012001F0DEFA013E064FD5D1084B27
:102A7800786839680022586019609A60BDE8F0816A
:102A88001C0E0020481100200000154300001643CA
:102A98003C1100202DE9F84F1746926806460C466F
:102AA800104611461D46FEF773F9D7F80480814693
:102AB80041464046FEF76CF901464846FEF760F885
:102AC800D7F80090DDF8288003F060FE01464846FC
:102AD80003F05AFEB9688146786803F055FE3B4911
:102AE80007463068FEF754F94946FEF747F8384973
:102AF800FEF702FA354930607068FEF749F9014679
:102B08003846FEF73DF83249FEF7F6F97060296855
:102B180081464046FEF73CF9676801463846FEF7AD
:102B28002FF8394682464846FEF728F82949FEF725
:102B38002FF901465046FEF723F86060814603F0FE
:102B4800E5FD0746484603F0ABFD8146A8683946CF
:102B580000F10040FEF71CF9696882464846FEF716
:102B680017F901465046FEF70BF801464046FEF7B6
:102B78000FF9D4F800A001465046FEF701F8514677
:102B880083463068FDF7FAFF1249FEF701F901465E
:102B98005846FDF7F5FF2060A968484601F1004155
:102BA800FEF7F6F8696806463846FEF7F1F801467A
:102BB8003046FDF7E3FF01464046FEF7E9F80146D7
:102BC800A068FDF7DDFFA060BDE8F88F0000C642F1
:102BD8000000C84217B75139F8B51E4D04462E6893
:102BE8000F4630464FF08041FDF7C8FF2146FEF7FB
:102BF8008BFA00282BD14FF080413046FDF7C0FFFB
:102C080001462046FEF780FAB0B9134A00232B602C
:102C180013601D46114C12492068FEF7B9F8294681
:102C2800FDF7AEFF0F49FEF767F90346014623603B
:102C38003846FDF7A3FFF8BD4FF040432B60204610
:102C48000949FEF7A5F8044B05461860E2E74FF07E
:102C58008043F3E7000E00204C0E0020280E0020D1
:102C680000001C4200002042CDCC0C3F2DE9F04F63
:102C7800804E97B0336810900133336001F07CF9CF
:102C880001F09CF914A8FFF7EFFD7B4801F09AF8D2
:102C980014A8FFF7F1FD1190784801F0BFF814A8C7
:102CA800FFF7EAFD764C1099744B12900091754825
:102CB8002146714AFFF7EEFE14A8FFF7DDFD724DBD
:102CC80013906B7A312B00F00F81D4F804806F4F8A
:102CD800DFF800B23B68002B40F00F81DFF8F0917D
:102CE8006B49DBF80400FEF707F9D9F80010FDF787
:102CF80047FF4146C9F80000FDF742FF6549FEF766
:102D080047F865498146FEF7E1F9002840F09481CB
:102D180048464FF07E51FEF7F7F908B14FF07E595B
:102D2800DFF8B4815D4BD8F800004946C3F800903D
:102D3800FDF726FFC8F80000DFF8A091DBF80000D7
:102D48005349FEF7D9F8D9F80010FDF719FF2168A3
:102D5800C9F80000FDF714FF8146E87A6438FDF7EA
:102D6800C3FF4F49FEF7C8F801F06CF90146484621
:102D7800FDF706FF4749FEF70BF847498246FEF77D
:102D8800A5F9002840F0538150464FF07E51FEF7D8
:102D9800BBF908B14FF07E5A424BDFF84491C3F8B3
:102DA80000A0D9F800005146FDF7EAFEAB7AC9F851
:102DB8000000302B3B6800F02F819BB9DBF80870CE
:102DC800DFF820A13846DAF80010FDF7D9FE364DB5
:102DD800CAF800002E493846FEF78EF82968FDF734
:102DE800CFFE286014A8FFF747FD0746FFF790FDC0
:102DF800FFF74EFDFFF7CCFD14A8FFF73DFD824617
:102E080014A8FFF741FD294D84462B680133B3F51B
:102E1800FA7F2B6029DB264B1B68002B40F062826F
:102E2800244B1B68002B40F05F81234B1B68002B51
:102E380040F08E81214B1B68002B40F0A681204B6F
:102E48001B68002B40F0CD811E4B1B68002B40F007
:102E5800E4811D4B1B68002B40F008821B4B1B684C
:102E6800002B40F0238200232B6001F08DF817B06F
:102E7800BDE8F08F2C0E00201C0E0020300E002024
:102E88003C110020481100205000002018000020AC
:102E980000007A4433336542000080BF6811002087
:102EA8000000204160110020480E0020400E002044
:102EB800180E0020540E0020700E00206C0E00200A
:102EC800F80D0020F40D0020100E0020580E0020F0
:102ED800F00D0020040E0020440E0020500E0020AB
:102EE800EC0D0020FC0D00206B4F3B68002B00F020
:102EF800AF80D4F80480DFF8E4B1684A68495068C4
:102F0800FDF73CFE6749FDF743FFDFF8CCA1002140
:102F1800CAF804008146FEF7D9F8002840F08F80EF
:102F280048466149FEF7F0F8002840F083804B4698
:102F38005A49CBF8043088685C490C93FDF71EFEAB
:102F48005849FDF725FF0C9B81461946CAF8089099
:102F58004046CBF80890FDF711FE5549FDF7CCFF28
:102F6800544A1168FDF70CFE524B41461860FDF7B4
:102F780007FE5149FDF70CFF50498246FEF7A6F8B7
:102F8800002840F0DF8150464FF07E51FEF7BCF834
:102F980008B14FF07E5A4A4BDFF84481C3F800A0CD
:102FA8005146D8F80000FDF7EBFDD4F808A04946D3
:102FB800C8F80000DFF82C915046FDF7DFFD4149C5
:102FC800FDF79AFFD9F80010FDF7DAFD0346014630
:102FD800C9F800305046FDF7D3FD3749FDF7D8FE54
:102FE80036498146FEF772F8002840F0A881484625
:102FF8004FF07E51FEF788F808B14FF07E59DFF8A0
:10300800D0A0314BDAF800004946C3F80090FDF72C
:10301800B7FDCAF800008FE6002B7FF4E3AE2B4B18
:103028002B4D98682968FFF7D7FD2860DAE6DFF8A6
:103038008CA0B1E61C4B7BE7DFF8809070E6484631
:103048002449FEF743F800283FF471AF214B6FE79E
:10305800DFF888B02049584601F062FFD4F80480B0
:103068001C494046DBF80490FEF730F820B148468A
:103078000021FEF749F848B940460B49FEF744F8E5
:1030880030B148460021FEF721F808B14FF0000999
:10309800CBF804901EE600BF180000201C0000209A
:1030A8000000B44234FA8E3CD90FC93F00003443C3
:1030B80000007A44F00D002033336542000080BFE1
:1030C800681100200000FA43641100205411002008
:1030D800FC0D0020F1665FBF5C0E0020040E00208E
:1030E800440E0020480E00201098CDF834C0FDF79B
:1030F800DBF9964C024620680E920C91FDF7D4F944
:10310800CDE900016068FDF7CFF9CDE90201A068BB
:10311800FDF7CAF9CDE904018D4C2068FDF7C4F923
:10312800CDE906016068FDF7BFF9CDE90801A0689F
:10313800FDF7BAF90C9BCDE90A010E9A854801F012
:10314800AFFB854BDDF834C01B68002B3FF472AE33
:10315800CDF834C001F044FCFDF7A6F90B461199EF
:10316800DDF834C001911299024602911399CDF805
:1031780000C003910497CDF814A0784801F090FBA3
:10318800774B1B68002B3FF45AAE764C2068FDF74E
:103198008BF9064660680F46FDF786F9CDE9000110
:1031A800A068FDF781F9CDE90201DBF80000FDF721
:1031B8007BF9CDE90401DBF80400FDF775F9CDE9E9
:1031C8000601DBF80800FDF76FF93B46CDE9080179
:1031D8003246654801F064FB644B1B68002B3FF4E2
:1031E80033AED9F80000FDF75FF90646D8F80000BD
:1031F8000F46FDF759F9CDE900015D4B1868FDF759
:1032080053F93B46CDE9020132465A4801F048FBE2
:10321800594B1B68002B3FF41CAE584C584BA26806
:103228005848D3F800805F689E68D0F800A094E8FA
:103238000808D0F8049084680E920C93FFF78CFA73
:103248000C9B0E9A8DE80808029233460690CDF83A
:103258000CA0CDF81090059441463A464A4801F032
:103268001FFB4A4B1B68002B3FF4F8AD484C6068C5
:10327800FDF71AF9064620680F46FDF715F9CDE95E
:103288000001A068FDF710F9CDE90201414B18686B
:10329800FDF70AF93B46CDE9040132463E4801F004
:1032A800FFFA3E4B1B68002B3FF4DDAD3C4C3D491B
:1032B8006068FDF763FCFDF7F7F8064620680F46DF
:1032C800FDF7F2F8CDE900013749A068FDF756FC93
:1032D800FDF7EAF83246CDE902013B46334801F0F2
:1032E800DFFAC0E5324A336812682068CDF834C086
:1032F8000E920C9300F09EFE014660680F9100F05C
:1033080099FE0646A06800F095FE0F990446084607
:10331800FDF7CAF8CDE900013046FDF7C5F8CDE95B
:1033280002012046FDF7C0F80C9BCDE904010E9A76
:103338001946204801F0B4FADDF834C070E5DFF82A
:1033480078905CE6DFF870A025E600BF1C0E002030
:10335800300E002060B40008700E0020ACB40008E5
:103368006C0E00205C0E002010B50008F80D00203F
:10337800FC0D002070B50008F40D0020701100202D
:103388007C11002088110020B8B50008100E00201C
:1033980054110020000E002010B60008580E00201E
:1033A8001C0000200000B4420000344360B600084E
:1033B800200F002018B40008000080BF70B501F08D
:1033C800A5FA041E62DB00F0D7FDA4F124035A2BF2
:1033D8005CD8DFE813F04B015B005B005B005B002F
:1033E8005B005B0045015B0036015B005B005B0036
:1033F8005B005B005B005B005B005B005B005B00ED
:103408005B005B005B005B005B005B005B005B00DC
:103418005B005B005B005B005B005B0032015B00F4
:103428005B005B005B005B005B005B005B005B00BC
:103438005B0027015B005B005B005B005B005B00DF
:103448005B005B005B005B005B005B005B001801DE
:103458000901FE00EF00E0005B005B00D000C00047
:10346800BC00B8005B005B005B005B00A9009A0031
:103478005B008B007C005B0071006B005B005B00F5
:103488005B005B005B005B005B005C0070BDAD4BEC
:10349800AD481A68AD4982F00102002A08BF01460A
:1034A8001A60AB48BDE8704001F0FAB9A948AA49CA
:1034B800BDE8704001F0F4B9A84B1C6802F09AFF0F
:1034C80021460246BDE87040A54801F005BAA54B63
:1034D8009D481A689D4982F00102002A08BF0146EA
:1034E8001A60A148BDE8704001F0DAB99F4B9648D0
:1034F8001A68964982F00102002A08BF01461A603C
:103508009B48BDE8704001F0CBB99A4B8E481A68C9
:103518008E4982F00102002A08BF01461A609648C7
:10352800BDE8704001F0BCB9944B87481A688749D8
:1035380082F00102002A08BF01461A609048BDE8DF
:10354800704001F0ADB98F4B00221A6070BD8D4BF1
:1035580001221A6070BD8C4D002401F0D7F90028B3
:10356800FBDBFE28D8BF605501340C2CF5D1BDE833
:10357800704001F037BE642000F054FD782001F05F
:10358800F9F9824C04F10C0514F8010F01F0F2F975
:10359800AC42F9D170BD7E4B6B481A686B4982F01A
:1035A8000102002A08BF01461A607A48BDE8704047
:1035B80001F076B9784B64481A68644982F00102D0
:1035C800002A08BF01461A607448BDE8704001F03F
:1035D80067B9734801F064F94FF47A7000F022FD7E
:1035E800BDE8704000F0A8BD6E4B57481A685749AF
:1035F80082F00102002A08BF01461A606A48BDE845
:10360800704001F04DB9694B4F481A684F4982F034
:103618000102002A08BF01461A606548BDE87040EB
:1036280001F03EB9634801F03BF94FF47A7000F0BD
:10363800F9FCBDE8704000F075BDBDE8704001F0D0
:10364800EFBD5D4C5D492068FDF798FA2060FCF7F6
:103658002BFFBDE8704002460B46594801F020B9DF
:10366800554C56492068FDF78BFAEFE701F076F9DB
:1036780009281EDD0125002408E0E31E022B27D9B6
:10368800092C1BD10A2D13D00134013501F03EF964
:103698003038FDF729FB022C0146EEDC002C3ED029
:1036A800012C32D0474E7068FDF76AFA7060E9E77E
:1036B80070BD2420BDE8704001F022B9062C1BD053
:1036C800072C0FD03F4EB068FDF75AFAB060D9E723
:1036D800032C7DD0042C2BD03A4E3068FDF750FADD
:1036E8003060CFE73849FDF753FB364E0146B068E6
:1036F800FDF746FAB060C7E73449FDF749FB0021FA
:10370800FDF73EFA2F4B9860BEE72F49FDF740FBC7
:103718002C4E01467068FDF733FA7060B4E72B4908
:10372800FDF736FB0021FDF72BFA264B5860ABE777
:103738002549FDF72DFB234E01463068FDF720FA99
:103748003060A1E7580E0020A0B600089CB600081B
:10375800E0B70008ACB70008BCB70008D80E0020D6
:1037680080B70008540E002068B700086C0E0020CF
:1037780044B70008700E002028B70008F80D002094
:103788000CB700086C110020500000204F000020EA
:10379800180E0020F8B60008F40D0020E0B6000866
:1037A800BCB60008100E0020A4B6000818000020BF
:1037B800F4B7000858B700083C000020CDCCCC3D39
:1037C800C4B700081C000020000020410000C842C7
:1037D8000449FDF7DDFA0021FDF7D2F9024B186024
:1037E80052E700BF0000C8421C000020114B5A6875
:1037F80002F00C02082A0ED15A685968C2F38342B3
:10380800C90302F1020211D55B689B030ED40A4B6F
:1038180003FB02F200E0084A064B08485968084BC7
:10382800C1F30311415CCA401A607047054B03FBA2
:1038380002F2F1E70010024000127A00280000208E
:103848003800002000093D00494B10B51968494A65
:1038580041F001011960596882B00A405A6019683C
:10386800002021F0847121F48031196019684FF427
:103878001F0421F48021196059681A4621F4FE01B9
:1038880059609C6000900190196841F4803119607A
:1038980003E0009BB3F5A06F09D0136803F400336D
:1038A8000193009B01330093019B002BF1D0304B17
:1038B800314A1B6813F4003318BF01230193019B9D
:1038C8001068012B40F0100010601068284B20F0A1
:1038D800030010601068194640F0020010605A6832
:1038E8005A605A685A605A6842F480625A605A6844
:1038F80022F47C125A605A681FD042F460125A604F
:103908001A6842F080721A600B68194A9B01FBD54D
:103918005368114623F003035360536843F00203CE
:1039280053604B6803F00C03082BFAD1FFF75EFFD6
:10393800124A134B9A6002B010BD42F4E8125A6062
:103948001A6842F080721A600B68094A9801FBD520
:103958005368114623F003035360536843F002038E
:1039680053604B6803F00C03082BFAD1E0E700BF63
:10397800001002400000FFF800200240000000088C
:1039880000ED00E000230360C0F80C124360836080
:10399800704700BF4FF40070704700BF426803686B
:1039A8000748D31A03F500731840002800DB704756
:1039B80001386FEAC0506FEAD0500130704700BF3D
:1039C800FF01008038B532B340F2FF1501E0AB4289
:1039D80010D1446802681E4BA21A02F50072134007
:1039E800002BF4DA013B6FEAC3536FEAD353013378
:1039F800AB42EED04468426840F2FF139A4216BFC9
:103A0800436800230133044421734360D0F80C3227
:103A180003B1984738BD446802680D4BA21A02F5F5
:103A280000721340002B07DB40F2FF129342E1D1F2
:103A380083680133836038BD013B6FEAC3536FEA83
:103A4800D353013340F2FF129342D3D1F0E700BFC2
:103A5800FF010080F8B504460F461646EBB94168E9
:103A680002682F4B8A1A02F500721340002B49DBBB
:103A78003344B3F5007F1DDBA268D4F80C3216443A
:103A8800A66073BB2EE0013B6FEAC3536FEAD353C2
:103A980001333344B3F5007F0CDB65682068204BA5
:103AA800281A00F500700340002BECDB3344B3F513
:103AB800007FF2DA65686068C5F50075AE4212DD10
:103AC8002044761B39462A460C30FDF74DFB791900
:103AD800324604F10C00FDF747FB6660D4F80C325F
:103AE80003B19847F8BD204439460C303246FDF7FB
:103AF8003BFB63683344B3F5007F0ED063681E4414
:103B08006660EBE7013B6FEAC3536FEAD3530133B7
:103B18003344B3F5007FCDDBAEE700236360DDE718
:103B2800FF01008001684268034691420DD0006899
:103B3800196840F2FF12914218BF1A6818440CBF66
:103B480000220132007B1A6070474FF0FF30704747
:103B580010B5FEF7AFFBD020FEF752FCFEF7C0FC15
:103B68007520FEF74DFCFEF7BBFCFEF7CBFB0120F2
:103B780000F058FAFEF79EFBD120FEF741FCFEF755
:103B8800AFFCFEF773FC0446FEF710FCFEF7BAFB29
:103B9800682C40F0CB80052000F044FAFEF78AFB41
:103BA800D020FEF72DFCFEF79BFC6B20FEF728FCCF
:103BB800FEF796FC8020FEF723FCFEF791FCFEF74B
:103BC800A1FB962000F02EFAFEF774FBD020FEF73A
:103BD80017FCFEF785FC6B20FEF712FCFEF780FC55
:103BE8000320FEF70DFCFEF77BFCFEF78BFB0520A0
:103BF80000F018FAFEF75EFBD020FEF701FCFEF796
:103C08006FFC6C20FEF7FCFBFEF76AFC0020FEF759
:103C1800F7FBFEF765FCFEF775FB052000F002FADE
:103C2800FEF748FBD020FEF7EBFBFEF759FC192006
:103C3800FEF7E6FBFEF754FC0020FEF7E1FBFEF77B
:103C48004FFCFEF75FFB052000F0ECF9FEF732FBB6
:103C5800D020FEF7D5FBFEF743FC1A20FEF7D0FB79
:103C6800FEF73EFC0020FEF7CBFBFEF739FCFEF723
:103C780049FB052000F0D6F9FEF71CFBD020FEF723
:103C8800BFFBFEF72DFC1B20FEF7BAFBFEF728FC56
:103C98000020FEF7B5FBFEF723FCFEF733FB0520FB
:103CA80000F0C0F9FEF706FBD020FEF7A9FBFEF7EF
:103CB80017FC1C20FEF7A4FBFEF712FC0020FEF701
:103CC8009FFBFEF70DFCFEF71DFB052000F0AAF98F
:103CD800FEF7F0FAD020FEF793FBFEF701FC372041
:103CE800FEF78EFBFEF7FCFB0020FEF789FBFEF7D4
:103CF800F7FBFEF707FB052000F094F9FEF7DAFA68
:103D0800D020FEF77DFBFEF7EBFB3820FEF778FBB3
:103D1800FEF7E6FB0020FEF773FBFEF7E1FBFEF77C
:103D2800F1FA052000F07EF9002010BD4FF0FF30B9
:103D380010BD00BF70B5224C002323600E46054617
:103D4800FEF7B8FAD020FEF75BFBFEF7C9FB236845
:103D580003B170BDE8B2FEF753FBFEF7C1FB236861
:103D6800002BF6D1FEF7CEFAFEF7A4FAD120FEF723
:103D780047FBFEF7B5FB2368002BEAD1FEF776FB7D
:103D88003070FEF7E9FAFEF771FB7070FEF7E4FA9F
:103D9800FEF76CFBB070FEF7DFFAFEF767FBF0701A
:103DA800FEF7DAFAFEF762FB3071FEF7D5FAFEF796
:103DB8005DFB7071FEF7FAFABDE87040FEF7A2BA33
:103DC800240F002010B582B0044669463B20FFF757
:103DD800B1FF114B1B68EBB99DF801309DF800004D
:103DE80043EA002000B2FCF77FFF9DF802209DF80F
:103DF8000330206043EA022000B2FCF775FF9DF80B
:103E080004209DF80530606043EA022000B2FCF708
:103E18006BFFA06002B010BD240F002010B582B067
:103E2800044669464320FFF785FF1F4B1B68002B9C
:103E380038D19DF800109DF801301C4A43EA01234F
:103E4800138018B2FCF750FF194B1968FCF796FE5F
:103E58001849FDF751F89DF802109DF80330164AED
:103E680043EA01231380206018B2FCF73DFF134B8F
:103E78001968FCF783FE0F49FDF73EF89DF804101A
:103E88009DF805300E4A43EA01231380606018B29A
:103E9800FCF72AFF0B4B1968FCF770FE0549FDF784
:103EA8002BF8A06002B010BD240F00207C0E00206B
:103EB800800E0020FA8DEA45740E0020840E002042
:103EC8007E0E0020780E00202DE9F04F234EDFF8FB
:103ED8009CB0234DDFF898A0224CDFF8989085B06D
:103EE8004FF0960801A8FFF799FFBBF90000FCF70F
:103EF800FBFE3168FCF744FE3060BAF90000FCF7BD
:103F0800F3FE2968FCF73CFE2860B9F90000FCF7CD
:103F1800EBFE2168FCF734FE2060022000F082F8F6
:103F2800B8F101080F4FDDD10C4B0F491868FCF7A9
:103F3800E3FF0A4B0C491860094B1868FCF7DCFFD3
:103F4800074B094918603868FCF7D6FF3860052028
:103F580000F068F805B0BDE8F08F00BF800E0020C3
:103F6800840E0020780E0020000016437C0E0020EE
:103F7800740E00207E0E002002484FF48051FDF799
:103F8800DBBC00BF000C014002484FF48051FDF734
:103F9800D5BC00BF000C014008B572B603484FF409
:103FA8008051FDF7D3FC62B608BD00BF000C01408C
:103FB80001480821FDF7C0BC00080140014808215C
:103FC800FDF7BCBC0008014008B572B602480821DC
:103FD800FDF7BCFC62B608BD0008014038B50B4CC3
:103FE800422000F0D5FC20464FF48051FDF7A4FC98
:103FF800074D28460138FDD84FF480512046FDF77B
:104008009DFC28460138FDD838BD00BF000C014092
:10401800009F240000EB4000830018460138FDD8BB
:10402800704700BF42F6E06303FB00F3184601380F
:10403800FDD8704708B50249FCF7AAFE08BD00BFC5
:10404800E02E654208B50249FCF7A2FE08BD00BF94
:1040580035FA8E3C10B500210446FDF74BF828B11F
:1040680020464FF07C51FCF78BFD10BD20464FF0E9
:104078007C51FCF783FD10BD012870B418D00228CC
:104088000FD1002A0ADD124C8E18254623885B06BC
:10409800FCD511F8013BB142AB80F7D1104670BC9A
:1040A80070470C4B09224FF0FF301A6070BC704704
:1040B800002AF3DD064C8E18254623885806FCD5C1
:1040C80011F8013BB142AB80F7D11046E7E700BFDA
:1040D800004C0040501A00200D4B10B51A680446D9
:1040E80092B11046EFF3088102198A4201D81A608A
:1040F80010BD084919220220FFF7BEFF064B0C220B
:104108001A604FF0FF3010BD04481860EAE700BF9E
:10411800880E002018B80008501A0020541A0020F1
:10412800704700BF024B034ADA6000BFFDE700BFDB
:1041380000ED00E00400FA050F4B10B5B3F1006F75
:1041480000D110BD0D490E4BC8690E4A40F0C05051
:10415800C8611C6846F6B43044F4807444F6FC2107
:104168001C60A2F8B800A2F8BC101A6822F4807289
:104178001A60FFF7D7FF00BF0000000800100240D8
:1041880000700040006C004038B504460D46FDF74D
:104198008FFD20462946FDF7D3FD20462946FDF729
:1041A80017FE20460821FDF78BFE20460821FDF763
:1041B8008FFE20460821BDE83840FDF793BE00BFBA
:1041C800F0B589B00D4600244FF47A724FF40073AD
:1041D800064601A90327ADF80820ADF80A30ADF866
:1041E8000470ADF80640FDF709FD60220123304652
:1041F80004A9ADF81850ADF81640ADF81020ADF888
:104208001230FFF7C1FF09B0F0BD00BFF0B58DB0A7
:10421800002403224FF47A7301A90546ADF804205F
:10422800ADF80830ADF80640ADF80A408DF80C40FE
:10423800FDF7E4FC1B4B4FF4006ED3F800C0284692
:104248004FF480764FF400524FF4804304A94FF4A2
:104258008067ADF816C0ADF810E0ADF81A20ADF8DB
:104268001C30ADF81840ADF81270ADF81460FDF7C9
:10427800F5FD284601220423602508A9ADF826404B
:10428800ADF82840ADF82A40ADF82C60ADF82E40C6
:10429800ADF82050ADF82220ADF82430FFF774FFB8
:1042A8000DB0F0BD480000200D4A30B4136800F18D
:1042B8000C05C3F5FA7464000168CB1AA342A8BFC1
:1042C800234640F8043B11688B42B8BF0023A8423C
:1042D80040F8043C01D01368EEE730BC704700BFDB
:1042E80040000020F8B5324B04461D680F462846AA
:1042F80000211646FCF7FEFE002850D02D4928461E
:10430800FCF7FAFD4FF08941FCF742FDFFF7A2FEEA
:10431800FCF704FF284B0340002B42DB002BB8BFFF
:1043280003F58063254803F2551103F2AB22C2F36B
:104338000902C1F3090130F9135030F9111030F9AD
:10434800123006EB860202FB01F102FB03F302FBCB
:1043580005F21B4801F57F5103F57F5302F57F52A3
:104368003F313F333F3280FB015680FB037580FBB2
:1043780002700E441D441044C917DB17D217C1EB55
:10438800A631C3EBA533C2EBA03201F5FA7103F5F0
:10439800FA7302F5FA726160A3602260F8BD3D46C7
:1043A800ACE7013B6FEA83536FEA93530133B5E7F8
:1043B8003C000020DB0FC940FF030080941100205F
:1043C8000300018000B585B00A46014601A8FFF741
:1043D80089FF72B6094B01A807C883E8070062B6CF
:1043E80072B6074A0121138A23F001031B041B0C30
:1043F8001382918162B605B05DF804FB8C0E002033
:104408000034014000B585B00A46014601A8FFF70F
:1044180069FF72B6094B01A807C883E8070062B6AE
:1044280072B6074A0121138A23F001031B041B0CEF
:104438001382918162B605B05DF804FB980E0020E6
:10444800002C014000B585B00A46014601A8FFF7D7
:1044580049FF01A8FFF728FF72B60B4B01A807C850
:1044680083E8070062B6094B00221A6072B6084A50
:104478000121138A23F001031B041B0C1382918171
:1044880062B605B05DF804FBA40E002044000020CD
:10449800000C0040274BF0B41A8AD2071AD51A8AA2
:1044A80022F001021204120C1A8272B6224A23491F
:1044B80094689B8C886801349BB29460204A83423C
:1044C800C8BF8B6091688B42B8BF9360B3F5487FD3
:1044D80002D362B6F0BC70471A4B1B68EBB91A4B93
:1044E8001A4A1B681488908811895B009BB2184A85
:1044F8001F191E185D180F4BBFB2B6B2ADB2978622
:10450800168795879C86188799870A4A938923F086
:1045180001031B041B0C9381DBE70D49054B40F29B
:10452800E93000228886088788879A861A879A87BA
:10453800EBE700BF000C004088110020701100203C
:104548007C1100204400002040000020A40E002020
:1045580000080040174A10B4138A23F001031B0413
:104568001B0C138272B61448938C144942689BB290
:104578004C689342124A04F101044C605168C8BF68
:1045880043608B42B8BF5360B3F5487F0DD20D4AE4
:10459800084B108891881289988619879A879A8972
:1045A80022F001021204120C9A8162B65DF8044BE3
:1045B800704700BF002C01407011002088110020B6
:1045C8007C110020980E0020174A10B4138A23F09B
:1045D80001031B041B0C138272B61448938C1449F4
:1045E80002689BB20C689342124A04F101040C6001
:1045F8001168C8BF03608B42B8BF1360B3F5487F2A
:104608000DD20D4A084B108891881289988619870F
:104618009A879A8922F001021204120C9A8162B6D2
:104628005DF8044B704700BF003401407011002052
:10463800881100207C1100208C0E002010B541202C
:1046480000F0A6F972B60B4A00231360536093601A
:1046580062B672B6084A13605360936062B6074C3C
:1046680007480849084A0123236083818B81938185
:1046780010BD00BF8C0E0020980E002044000020C2
:10468800000C0040002C0140003401402DE9F043AB
:10469800DFF80881374B3849384D394E83B000244C
:1046A80040F2E9324046DFF8F8909A605A601A60A2
:1046B8008C604C600C60AC606C602C60314FFFF714
:1046C800A5FD3046FFF7A2FD21464846FFF778FDD5
:1046D80038460221FFF774FD2B4B01251B8801A8E2
:1046E80003F5A87103F29F2289B292B2BB84A8F89D
:1046F80024103223B2848DF804308DF805408DF8EB
:1047080006408DF80750FDF741FA01A819238DF8E6
:1047180004308DF805408DF806408DF80750FDF7F8
:1047280035FA2C2301A88DF805408DF806408DF840
:1047380007508DF80430FDF729FA72B6134A144B66
:104748001449154C0D6048462560294615601D60C2
:10475800FDF7A6FB38462946FDF7A2FB4046294649
:10476800FDF79EFB30462946FDF79AFB62B603B07B
:10477800BDE8F0837C110020701100208811002012
:10478800003401400008004040000020008025421D
:10479800008026420080014200000142002C0140B6
:1047A800000C0040704700BFFEE700BFFEE700BFF7
:1047B800FEE700BFFEE700BF704700BF704700BFBD
:1047C800704700BF01F0A0BC4FF48020FDF756B938
:1047D80038B5044605200D46FFF724FCFDF76AFDB1
:1047E800AE20FDF70DFEFDF77BFE2046FDF708FE27
:1047F800FDF776FE2846FDF703FEFDF771FEFDF78F
:1048080081FDBDE838400520FFF70CBC38B50546EA
:10481800174C0120FFF706FC00232360FDF74AFD33
:10482800AE20FDF7EDFDFDF75BFE2846FDF7E8FD40
:10483800FDF756FEFDF766FD0120FFF7F3FBFDF7D8
:1048480039FDAF20FDF7DCFDFDF74AFEFDF70EFE52
:104858000546FDF7ABFDFDF755FD0120FFF7E2FB2F
:104868002368002B0CBF28464FF0FF3038BD00BF2F
:10487800240F002008B5FDF723FF0748FDF7A8FE21
:10488800FDF794FEFDF7B8FF0448FDF7A1FEBDE86B
:104898000840FDF78BBE00BF34B8000844B80008D4
:1048A8000FB410B5C2B044AC54F8042BFF21234612
:1048B80002A8019403F0E6F802A8FDF789FE02A811
:1048C80003F086F8014602A8FDF7AAFF42B0BDE84A
:1048D800104004B0704700BF0FB410B5C2B044AC6C
:1048E80054F8042BFF21234602A8019403F0CAF8C8
:1048F80002A8FDF76DFE42B0BDE8104004B0704755
:10490800014B1860704700BF4C00002000B50C4BED
:1049180083B01868002805DB4FF0FF321A6003B037
:104928005DF804FBFDF78CFF38B10DF1070001219C
:10493800FDF78CFF9DF80700F1E7FDF72BFEEEE78A
:104948004C00002010B5002402E0642C04D001348F
:10495800FFF7DCFF0028F8DA204610BD08B5FDF7A0
:104968006FFF18B9BDE80840FDF71ABEBDE808405A
:10497800FDF766BF10B582B002AC04F8010DFDF773
:104988001FFE20460121FDF74BFF02B010BD00BFFE
:10499800704700BF10B5084C23685A1CB3F57A7FDE
:1049A800226008DDFFF7F8FAFFF748FE5720FFF707
:1049B800EFFF0023236010BDB40E002008B542F6B7
:1049C8007D200121FDF79EFB04480121FDF7A6FB90
:1049D800BDE8084001200146FDF788BB0F0008002C
:1049E800014B1868704700BFB00E002038B5FDF7BE
:1049F80037FCFFF7E3FF00F035FB62B6FFF73AFF3D
:104A08004F48FFF74DFF4F48FFF74AFFFFF73EFEBD
:104A18001424FFF7C1FAFFF7D7FA6420FFF702FB67
:104A2800013CF6D1FFF7B0FA01F0E4FC002859D0B8
:104A38004548FFF735FF40F6B830FFF7F3FA01F0C5
:104A4800D9FC012877D04148FFF72AFF404841495F
:104A5800FFF726FF404B414A1B68116813F4003FDB
:104A68003F4B18BF3F48A3FB012108BF3E48890CB4
:104A7800FFF716FF3D48FFF713FFFDF767FB3C48BC
:104A8800FFF70EFF0A24FFF763F8013C21460028D0
:104A980033D03848FFF704FFFFF7A0FA002CF2D113
:104AA800354D36482C60FFF7FBFE3548FFF7F8FE1A
:104AB80000F084FB2B6823BB3248FFF7F1FE00F0BF
:104AC800FFF800F055FBFFF73DFF002802DD2E48F8
:104AD800FFF7E6FE2D48FFF7E3FEBDE838402C4817
:104AE800FDF7B8BB2B48FFF7DBFE40F6B830FFF701
:104AF80099FA2948FFF7D4FEA5E71F4D01232B603B
:104B0800D3E72648FFF7CCFE0D24FFF745FA4FF40C
:104B18007A70FFF787FA013CF7D1FDF781FB014670
:104B28001F48FFF7BDFEFFF7CFF91E48FFF7B8FE95
:104B3800FDF76EFFC0E71C48FFF7B2FE83E700BF32
:104B480058B8000890B80008A4B8000858B9000878
:104B5800ACB90008BCB700080010024038000020BB
:104B680083DE1B43E4B900081CBA000858BA0008E1
:104B780068BA00087CBA0008B80E002080BB00089C
:104B8800A8BA00081CBB00082CBB000868BB0008BA
:104B98009D490008F4B8000824B90008BCBA000808
:104BA800E4BA000808BB0008C0B800082DE9F84FAF
:104BB800FFF71CFFFDF734FB0446FDF731FB844289
:104BC800FBD0FDF705FB044672B60027FDF700FB96
:104BD800001BB0F5FA7F07F10107F7D362B6FDF7BE
:104BE800F7FADFF894A0DFF89490DFF894B0DFF8D4
:104BF80094807F0006460024FDF7EAFA0546801BEC
:104C0800B0F5FA6F04F10104F6D3FCF769F806462B
:104C18002046FCF769F81549FCF7BAF81449FCF77F
:104C2800B7F83146FCF768F904463846FCF75CF8F3
:104C380001462046FCF760F9D9F80030CAF80000B0
:104C480013B9DBF8003053B9FFF7F8FCFFF7C6F9E2
:104C580000232E46C8F80030FEF7B0FBCBE7054925
:104C68003046FCF749F9FEF701F8F1E70000C842C1
:104C780000007A4400247449B00E00206C11002012
:104C8800B80E0020B40E002030B50C4C85B00023BF
:104C98004FF6FF72204601A94725ADF80630ADF85A
:104CA8000A30ADF80820ADF80450FCF7A7FF2046FD
:104CB8000121FDF7E7F805B030BD00BF0004004052
:104CC80030B585B072B604242A480121FCF742FEAB
:104CD80003250DEB04014FF400432748ADF80430D9
:104CE8008DF807408DF80650FCF7BEFD18222823E2
:104CF8000DEB04012148ADF804208DF807308DF83C
:104D08000650FCF7B1FD0DEB04011D48ADF8044059
:104D1800FCF7AAFD29460120FCF752FE2146012096
:104D2800FCF74EFE02200146FCF74AFE1C24002137
:104D38001022012302A88DF80C108DF80D208DF893
:104D48000E300294FCF752FE2046FCF78FFE2046F8
:104D5800FCF794FE0B4B4FF400704FF480614FF456
:104D68008072186019601A60FFF78EFF62B605B08E
:104D780030BD00BF0002300000080140000C0140B7
:104D88000010014000E100E01B4B10B55B691807FB
:104D980000D410BD3320FFF7FBFD18480821FCF7AD
:104DA800C5FD012822D0164C14480821FCF7BEFD89
:104DB800B0B1144B1B88218840F2E6325B1A9BB2D3
:104DC8006FF47A71591889B2914203D80E4AA3F543
:104DD8007A731360084B5A6942F008025A6110BD91
:104DE8000A4B084A9B8C9BB21380E4E7074B044CA0
:104DF8009B8C2380D8E700BF00040140000C0140D1
:104E0800D20E0020D00E0020C40E00200004004066
:104E18001B4B10B55B69580700D410BD3220FFF753
:104E2800B7FD18480421FCF781FD012822D0164C53
:104E380014480421FCF77AFDB0B1144B1B88218873
:104E480040F2E6325B1A9BB26FF47A71591889B254
:104E5800914203D80E4AA3F57A731360084B5A6936
:104E680042F004025A6110BD0A4B084A9B8C9BB25F
:104E78001380E4E7074B044C9B8C2380D8E700BFE2
:104E88000004014000100140CC0E0020CE0E00208E
:104E9800C00E0020000400401B4B10B55B69D8060B
:104EA80000D410BD3420FFF773FD18481021FCF71B
:104EB8003DFD012822D0164C14481021FCF736FD80
:104EC800B0B1144B1B88218840F2E6325B1A9BB2C2
:104ED8006FF47A71591889B2914203D80E4AA3F532
:104EE8007A731360084B5A6942F010025A6110BD78
:104EF8000A4B084A9B8C9BB21380E4E7074B044C8F
:104F08009B8C2380D8E700BF00040140000C0140BF
:104F1800BC0E0020BE0E0020C80E00200004004079
:104F28002DE9F843464B474AD3F80080464B0546DF
:104F38000C4617681E68B8F1000F69D048684349E5
:104F4800FBF726FF81464046FBF7CEFE4049FBF7BC
:104F580015FE01464846FBF713FE3E49FBF7CCFF1A
:104F68003D4960608046FCF7CFF800284AD04046AB
:104F78003A49FBF70DFF6860002F4DD03349206890
:104F8800FBF706FF80463846FBF7AEFE3049FBF7D5
:104F9800F5FD01464046FBF7F3FD2E49FBF7ACFF54
:104FA8002D4920600746FCF7AFF800283CD038466A
:104FB8002A49FBF7EDFE2860002E31D02349A0686E
:104FC800FBF7E6FE07463046FBF78EFE2049FBF767
:104FD800D5FD01463846FBF7D3FD1E49FBF78CFF8C
:104FE8001D49A0600646FCF78FF820B930461C49D9
:104FF800FCF76CF8A0B130461849FBF7C9FEA86069
:10500800BDE8F88340461649FCF760F80028AED1A1
:1050180000236B60002FB1D100232B60002ECDD16F
:105028000023AB60BDE8F88338460D49FCF74EF81D
:105038000028F1D038460949FBF7AAFE2860BBE7EB
:10504800C40E0020C00E0020C80E002000004743F8
:105058000000FA43000048430000A0416F12033BE0
:105068000000A0C12DE9F043DFF8008183B03D4E78
:1050780018250224404601A94FF4E063ADF8043036
:105088008DF806408DF80750FCF7EEFB4FF46043AF
:1050980001A93046ADF804308DF806404FF4E079A8
:1050A8008DF80750FCF7E0FB01A92F488DF8064062
:1050B8008DF80750ADF80490FCF7D6FB80234046E6
:1050C80001A90327ADF804308DF806408DF8075084
:1050D800FCF7CAFB304601A98DF806408DF8075049
:1050E800ADF80470FCF7C0FB0723404601A9ADF8F2
:1050F80004308DF806408DF80750FCF7B5FB3046B4
:1051080001A98DF80640ADF8049010248DF80750D9
:10511800FCF7AAFB304601A94FF48053ADF80430E0
:105128008DF806708DF80740FCF79EFB404601A9F4
:105138000823ADF804308DF807408DF80670FCF7A9
:1051480093FB4FF440621423304601A98DF8067092
:10515800ADF804208DF80730FCF786FB03B0BDE8F6
:10516800F08300BF000C014000100140000801401E
:1051780038B500200E4D00240BE02046FBF7B4FDA7
:105188000C49FBF705FE4FF06A51FBF701FE01F0F1
:10519800BDFA0949FBF7FCFDFEF75CFFFBF7BEFF14
:1051A8000134B4F5806F25F8020FE6D138BD00BF91
:1051B80092110020DB0FC94000FEFF4638B5084DAC
:1051C8000024E0B2FFF722FB0346FE2B98BF63558D
:1051D80005200134FEF726FF0C2CF2D138BD00BFA4
:1051E8005000002070B5FEF7C7FE0C4E0024E5B253
:1051F8002846FFF70BFB421C034605D0A15D284655
:10520800994201D0FFF7E4FA01340520FEF70AFFBE
:105218000C2CECD1BDE87040FEF7B6BE5000002063
:1052280038B50948FFF73CFB084C04F10C0514F8A5
:10523800011F0748FFF734FBAC42F8D10548BDE829
:105248003840FFF72DBB00BFC8BB00084F00002047
:10525800D8BB0008C4BB00082DE9F047002382B082
:10526800DFF86491DFF87081544EADF80630D8F855
:105278000030534C9AB213F4004F524F4BF6BF70A4
:105288005149A9F80020DFF834A100F08B800B8881
:105298004E4D03F00F039A0002F1804202F5B84226
:1052A8002B706BBB23689BB23380338803F03003C9
:1052B8003B80338803F4405333802368184080F4DC
:1052C800005080F0200040F4004040F08000206052
:1052D8000B88DB063DD523689BB2ADF80630BDF8D8
:1052E80006301D0561D4BDF806301BB2002BBEDAAE
:1052F800226840F68F731340236000F059FD2FE0B9
:10530800116889B2ADF80610BDF8061009B2002977
:1053180014DBBDF806301B06A9D529782C488B006C
:1053280003F1804303F5B8431C6848F60F7201394E
:1053380022401A6050F82130984798E714682548A9
:1053480040F68F712140013B50F823301160984797
:10535800DFE7226848F60F731340236000F0B8FDBA
:105368002168BAF800204BF6BF73D404BAF80020BD
:1053780001EA030348BF83F4805390043A8848BF86
:1053880083F40053D1063A8848BF83F0100392068D
:1053980048BF83F0200343F4004343F08003084AE6
:1053A8009BB2136002B0BDE8F087226840F68F73A5
:1053B8001340236000F03CFBD2E700BF94190020A3
:1053C800005C004096190020F4190020A419002060
:1053D8005C00002078000020445C00404FF6F87321
:1053E800014A034013607047505C0040800000F1A0
:1053F800804000F5B840036823F4EC4323F07003C1
:1054080019438BB203607047800000F1804000F5BB
:10541800B8400368CA0623F4E04323F040039BB274
:1054280048BF83F010038A0648BF83F0200343F483
:10543800004343F080030360704700BF800000F121
:10544800804000F5B8400368CA0423F4804323F081
:1054580070039BB248BF83F480538A0448BF83F427
:10546800005343F4004343F080030360704700BFD8
:10547800800000F1804000F5B840036823F4E04361
:1054880023F040039BB283F0300343F4004343F01E
:1054980080030360704700BF800000F1804000F582
:1054A800B840036823F4804323F070039BB283F46D
:1054B800405343F4004343F080030360704700BF48
:1054C800800000F1804000F5B840036840F60F62A4
:1054D800134043F4004343F080030360704700BF68
:1054E800800000F1804000F5B84003685B0408D5EF
:1054F800026840F60F73134043F4404343F08003BF
:1055080003607047800000F1804000F5B8400368F0
:105518005B0608D5026840F60F73134043F4004356
:1055280043F0C00303607047064B49081B684900F5
:105538009BB203EBC00000F1005000F54050400062
:1055480001607047505C0040054A064B12684908E4
:1055580092B202EBC000034449005B001960704737
:10556800505C004004300020054B1B689BB203EBE5
:10557800C00000F1005000F540504000008870471E
:10558800505C0040044A054B126892B202EBC0001E
:1055980003445B0018887047505C004004300020CA
:1055A800044A054B126892B202EBC00003445B0048
:1055B80019607047505C0040023000200E4A0F4BC3
:1055C80012683E2992B202EBC00003444FEA43033B
:1055D8000AD94A09C80604BF02F1FF3292B2920200
:1055E80042F400421A6070474A08C90748BF0132AE
:1055F80092021A60704700BF505C004006300020DD
:10560800054A064B126892B202EBC00003445B00E5
:105618001868C0F309007047505C0040063000204D
:10562800C3B2000A40EA0320704700BF08B538B18A
:10563800064B1B681B689847054B18680A3008BD5D
:10564800034B01221B681A8208BD00BFC419002041
:10565800C819002008B538B1064B1B689B689847E5
:10566800054B18680C3008BD034B01221B681A82D1
:1056780008BD00BFC4190020C819002008B5224B76
:10568800002832D021481A6800210180137813F0CD
:105698007F0316D0012B27D0022B24D1537903F096
:1056A8000F021B0625D4930003F1804303F5B8438A
:1056B8001B6803F44053B3F5805F0ED101230370D8
:1056C8000BE0537A9A0654BF0278022259064CBF5F
:1056D80042F0010222F0010202700D4B1B681B69A7
:1056E80098470A4808BD084608BD1B6802221A8266
:1056F80008BD920002F1804202F5B842136803F037
:105708003003102BE9D1D9E7C819002098190020D7
:10571800C41900202DE9F041264F3C68238A267AD7
:1057280023B9042E2DD0A58A042603E0A58AAB420E
:10573800FAD902269D4228BF1D462846A3699847E4
:1057480080460020FFF710FF2A460146404600F039
:1057580029FC29460020FFF723FF618AB4F810C00E
:105768001548164BC5EB0C0C3A680D4430274FF41E
:1057780040510780A4F810C0658219801672BDE8F0
:10578800F0810F490A78012A07D00B4B22460726D9
:10579800102116721980BDE8F0810A480A4A056886
:1057A8000548ADB22A44570030253B6022460B70AD
:1057B8000580E3E7C81900209619002094190020F5
:1057C800D40E0020505C00400230002010B50B4B76
:1057D8000B4A1B685178DA78914201D2022010BD39
:1057E80099780029FAD19C88002CF7D105499A723A
:1057F8000B685B689847204610BD00BFC819002099
:1058080020010020C419002038B5104A104C126835
:1058180023685879D9789369984723689A7A0AB996
:10582800022038BD0028FBD11A79002AF8D19D78CA
:10583800002DF5D1074B1B68DB689847236828467D
:105848005979DA78D9721A7338BD00BFA0190020C7
:10585800C8190020C419002038B5324B1B681878C5
:1058680010F07F0003D0022806D0022038BD5A7AF3
:1058780022F020025A7238BD5A88002AF6D11A79C5
:10588800002AF3D15A7922F08000840004F1804183
:10589800150601F5B84156BF09680D6801F4405571
:1058A800214948BF05F0300509788842DDD2002D2E
:1058B800DBD09B7A002BD8D004F1804404F5B8449F
:1058C8001206236809D503F03003102B1ED0174B9E
:1058D8001B685B699847002038BD03F44053B3F553
:1058E800805FF4D1D8B9124B93F82C10FFF766FEFD
:1058F800236823F4804323F070039BB283F440535E
:1059080043F4004343F080032360E0E7C4B2204639
:10591800FFF7F8FD20463021FFF776FDD7E7FFF7C0
:10592800DFFDE5E7C819002020010020C419002088
:105938009C00002038B5244B1868437923F0800276
:10594800940004F180411D0601F5B84156BF09686D
:105958000D6801F440551D4948BF05F03005097828
:105968008A4201D3022038BD4288002AFAD1002D8C
:10597800F8D0827A002AF5D004F1804404F5B844BE
:1059880013F0800F236811D023F4E04323F0400381
:105998009BB283F0100343F4004343F08003236079
:1059A8000B4B1B689B699847002038BD23F4804344
:1059B80023F070039BB283F4805343F4004343F015
:1059C80080032360ECE700BFC819002020010020F5
:1059D800C4190020054B1B685A8A10B10868104486
:1059E800704789888A1A1A82704700BFC819002030
:1059F80010B50B4B002093F82C10FFF7DFFD094B77
:105A08001B68187A082806D10749084B4FF48054B8
:105A180010220C801A80B0F109035842584110BD79
:105A28009C000020C8190020941900209619002015
:105A380070B5A94BA94D1A682C68A94B92B21344AA
:105A4800227A5B00092A82B01E6847D0B6B2760077
:105A580006F1804606F5C046337823707378637084
:105A6800B088FFF7DDFD608030892C68FFF7D8FD2E
:105A7800A080B2892B680121DA801972002A33D0FC
:105A88005878062800F08680002846D159880029D1
:105A980000F09380934C23681B69984703282B6870
:105AA8004BD01A8A4FF6FF718A4246D002280FD08F
:105AB80072B193F900100029C0F2B4808A494FF4FA
:105AC8004050032208801A72FFF792FF02B070BD9F
