:020000040800F2
:1000000000C000201D1800084544000849440008AD
:100010004D44000851440008554400080000000009
:10002000000000000000000000000000594400082B
:100030005D4400080000000061440008352200080B
:100040006D1800086D1800086D1800086D1800087C
:100050006D1800086D1800086D1800086D1800086C
:10006000314A0008A9490008B94A00086D1800087B
:100070006D1800086D1800086D1800086D1800084C
:100080006D1800086D1800086D1800086D1800083C
:10009000654400086D1800086D1800086D18000808
:1000A0006D180008F54100086D1800086D1800086B
:1000B0006D1800086D1800086D1800086D1800080C
:1000C0006D1800086D1800086D1800086D180008FC
:1000D0006D1800086D1800086D1800086D180008EC
:1000E0006D1800086D180008694400086D180008B4
:1000F000694200086D1800086D1800086D180008A6
:100100006D1800086D180008354100086D180008CA
:10011000E92500086D1800086D1800086D18000822
:100120006D1800086D1800086D1800086D1800089B
:1001300000000000000000000000000000000000BF
:1001400000000000000000000000000000000000AF
:10015000000000000000000000000000000000009F
:10016000000000000000000000000000000000008F
:10017000000000000000000000000000000000007F
:10018000000000000000000000000000000000006F
:10019000000000000000000000000000000000005F
:1001A000000000000000000000000000000000004F
:1001B000000000000000000000000000000000003F
:1001C000000000000000000000000000000000002F
:1001D000000000000000000000000000000000001F
:0401E0005FF8E0F1F3
:1001E80081F0004102E000BF83F0004330B54FEAE0
:1001F80041044FEA430594EA050F08BF90EA020F4D
:100208001FBF54EA000C55EA020C7FEA645C7FEADF
:10021800655C00F0E2804FEA5454D4EB5555B8BF02
:100228006D420CDD2C4480EA020281EA030382EA73
:10023800000083EA010180EA020281EA0303362D05
:1002480088BF30BD11F0004F4FEA01314FF4801CD8
:100258004CEA113102D0404261EB410113F0004FEA
:100268004FEA03334CEA133302D0524263EB4303A1
:1002780094EA050F00F0A780A4F10104D5F1200E3F
:100288000DDB02FA0EFC22FA05F2801841F100019A
:1002980003FA0EF2801843FA05F359410EE0A5F16E
:1002A80020050EF1200E012A03FA0EFC28BF4CF09F
:1002B800020C43FA05F3C01851EBE37101F0004555
:1002C80007D54FF0000EDCF1000C7EEB00006EEB62
:1002D8000101B1F5801F1BD3B1F5001F0CD34908EC
:1002E8005FEA30004FEA3C0C04F101044FEA445243
:1002F80012F5800F80F09A80BCF1004F08BF5FEACA
:10030800500C50F1000041EB045141EA050130BDA9
:100318005FEA4C0C404141EB010111F4801FA4F14C
:100328000104E9D191F0000F04BF01460020B1FAA1
:1003380081F308BF2033A3F10B03B3F120020CDAD9
:100348000C3208DD02F1140CC2F10C0201FA0CF0B7
:1003580021FA02F10CE002F11402D8BFC2F1200C1C
:1003680001FA02F120FA0CFCDCBF41EA0C019040D2
:10037800E41AA2BF01EB0451294330BD6FEA04041B
:100388001F3C1CDA0C340EDC04F11404C4F1200206
:1003980020FA04F001FA02F340EA030021FA04F318
:1003A80045EA030130BDC4F10C04C4F1200220FA6F
:1003B80002F001FA04F340EA0300294630BD21FAAD
:1003C80004F0294630BD94F0000F83F4801306BF73
:1003D80081F480110134013D4EE77FEA645C18BF67
:1003E8007FEA655C29D094EA050F08BF90EA020FFE
:1003F80005D054EA000C04BF1946104630BD91EAF6
:10040800030F1EBF0021002030BD5FEA545C05D1F8
:100418004000494128BF41F0004130BD14F5800437
:100428003CBF01F5801130BD01F0004545F0FE41AB
:1004380041F470014FF0000030BD7FEA645C1ABFE0
:10044800194610467FEA655C1CBF0B46024650EA17
:10045800013406BF52EA033591EA030F41F4002143
:1004680030BD00BF90F0000F04BF0021704730B5C9
:100478004FF4806404F132044FF000054FF000019E
:1004880050E700BF90F0000F04BF0021704730B55F
:100498004FF4806404F1320410F0004548BF404234
:1004A8004FF000013EE700BF42004FEAE2014FEA89
:1004B80031014FEA02701FBF12F07F4393F07F4F64
:1004C80081F06051704792F0000F14BF93F07F4F96
:1004D800704730B54FF4607401F0004521F00041D9
:1004E80020E700BF50EA010208BF704730B54FF05F
:1004F80000050AE050EA010208BF704730B511F064
:10050800004502D5404261EB41014FF4806404F19B
:1005180032045FEA915C3FF4DCAE4FF003025FEA1D
:10052800DC0C18BF03325FEADC0C18BF033202EBA5
:10053800DC02C2F1200300FA03FC20FA02F001FAFF
:1005480003FE40EA0E0021FA02F11444C1E600BF9E
:1005580070B54FF0FF0C4CF4E06C1CEA11541DBF51
:100568001CEA135594EA0C0F95EA0C0F00F0DEF81C
:100578002C4481EA030621EA4C5123EA4C5350EA01
:10058800013518BF52EA033541F4801143F4801352
:1005980038D0A0FB02CE4FF00005E1FB02E506F0E3
:1005A8000042E0FB03E54FF00006E1FB03569CF038
:1005B800000F18BF4EF0010EA4F1FF04B6F5007F3E
:1005C80064F5407404D25FEA4E0E6D4146EB0606B0
:1005D80042EAC62141EA55514FEAC52040EA5E5039
:1005E8004FEACE2EB4F1FD0C88BFBCF5E06F1ED8E3
:1005F800BEF1004F08BF5FEA500E50F1000041EB1A
:10060800045170BD06F0004646EA010140EA0200C6
:1006180081EA0301B4EB5C04C2BFD4EB0C0541EAE8
:10062800045170BD41F480114FF0000E013C00F3FD
:10063800AB8014F1360FDEBF002001F0004170BD21
:10064800C4F10004203C35DA0C341BDC04F114043A
:10065800C4F1200500FA05F320FA04F001FA05F2C6
:1006680040EA020001F0004221F0004110EBD37093
:1006780021FA04F642EB06015EEA430E08BF20EABF
:10068800D37070BDC4F10C04C4F1200500FA04F362
:1006980020FA05F001FA04F240EA020001F00041F4
:1006A80010EBD37041F100015EEA430E08BF20EA67
:1006B800D37070BDC4F1200500FA05F24EEA020EAF
:1006C80020FA04F301FA05F243EA020321FA04F0DE
:1006D80001F0004121FA04F220EA020000EBD37095
:1006E8005EEA430E08BF20EAD37070BD94F0000F95
:1006F8000FD101F00046400041EB010111F4801FC9
:1007080008BF013CF7D041EA060195F0000F18BF79
:10071800704703F00046520043EB030313F4801FB5
:1007280008BF013DF7D043EA0603704794EA0C0F6F
:100738000CEA135518BF95EA0C0F0CD050EA410685
:1007480018BF52EA4306D1D181EA030101F0004102
:100758004FF0000070BD50EA410606BF104619462A
:1007680052EA430619D094EA0C0F02D150EA013636
:1007780013D195EA0C0F05D152EA03361CBF104677
:1007880019460AD181EA030101F0004141F0FE4116
:1007980041F470014FF0000070BD41F0FE4141F49A
:1007A800780170BD70B54FF0FF0C4CF4E06C1CEA9A
:1007B80011541DBF1CEA135594EA0C0F95EA0C0F4F
:1007C80000F0A7F8A4EB050481EA030E52EA03350A
:1007D8004FEA013100F088804FEA03334FF080552B
:1007E80045EA131343EA12634FEA022245EA111558
:1007F80045EA10654FEA00260EF000419D4208BF09
:10080800964244F1FD0404F5407402D25B084FEAB5
:100818003202B61A65EB03055B084FEA32024FF461
:1008280080104FF4002CB6EB020E75EB030E22BFBE
:10083800B61A754640EA0C005B084FEA3202B6EB7E
:10084800020E75EB030E22BFB61A754640EA5C002D
:100858005B084FEA3202B6EB020E75EB030E22BFBD
:10086800B61A754640EA9C005B084FEA3202B6EBBE
:10087800020E75EB030E22BFB61A754640EADC007D
:1008880055EA060E18D04FEA051545EA16754FEADF
:1008980006164FEAC30343EA52734FEAC2025FEAFD
:1008A8001C1CC0D111F4801F0BD141EA00014FF08C
:1008B80000004FF0004CB6E711F4801F04BF01435D
:1008C8000020B4F1FD0C88BFBCF5E06F3FF6AFAE79
:1008D800B5EB030C04BFB6EB020C5FEA500C50F109
:1008E800000041EB045170BD0EF0004E4EEA11318C
:1008F80014EB5C04C2BFD4EB0C0541EA045170BD93
:1009080041F480114FF0000E013C90E645EA060ED6
:100918008DE60CEA135594EA0C0F08BF95EA0C0F04
:100928003FF43BAF94EA0C0F0AD150EA01347FF44C
:1009380034AF95EA0C0F7FF425AF104619462CE723
:1009480095EA0C0F06D152EA03353FF4FDAE104686
:10095800194622E750EA410618BF52EA43067FF4D7
:10096800C5AE50EA41047FF40DAF52EA43057FF467
:10097800EBAE12E74FF0FF3C06E000BF4FF0010C72
:1009880002E000BF4FF0010C4DF804CD4FEA410CD6
:100998007FEA6C5C4FEA430C18BF7FEA6C5C1BD0A3
:1009A80001B050EA410C0CBF52EA430C91EA030F24
:1009B80002BF90EA020F0020704710F1000F91EA81
:1009C800030F58BF994208BF90422CBFD8176FEA4F
:1009D800E37040F0010070474FEA410C7FEA6C5C1D
:1009E80002D150EA013C07D14FEA430C7FEA6C5C24
:1009F800D6D152EA033CD3D05DF8040B704700BF50
:100A08008446104662468C461946634600E000BF9D
:100A180001B5FFF7B7FF002848BF10F1000F01BD6F
:100A28004DF808EDFFF7F4FF0CBF012000205DF83A
:100A380008FB00BF4DF808EDFFF7EAFF34BF0120BF
:100A480000205DF808FB00BF4DF808EDFFF7E0FF58
:100A580094BF012000205DF808FB00BF4DF808EDA9
:100A6800FFF7CEFF94BF012000205DF808FB00BF10
:100A78004DF808EDFFF7C4FF34BF012000205DF8F2
:100A880008FB00BF4FEA410212F5001215D211D53A
:100A98006FF47873B3EB625212D94FEAC12343F073
:100AA800004343EA505311F0004F23FA02F018BFF5
:100AB800404270474FF00000704750EA013005D1BE
:100AC80011F0004008BF6FF0004070474FF0000081
:100AD800704700BF4FEA4102B2F1E04324BFB3F5CB
:100AE800001CDCF1FE5C0DD901F0004C4FEAC0029D
:100AF8004CEA5070B2F1004F40EB830008BF20F081
:100B08000100704711F0804F21D113F13872BCBF3A
:100B180001F00040704741F480114FEA5252C2F18F
:100B28001802C2F1200C10FA0CF320FA02F018BFD8
:100B380040F001004FEAC1234FEAD32303FA0CFC2B
:100B480040EA0C0023FA02F34FEA4303CCE77FEABA
:100B5800625307D150EA01331EBF4FF0FE4040F404
:100B68004000704701F0004040F0FE4040F40000B3
:100B7800704700BF80F0004002E000BF81F00041F4
:100B880042001FBF5FEA410392EA030F7FEA226C2B
:100B98007FEA236C6AD04FEA1262D2EB1363C1BFBB
:100BA800D218414048404140B8BF5B42192B88BF2A
:100BB800704710F0004F40F4000020F07F4018BF4D
:100BC800404211F0004F41F4000121F07F4118BF6D
:100BD800494292EA030F3FD0A2F1010241FA03FC15
:100BE80010EB0C00C3F1200301FA03F100F00043FD
:100BF80002D5494260EB4000B0F5000F13D3B0F1C5
:100C0800807F06D340084FEA310102F10102FE2A33
:100C180051D2B1F1004F40EBC25008BF20F00100A3
:100C280040EA03007047490040EB000010F4000F51
:100C3800A2F10102EDD1B0FA80FCACF1080CB2EBE4
:100C48000C0200FA0CF0AABF00EBC2505242184343
:100C5800BCBFD0401843704792F0000F81F40001E8
:100C680006BF80F400000132013BB5E74FEA4103BB
:100C78007FEA226C18BF7FEA236C21D092EA030F27
:100C880004D092F0000F08BF0846704790EA010FA1
:100C98001CBF0020704712F07F4F04D1400028BFCE
:100CA80040F00040704712F100723CBF00F50000B0
:100CB800704700F0004343F0FE4040F400007047E6
:100CC8007FEA226216BF08467FEA23630146420292
:100CD80006BF5FEA412390EA010F40F480007047A5
:100CE8004FF0000304E000BF10F0004348BF40424B
:100CF8005FEA000C08BF704743F0964301464FF087
:100D080000001CE050EA010208BF70474FF00003E2
:100D18000AE000BF50EA010208BF704711F0004323
:100D280002D5404261EB41015FEA010C02BF8446F3
:100D38000146002043F0B64308BFA3F18053A3F552
:100D48000003BCFA8CF2083AA3EBC25310DB01FA99
:100D580002FC634400FA02FCC2F12002BCF1004F1D
:100D680020FA02F243EB020008BF20F001007047AE
:100D780002F1200201FA02FCC2F1200250EA4C0002
:100D880021FA02F243EB020008BF20EADC70704748
:100D98004FF0FF0C1CEAD0521EBF1CEAD15392EA56
:100DA8000C0F93EA0C0F6FD01A4480EA010C400232
:100DB80018BF5FEA41211ED04FF0006343EA50108C
:100DC80043EA5111A0FB01310CF00040B1F5000FCE
:100DD8003EBF490041EAD3715B0040EA010062F17D
:100DE8007F02FD2A1DD8B3F1004F40EBC25008BF67
:100DF80020F00100704790F0000F0CF0004C08BF85
:100E080049024CEA502040EA51207F3AC2BFD2F151
:100E1800FF0340EAC250704740F400004FF000035F
:100E2800013A5DDC12F1190FDCBF00F00040704799
:100E3800C2F10002410021FA02F1C2F1200200FAD7
:100E480002FC5FEA310040F1000053EA4C0308BF9E
:100E580020EADC70704792F0000F00F0004C02BFEF
:100E6800400010F4000F013AF9D040EA0C0093F06A
:100E7800000F01F0004C02BF490011F4000F013BC4
:100E8800F9D041EA0C018FE70CEAD15392EA0C0F32
:100E980018BF93EA0C0F0AD030F0004C18BF31F09D
:100EA800004CD8D180EA010000F00040704790F073
:100EB800000F17BF90F0004F084691F0000F91F017
:100EC800004F14D092EA0C0F01D142020FD193EADD
:100ED8000C0F03D14B0218BF084608D180EA010065
:100EE80000F0004040F0FE4040F40000704740F041
:100EF800FE4040F4400070474FF0FF0C1CEAD0520F
:100F08001EBF1CEAD15392EA0C0F93EA0C0F69D06A
:100F1800A2EB030280EA010C49024FEA402037D0D5
:100F28004FF0805343EA111143EA10130CF00040CC
:100F38008B4238BF5B0042F17D024FF4000C8B42BC
:100F480024BF5B1A40EA0C00B3EB510F24BFA3EB9C
:100F5800510340EA5C00B3EB910F24BFA3EB91036C
:100F680040EA9C00B3EBD10F24BFA3EBD10340EAC6
:100F7800DC001B0118BF5FEA1C1CE0D1FD2A3FF60C
:100F880050AF8B4240EBC25008BF20F001007047C1
:100F98000CF0004C4CEA50207F32C2BFD2F1FF0364
:100FA80040EAC250704740F400004FF00003013A95
:100FB80037E792F0000F00F0004C02BF400010F439
:100FC800000F013AF9D040EA0C0093F0000F01F04D
:100FD800004C02BF490011F4000F013BF9D041EA6F
:100FE8000C0195E70CEAD15392EA0C0F08D14202A2
:100FF8007FF47DAF93EA0C0F7FF470AF084676E775
:1010080093EA0C0F04D14B023FF44CAF08466EE74D
:1010180030F0004C18BF31F0004CCAD130F000421B
:101028007FF45CAF31F000437FF43CAF5FE700BF73
:101038004FF0FF3C06E000BF4FF0010C02E000BF9C
:101048004FF0010C4DF804CD4FEA40024FEA41033E
:101058007FEA226C18BF7FEA236C11D001B052EAF4
:10106800530C18BF90EA010F58BFB2EB030088BFBA
:10107800C81738BF6FEAE17018BF40F00100704729
:101088007FEA226C02D15FEA402C05D17FEA236C0B
:10109800E4D15FEA412CE1D05DF8040B704700BF52
:1010A800844608466146FFE70FB5FFF7C9FF0028E9
:1010B80048BF10F1000F0FBD4DF808EDFFF7F4FF22
:1010C8000CBF012000205DF808FB00BF4DF808EDBB
:1010D800FFF7EAFF34BF012000205DF808FB00BFDE
:1010E8004DF808EDFFF7E0FF94BF012000205DF800
:1010F80008FB00BF4DF808EDFFF7D2FF94BF0120B1
:1011080000205DF808FB00BF4DF808EDFFF7C8FFA9
:1011180034BF012000205DF808FB00BF4FEA400201
:10112800B2F1FE4F0FD34FF09E03B3EB12620DD90D
:101138004FEA002343F0004310F0004F23FA02F077
:1011480018BF404270474FF00000704712F1610F1E
:1011580001D1420205D110F0004008BF6FF00040F5
:1011680070474FF000007047844641EA000313F0CF
:10117800030349D1403A23D30B6803604B684360AB
:101188008B688360CB68C3600B6903614B694361FB
:101198008B698361CB69C3610B6A03624B6A4362E3
:1011A8008B6A8362CB6AC3620B6B03634B6B4363CB
:1011B8008B6B8363CB6BC36340304031403ADBD2E7
:1011C80030320BD30B6803604B6843608B688360D5
:1011D800CB68C36010301031103AF3D20C3205D30B
:1011E80051F8043B40F8043B043AF9D2043208D0E1
:1011F800D2071CBF11F8013B00F8013B01D30B8853
:1012080003806046704700BF082A13D38B07B1D00C
:1012180010F00303AED0C3F10403D21ADB071CBFDE
:1012280011F8013B00F8013BA4D331F8023B20F848
:10123800023B9FE7043AD9D3013A11F8013B00F881
:10124800013BF9D20B7803704B7843708B7883702D
:10125800604670474BB942B9002908BF002802D040
:101268004FF0FF31084600F03BB882B0EC462DE95C
:10127800005000F01DF8DDF804E002B00CBC704727
:101288002DE9704F089E14461D468046894600F099
:1012980029F804FB01F3A4FB00AB00FB05329344DF
:1012A800B8EB0A0869EB0B09C6E90089BDE8708F3D
:1012B8002DE9704F089E14461D468046894600F069
:1012C80061F900FB05F5A0FB04AB04FB0154A34442
:1012D800B8EB0A0869EB0B09C6E90089BDE8708F0D
:1012E800704700BF00292DE9F00FC0F2A18000244B
:1012F800002BC0F29880154606460F46002B3FD1BA
:101308008A4258D9B2FA82F34BB1C3F1200201FAEA
:1013180003F720FA02F29D4000FA03F61743290C5E
:10132800B7FBF1F201FB1277A8B200FB02F34FEA18
:10133800164C4CEA0747BB4209D97F1902F1FF3C1A
:1013480080F00581BB4240F20281023A2F44FF1A25
:10135800B7FBF1F301FB137100FB03F0B6B246EAE9
:101368000141884208D9491903F1FF3780F0F1801B
:10137800884240F2EE80023B43EA0242002303E047
:101388008B420AD900231A461046194614B1404226
:1013980061EB4101BDE8F00F7047B3FA83F8B8F18B
:1013A800000F40F088808B4202D3824200F2E28034
:1013B80000230122E8E712B90123B3FBF2F5B5FADD
:1013C80085F2002A3AD17F1B280C1FFA85FC0123DD
:1013D800B7FBF0F100FB11770CFB01F24FEA16485E
:1013E80048EA0747BA4207D97F1901F1FF3802D204
:1013F800BA4200F2C4804146BF1AB7FBF0F200FBC4
:1014080012700CFB02FCB6B246EA0040844507D9CC
:10141800401902F1FF3702D2844500F2AE803A4605
:1014280042EA0142B0E7E443524263EB430362E716
:10143800404261EB41014FF0FF3459E79540C2F15A
:10144800200927FA09F126FA09F99740280CB1FB77
:10145800F0F800FB18111FFA85FC0CFB08F349EAA9
:1014680007094FEA194747EA01418B4206FA02F693
:1014780008D9491908F1FF327AD28B4278D9A8F1F4
:1014880002082944C91AB1FBF0F300FB13170CFB3F
:1014980003F21FFA89F949EA0747BA4207D97F19BF
:1014A80003F1FF3160D2BA425ED9023B2F44BF1A22
:1014B80043EA08438CE7C8F1200225FA02F103FA4F
:1014C80008FC27FA02F320FA02F207FA08F741EAC1
:1014D8000C0C4FEA1C49B3FBF9F109FB11331FFA55
:1014E8008CFA0AFB01FB17433A0C42EA03439B457B
:1014F80005FA08F008D913EB0C0301F1FF3235D2D5
:101508009B4533D902396344CBEB0303B3FBF9F2B0
:1015180009FB12330AFB02FABFB247EA0347BA458E
:1015280008D917EB0C0702F1FF331BD2BA4519D9BA
:10153800023A674442EA0145A5FB0001CAEB0707E6
:101548008F424FF000030AD305D02A461CE76246B3
:10155800FDE63B4610E706FA08F68642F5D26A1E13
:10156800002311E71A46E5E70B46A0E71146CBE74B
:10157800904687E74346424606E7023A50E7023973
:101588002F4439E72DE9F00F144605460E46002B87
:1015980043D18A4253D9B2FA82F757B1C7F120062C
:1015A80020FA06F601FA07F302FA07F400FA07F53B
:1015B8001E43210CB6FBF1F201FB1266A0B200FB40
:1015C80002F32F0C47EA0646B34209D9361902F14D
:1015D800FF3780F0FD80B34240F2FA80023A264499
:1015E800F61AB6FBF1F301FB136100FB03F0ADB291
:1015F80045EA0141884208D9091903F1FF3680F00C
:10160800E980884240F2E680023B43EA0242002336
:1016180010461946BDE8F00F70478B424CD8B3FA14
:1016280083F6002E4FD18B4202D3824200F2DD8036
:10163800BDE8F00F0023012210461946704712B981
:101648000124B4FBF2F4B4FA84F2002A40F0828058
:10165800091B260CA7B20123B1FBF6F006FB1011FB
:1016680007FB00F24FEA154C4CEA01418A4207D9C0
:10167800091900F1FF3C02D28A4200F2C880604694
:10168800891AB1FBF6F206FB121107FB02F7ADB29D
:1016980045EA0145AF4208D92C1902F1FF3180F023
:1016A8009B80A74240F29880023A42EA00421046E4
:1016B8001946BDE8F00F704700231A461046194630
:1016C800BDE8F00F7047C6F1200522FA05F703FAC6
:1016D80006F421FA05F301FA06FB20FA05F53C4366
:1016E8004FEA1448B3FBF8FC08FB1C331FFA84F9D3
:1016F80009FB0CFA45EA0B0B4FEA1B4545EA034385
:101708009A4502FA06F204D91B190CF1FF356FD37A
:10171800AC46CAEB0303B3FBF8F508FB153309FB2A
:1017280005F91FFA8BFB4BEA0347B94504D93F1962
:1017380005F1FF3362D31D4645EA0C4CACFB02238E
:10174800C9EB07079F424FF000054AD346D06246CF
:101758002B465DE79440C2F1200921FA09FC91402B
:1017680020FA09F9260CBCFBF6F806FB18CCA7B240
:1017780007FB08F349EA01094FEA194141EA0C4C11
:10178800634500FA02F509D91CEB040C08F1FF3295
:101798003BD2634539D9A8F10208A444C3EB0C0C29
:1017A800BCFBF6F306FB13C107FB03F21FFA89F92A
:1017B80049EA01418A4207D9091903F1FF3022D2C7
:1017C8008A4220D9023B2144891A43EA084343E765
:1017D8003A4605E7334618E70A4666E7B0409042BE
:1017E800B5D20CF1FF32002312E7334632460FE739
:1017F8009A458DD9ACF1020C23448AE7B9459AD9A8
:10180800023D274498E70346DEE79046C6E70238DC
:10181800214435E7002100F004B80D4B5B584350D4
:1018280004310C480C4B42189A42FFF4F6AF0B4AAD
:1018380000F003B8002342F8043B094B9A42FFF436
:10184800F9AF01F04DFE05F06DFE02F0BBFF7047E9
:1018580034BC000800000020B4090020B4090020AE
:10186800DC580020FFF7FEBF2DE9F003CD78EB062A
:1018780048BF8B78098805F00F0748BF1F4311F050
:10188800FF0F23D0D0F800C0002301264FF00F0827
:1018980002E00133082B17D006FA03F202EA01042A
:1018A8009442F6D19A0008FA02F907FA02F22CEAF1
:1018B800090C282D4CEA020C35D0482D03F1010300
:1018C80008BF0461082BE7D1C0F800C0FF2925D95B
:1018D800D0F804C0002301264FF00F0802E00133BE
:1018E800082B19D003F1080206FA02F202EA0104F1
:1018F8009442F4D19A0008FA02F907FA02F22CEAA3
:10190800090C282D4CEA020C0BD0482D03F10103D9
:1019180008BF0461082BE5D1C0F804C0BDE8F00396
:1019280070474461DBE74461B3E700BF836819424D
:101938000CBF00200120704701617047416170476A
:101948000AB9416170470161704700BFC3685940D7
:10195800C16070470028194B00F44012B4BFDB691E
:101968005B68B2F5401F30B484B21FD0C20214D5F0
:10197800C0F30342032505FA02F223EA020343F007
:10198800706319B1420D1201944023430B4A002899
:10199800B4BFD361536030BC7047420D120104FAE2
:1019A80002F223EA020343F07063EAE7034A23F0F2
:1019B8007063556825F070655560E2E700000140E6
:1019C80001F003039B000F229A4000FA03F301F091
:1019D800FC0101F1804101F58031886820EA0202AA
:1019E8008A608A6813438B60704700BF837930B47C
:1019F8002BB31D4B01681A68CC4322401A605D68FE
:101A080002792C4002F180425C6002F5823215684E
:101A180044792943116002689868D1430840986066
:101A2800D868102C01EA0001D96014D004F1804371
:101A380003F58233196830BC0A431A60704703798A
:101A4800016803F1804303F582331A6830BC22EA47
:101A580001021A607047996830BC11439960D968CF
:101A68000A43DA60704700BF00040140024B1A695C
:101A780010431861704700BF00040140014B5861D2
:101A8800704700BF0004014008B5174B984212D0B8
:101A9800164B98421BD0164B984200D008BD4FF405
:101AA8000040012100F046FBBDE808404FF400402B
:101AB800002100F03FBB4FF40070012100F03AFB19
:101AC800BDE808404FF40070002100F033BB4FF42C
:101AD8008060012100F02EFBBDE808404FF48060D3
:101AE800002100F027BB00BF00240140002801406E
:101AF800003C014043680A6823F4702330B423F49F
:101B080080730C79134343EA0423436085688C6827
:101B1800CA68094B22432B404D79134343EA4503D6
:101B280083600B7CC26A013BDBB222F4700242EA9A
:101B38000353C36230BC7047FDF7F1FF836819B9DE
:101B480023F001038360704743F00103836070470B
:101B5800836843F008038360704700BF8068C0F360
:101B6800C0007047836843F004038360704700BF78
:101B78008068C0F38000704740F0BF60024B40F4BB
:101B88000030D860704700BF00ED00E0C37830B483
:101B98005BB90378012103F01F02914030BC5B0957
:101BA800144A203342F823107047134B4478DB68FB
:101BB8000F22DB43C3F30223C3F1040122FA03F328
:101BC8008C408578017803EA0502224301F16043DD
:101BD8001201D2B203F5614383F80023037801218F
:101BE80003F01F02914030BC024A5B0942F82310FF
:101BF800704700BF00E100E000ED00E0294A0388DB
:101C0800904270B49BB212D002F5006290420ED09E
:101C1800B0F1804F0BD0A2F59832904207D002F570
:101C28008062904203D002F58062904203D14A88D4
:101C380023F0700313431C4A90422AD002F58062B5
:101C4800904226D0CE8823F440738D880C889BB2AE
:101C580002F58C323343904203808585048512D087
:101C6800124B98420FD003F5406398420BD003F50E
:101C78008063984207D003F58063984203D070BC14
:101C88000123838270470B7A70BC03860123838209
:101C9800704703808B8870BC83850B88038501237C
:101CA80083827047002C014000100040003401403E
:101CB800038CF0B423F001031B041B0C0384028C77
:101CC8000D8984884F88038B2F4322F0020223F06A
:101CD80073031A4D12041B040E88120CBFB21B0C9E
:101CE800A84247EA0202A4B243EA060316D005F561
:101CF8000065A84212D005F54065A8420ED005F54A
:101D08008065A8420AD005F58065A84206D0C98832
:101D180084800383F0BC8186028470474E89CF8912
:101D28008D8922F0080232433D438E8824F44074A2
:101D380022F00402ADB232432C43E8E7002C014004
:101D4800038CF0B423F010031B041B0C0384028CD7
:101D5800848822F02002038B0D89120423F4E643C1
:101D6800120C42EA05124F881B040E88174D1B0CF3
:101D780042EA071243EA0623A84292B2A4B29BB2EF
:101D88000AD005F50065A84206D0C9888480038377
:101D9800F0BC01870284704722F08002B1F80AC0C3
:101DA80092B28F8942EA0C1C24F440644FF6BF7546
:101DB8008A88CE890CEA050544EA870445EA0212B6
:101DC80044EA860492B2A4B2DFE700BF002C0140C7
:101DD800038CF0B423F480731B041B0C0384028C63
:101DE8000D8922F4007284881204838B120C42EA53
:101DF80005224F8823F07303174D1B040E8842EA0F
:101E080007221B0CA84292B2A4B243EA06030AD0E6
:101E180005F50065A84206D0C98884808383F0BC94
:101E280081870284704722F40062B1F80AC092B236
:101E38008F8942EA0C2C24F440544FF6FF358A88E7
:101E4800CE890CEA050544EA071445EA022244EA69
:101E5800061492B2A4B2DFE7002C014010B40B883C
:101E68004C888A882343CC8813430A8923434C89A6
:101E780013438A89234313439BB2A0F844305DF887
:101E8800044B7047038829B923F001031B041B0C7A
:101E9800038070479BB243F001030380704700BF83
:101EA800B0F8443021B9C3F30E03A0F844307047AA
:101EB8006FEA43436FEA53439BB2A0F8443070473C
:101EC800038B23F008031B041B0C19430183704781
:101ED800038B23F400631B041B0C43EA01218BB220
:101EE80003837047838B23F008031B041B0C1943DF
:101EF80081837047038ACA889BB223F440531343F3
:101F080030B50382828904460B8988880D4692B2CF
:101F18004989034322F4B0520B4322F00C021343C5
:101F28009BB2A381A38AAA899BB223F4407387B08A
:101F38001343A38201A800F08FF8A189049A1A48D4
:101F4800039B09B2844208BF13462A68002903EBA1
:101F58008303B4BF5200920003EB83031349B3FB1E
:101F6800F2F3A1FB0352A089520900B264250028AC
:101F780002FB15334FEA02120ADB1B013233A1FBC5
:101F88000351C1F343110A4392B2228107B030BD15
:101F9800DB003233A1FB0301C1F342110A4392B2C1
:101FA800228107B030BD00BF003801401F85EB51CA
:101FB80030B40B884D888C88028A2B43C988234308
:101FC80092B20B4322F4706213439BB2038230BC7B
:101FD800704700BF0023038043808380C38070471D
:101FE800838929B923F400531B041B0C8381704790
:101FF8009BB243F400538381704700BF01F01F0375
:1020080010B4C1F342110124A14204FA03F310D021
:1020180002290CBF1030143004682AB924EA0303DB
:1020280003605DF8044B7047234303605DF8044B7D
:1020380070470C30F0E700BF014B1860704700BFD5
:10204800D8004242034B5A6822F440421043586079
:10205800704700BF001002401F4930B44B6803F0BE
:102068000C03042B01D0082B20D01C4A02601A4B09
:102078001B495D681B4CC5F303154D5DEA40426082
:102088005D68C5F302254D5D22FA05F585605D683A
:10209800C5F3C225495DCA40C2605B68C3F381339A
:1020A800E35C30BCB2FBF3F2026170474A684B68EC
:1020B800C2F38342DC0302F1020207D54B689B039B
:1020C80004D4064B03FB02F20260D0E7064B03FB85
:1020D80002F20260CBE700BF0010024000127A0053
:1020E800040000200000002000093D00044B5A694C
:1020F80019B922EA000058617047104358617047C7
:1021080000100240044B9A6919B922EA000098614C
:10211800704710439861704700100240044BDA6919
:1021280019B922EA0000D86170471043D861704796
:1021380000100240044BDA6819B922EA0000D8609E
:1021480070471043D86070470010024030B587B020
:102158000823002469461C48ADF800308DF8034078
:10216800FFF782FB4FF40040FFF76CFF01214FF4AB
:102178000070FFF7C7FF1548FFF786FC01254FF4ED
:102188006023124801A9039301948DF808408DF843
:10219800094004948DF81450FFF7ACFC0B4829460D
:1021A800FFF7CCFC0948FFF7D3FC0848FFF7D6FC3B
:1021B8000028FAD10548FFF7D5FC0448FFF7D8FCFA
:1021C8000028FAD107B030BD0010014000240140BA
:1021D80030B4104A104D13680F4CA86800BF00BFF8
:1021E80011688B42F7D122680B49D20348BFA06817
:1021F8000A4A4968126801F10101C0EB0100B0FB0D
:10220800F2F048BF01334FF47A7202FB030030BC8E
:10221800704700BFB409002010E000E0140000205F
:10222800014B1868704700BFB409002008B572B6A2
:10223800054B064A12681A6801321A6062B6044BE6
:102248001B6803B1984708BDB409002010E000E0FE
:10225800B8090020014B1860704700BFB80900207A
:102268000E4B0F4A1B680F49A2FB0302A1FB030395
:1022780092090D49013A9B0CB2F1807F30B40B6092
:1022880009D20A4B0A4CF025002007215A6084F82D
:1022980023509860196030BC704700BF340000209C
:1022A800D34D621083DE1B431400002010E000E0D1
:1022B80000ED00E010B5124C4FF4006120460122F9
:1022C800FFF73EFB20464FF480610122FFF738FB01
:1022D800012001F0EBFC20464FF400610022FFF7DB
:1022E8002FFB012001F0E2FC20464FF48061002220
:1022F800FFF726FBBDE81040012001F0D7BC00BF66
:10230800000C014010B5134C4FF4806120460022A8
:10231800FFF716FB012001F0C9FC20464FF40061CD
:102328000022FFF70DFB012001F0C0FC20464FF40E
:1023380080610122FFF704FB012001F0B7FC204671
:102348004FF400610122FFF7FBFABDE810400120BD
:1023580001F0ACBC000C014010B5134C4FF4806187
:1023680020460022FFF7ECFA012001F09FFC2046EE
:102378004FF400610022FFF7E3FA012001F096FC18
:1023880020464FF480610122FFF7DAFA012001F0BC
:102398008DFC20464FF480610022FFF7D1FABDE89A
:1023A8001040012001F082BC000C014010B5134C14
:1023B8004FF4806120460022FFF7C2FA012001F0A5
:1023C80075FC20464FF400610122FFF7B9FA01209D
:1023D80001F06CFC20464FF480610122FFF7B0FA4F
:1023E800012001F063FC20464FF480610022FFF7D2
:1023F800A7FABDE81040012001F058BC000C0140CC
:1024080038B50446082514E00022FFF799FA0120A0
:1024180001F04CFC012214484FF48061FFF790FA58
:10242800012001F043FC6A1E640012F0FF05E4B2CB
:1024380011D04FF480610C480022FFF781FA012087
:1024480001F034FC230608484FF40061DCD5012272
:10245800FFF776FADBE72A4603484FF48061BDE8C8
:102468003840FFF76DBA00BF000C0140F8B51B48B3
:102478004FF400610122FFF763FA082700264FF4A2
:10248800806100221548FFF75BFA012001F00EFC7D
:1024980012484FF480610122FFF752FA7600F6B233
:1024A800082500240D484FF40061FFF73FFA6B1E22
:1024B800204413F0FF05C4B2F4D1032C07F1FF3216
:1024C80088BF46F0010612F0FF07D8D13A46034804
:1024D8004FF48061FFF734FA3046F8BD000C014034
:1024E80008B54FF4806100221748FFF729FA012048
:1024F80001F0DCFB4FF4006101221348FFF720FADA
:10250800012001F0D3FB4FF4806101220E48FFF750
:1025180017FA012001F0CAFB0B484FF40061FFF7DE
:1025280005FA012807D0BDE8084007484FF4806144
:102538000022FFF705BA054B186001F085FB044B34
:102548001A6801321A60EEE7000C01401C0F0020E7
:10255800180F0020024840F227710122FFF74EBDF4
:10256800004C004000B54FF4A06083B0FFF704FBB7
:1025780001233421002201A88DF804108DF80530BC
:102588008DF807308DF80620FFF700FB03B05DF8E3
:1025980004FB00BF014801F011B900BFCC0B0020BB
:1025A800014801F047B800BFCC0B002008B503482C
:1025B80001F040F80028FAD108BD00BFBC0900208E
:1025C80010B5017841B104460448012201F046F8EB
:1025D80014F8011F0029F7D110BD00BFBC09002065
:1025E800264B274A70B5196815880131ADB21960B4
:1025F800290613D5234C2168636899422DD0236896
:10260800204623441B7B9380266801F00FF801368F
:10261800864216BF2368002301332360AB0600D42B
:1026280070BD174B184C9B8820469EB201F002F8EB
:102638000546204600F0FAFF6B1C834216D06368FB
:102648002046234465681E7300F0F0FF013585427B
:1026580010D063680133636070BD104640F2277183
:102668000022FFF7CBFC00BF00BFD7E7A368013308
:10267800A36070BD0023636070BD00BF200F002001
:10268800004C0040BC090020CC0B002008B50548D0
:10269800054900F0C3FFBDE808400448002100F0E8
:1026A800BDBF00BFBC0900205D250008CC0B002081
:1026B80030B5234D89B0284601A9182203234FF4C9
:1026C8008064ADF804408DF807201E4C8DF8063064
:1026D800FFF7CAF84FF40062282301A92846ADF88D
:1026E80004208DF80730FFF7BFF802A8FFF772FC47
:1026F80002A92046FFF75CFC4FF41655002320463C
:102708000C2204A9ADF81430ADF81630ADF8183025
:10271800ADF81C30ADF81A200495FFF7EBFB012249
:10272800204640F22551FFF769FC20460121FFF7BA
:1027380057FCFFF7ABFFFFF715FF09B030BD00BF2F
:1027480000100140004C0040014B9868704700BFE2
:10275800240F002038B50F4C256861682368C91A12
:1027680000290FD00FDB6019C9B20C3003F09CFBB5
:1027780025680544074800F059FF95FBF0F303FB73
:102788001050206038BD204600F050FF2168411AE3
:10279800E9E700BF240F002008B5064B1B6803B10A
:1027A80008BDFFF73DFD044B1860BDE80840FFF782
:1027B800D1BF00BF88580020DC0D002008B50749AC
:1027C800074B012000221A600860FFF729FD054B1E
:1027D8001860BDE80840FFF7BDBF00BFE00D00204E
:1027E80088580020DC0D002008B503F0C7FA03F074
:1027F800FBFA03F017FB03F08BF9BDE80840024829
:10280800024900F00BBF00BF240F0020A1270008D9
:1028180038B505460C4603F0A1FB28B12946034804
:102828002246002300F062FF204638BD240F002016
:10283800014B1868704700BFD4580020054B10B5ED
:102848001C688C42A8BF0C46214603F051FB204669
:1028580010BD00BFD458002010B50446FFF7B8FCDF
:102868002060606010BD00BF10B50446FFF7B0FCE3
:1028780063686060C01A10BD05C8101A704700BFB1
:10288800184B2DE9F04118681749FEF781FA174BE4
:10289800174C1968FEF774F905466078FEF720FAB8
:1028A8001149FEF729FB2946FEF772FA07462079F7
:1028B800FEF716FA0F49FEF71FFB0F4E80463168E8
:1028C8002846FEF75BF901464046FEF761FA3946AD
:1028D8003560FEF755F9094BE179BDE8F04118601C
:1028E80001F0BCBB3411002000007A44E40D002044
:1028F8004C0000200000C842300E00209830002014
:10290800184B2DE9F04158681749FEF741FA174B63
:10291800174C1968FEF734F905462078FEF7E0F9F8
:102928001149FEF7E9FA2946FEF732FA0746E07838
:10293800FEF7D6F90F49FEF7DFFA0F4E80463168E9
:102948002846FEF71BF901464046FEF721FA3946AC
:102958003560FEF715F9094BA179BDE8F0415860DB
:1029680001F09CBB3411002000007A44380E00208E
:102978004C0000200000C8420C0E002098300020B7
:10298800184B2DE9F04198681749FEF701FA174BE3
:10299800174C1968FEF7F4F80546A078FEF7A0F979
:1029A8001149FEF7A9FA2946FEF7F2F907466079B8
:1029B800FEF796F90F49FEF79FFA0F4E80463168E9
:1029C8002846FEF7DBF801464046FEF7E1F93946AE
:1029D8003560FEF7D5F8094B217ABDE8F0419860DB
:1029E80001F07CBB3411002000007A44F40D002073
:1029F8004C0000200000C842600E002098300020E3
:102A08002DE9F84F2B4D2C4C96262A4801F026F834
:102A1800A968286803F08AFCA9688046686803F0FA
:102A280085FC264907462068FEF7B2F94146FEF7BD
:102A3800A5F82349FEF760FA204920606068FEF790
:102A4800A7F901463846FEF79BF81D49FEF754FAE8
:102A58006060012001F032F9013E174FD5D1194DC0
:102A6800D7F804B0D7F800A0DFF870C0164FDFF829
:102A7800709033464FF00008144E154C154816490F
:102A88001A46C7F804B0C7F800A0C7F80880C5F808
:102A98000890C5F804C0C5F800C046F80380E250A5
:102AA80040F8038041F803800433B3F57A6FF4D11A
:102AB800BDE8F88F140E00208C300020000015436C
:102AC80000001643E02000203411002040110020AF
:102AD800A83000204C400020EC2000200000B44228
:102AE800000034432DE9F84F1746926806460C4615
:102AF800104611461D46FEF74BF9D7F8048081466B
:102B080041464046FEF744F901464846FEF738F884
:102B1800D7F80090DDF8288003F00AFC0146484603
:102B280003F004FCB9688146786803F0FFFB3B4971
:102B380007463068FEF72CF94946FEF71FF8384972
:102B4800FEF7DAF9354930607068FEF721F9014679
:102B58003846FEF715F83249FEF7CEF97060296855
:102B680081464046FEF714F9676801463846FEF785
:102B780007F8394682464846FEF700F82949FEF725
:102B880007F901465046FDF7FBFF6060814603F0F8
:102B98008FFB0746484603F055FB8146A86839462F
:102BA80000F10040FEF7F4F8696882464846FEF7EF
:102BB800EFF801465046FDF7E3FF01464046FEF7B1
:102BC800E7F8D4F800A001465046FDF7D9FF514672
:102BD80083463068FDF7D2FF1249FEF7D9F801465F
:102BE8005846FDF7CDFF2060A968484601F100412D
:102BF800FEF7CEF8696806463846FEF7C9F801467A
:102C08003046FDF7BBFF01464046FEF7C1F80146D6
:102C1800A068FDF7B5FFA060BDE8F88F0000C642C8
:102C28000000C84217B75139F8B51E4D04462E6842
:102C38000F4630464FF08041FDF7A0FF2146FEF7D2
:102C480063FA00282BD14FF080413046FDF798FFFA
:102C580001462046FEF758FAB0B9134A00232B6004
:102C680013601D46114C12492068FEF791F8294659
:102C7800FDF786FF0F49FEF73FF90346014623603B
:102C88003846FDF77BFFF8BD4FF040432B602046E8
:102C98000949FEF77DF8044B05461860E2E74FF056
:102CA8008043F3E7F80D0020400E0020200E00209E
:102CB80000001C4200002042CDCC0C3F2DE9F04F13
:102CC800AB4D99B02B68119001332B6000F0A0FF39
:102CD80000F0C0FF16A8FFF7BFFDA64800F0BEFE33
:102CE80016A8FFF7C1FD1290A34800F0E3FE16A84E
:102CF800FFF7BAFDA14C11999F4B13900091A04882
:102D080021469C4AFFF7EEFE16A8FFF7ADFD9D4F42
:102D180014907B7A312B36D0D4F80480DFF8C8B20F
:102D2800994EDBF80030002B37D1DFF8C092974975
:102D38007068FEF7E1F8D9F80010FDF721FF414669
:102D4800C9F80000FDF71CFF9149FEF721F89149E9
:102D58008146FEF7BBF9002840F0888248464FF0CC
:102D68007E51FEF7D1F908B14FF07E59DFF8808225
:102D7800894BD8F800004946C3F80090FDF700FFDA
:102D8800C8F8000047E0DFF860B2DBF80030002B3D
:102D980000F0AA82D4F804807B4EDFF858A27F495D
:102DA800DAF80400FDF7EAFE7D4900F10040FDF77E
:102DB800EFFFDFF8449202461146C9F80420404666
:102DC800FDF7DCFE774ADFF828821168FDF7E0FF9F
:102DD800D8F800107060FDF7D3FE7349C8F80000FA
:102DE800DAF80800FDF7CAFE6D49FDF7D1FF034682
:102DF8000146C9F80830A068FDF7C0FE6B4BDFF844
:102E0800B8911968FDF7C4FFD9F80010B060FDF754
:102E1800B7FEC9F80000DFF8E49130685B49FEF7B7
:102E28006BF8D9F80010FDF7ABFE2168C9F800006F
:102E3800FDF7A6FE8146F87A6438FDF755FF5C4930
:102E4800FEF75AF800F04AFF01464846FDF798FE9B
:102E58004F49FDF79DFF4F498246FEF737F9002895
:102E680040F0828050464FF07E51FEF74DF908B190
:102E78004FF07E5ADFF888914E4AD9F80000514643
:102E8800C2F800A0FDF77CFEBB7AC9F80000302B21
:102E9800DBF800305ED093B9D6F808B0464B5846F8
:102EA80019680E93FDF76CFE0E9B444F1860374966
:102EB8005846FEF721F83968FDF762FE386016A813
:102EC800FFF7D2FC8346FFF71BFDFFF7D9FCFFF79E
:102ED80057FD16A8FFF7C8FC159016A8FFF7CCFCFD
:102EE800374FDFF820C13B68CCF800000133B3F559
:102EF800FA7F3B6029DB334B1B68002B40F0848052
:102F0800314B1B68002B40F0B080304B1B68002B06
:102F180040F0DF802E4B1B68002B40F0F9802D4BD2
:102F28001B68002B40F021812B4B1B68002B40F0C5
:102F380038812A4B1B68002B40F05C81284B1B68AA
:102F4800002B40F0778100233B6000F069FE19B048
:102F5800BDE8F08F002BB2D1224B174F9868396823
:102F6800FFF762FE3860AAE7DFF828A082E700BF13
:102F7800440E0020140E0020240E002034110020DE
:102F88008C3000204C000020FC0D002000007A440A
:102F980033336542000080BFF04F00200000B44288
:102FA80034FA8E3C18000020000034432000002032
:102FB80000002041A4300020F40D00203C0E002029
:102FC800340E0020100E00204C0E0020680E002049
:102FD800640E0020F00D0020EC0D0020080E0020EB
:102FE800500E0020983000201C000020E80D002022
:102FF800380E0020E0200020540E0020480E00204B
:10300800E40D0020484000209A4A2B681268206886
:10301800CDF834C00F920E9300F058FE0146606858
:10302800109100F053FE0546A06800F04FFE10997D
:1030380004460846FDF738FACDE900012846FDF7B1
:1030480033FACDE902012046FDF72EFA0E9BCDE9B1
:1030580004010F9A1946884801F050FA874BDDF8A9
:1030680034C01B68002B3FF450AF1198CDF834C022
:10307800FDF71AFA824C024620680F920E91FDF76E
:1030880013FACDE900016068FDF70EFACDE90201F7
:10309800A068FDF709FACDE904017A4C2068FDF72C
:1030A80003FACDE906016068FDF7FEF9CDE90801EC
:1030B800A068FDF7F9F90E9BCDE90A010F9A72484D
:1030C80001F01CFA714BDDF834C01B68002B3FF48B
:1030D80021AFCDF834C001F08FFAFDF7E5F9DDF83E
:1030E80034C00B46DCF80010024600911299CDF866
:1030F80010B001911399664802911499039115999A
:10310800059101F0FBF9634B1B68002B3FF407AFF7
:10311800DFF8CCA1DAF80000FDF7C6F90446DAF8C2
:1031280004000D46FDF7C0F9CDE90001DAF8080002
:10313800FDF7BAF9CDE902013068FDF7B5F9CDE937
:1031480004017068FDF7B0F9CDE90601B068FDF734
:10315800ABF92B46CDE9080122464F4801F0CEF9DC
:103168004E4B1B68002B3FF4DFAED9F80000FDF78B
:103178009BF90446D8F800000D46FDF795F9CDE90E
:103188000001474B1868FDF78FF92B46CDE902017E
:103198002246444801F0B2F9434B1B68002B3FF428
:1031A800C8AE424C424BA2684248D3F800805E68E1
:1031B8009D68D0F800A094E80808D0F804908468C6
:1031C8000F920E93FFF7C0FA0E9B0F9A8DE808082E
:1031D80002922B460690CDF80CA0CDF810900594DD
:1031E80041463246344801F089F9344B1B68002BBC
:1031F8003FF4A4AE324E7068FDF756F904463068C5
:103208000D46FDF751F9CDE90001B068FDF74CF91D
:10321800CDE902012B4B1868FDF746F92B46CDE99D
:1032280004012246284801F069F9284B1B68002B45
:103238003FF489AE264E27497068FDF79FFCFDF7DD
:1032480033F9044630680D46FDF72EF9CDE9000143
:103258002149B068FDF792FCFDF726F92246CDE931
:1032680002012B461D4801F049F96CE6DFF874901D
:103278007CE500BF180F0020B8AF00084C0E0020F6
:10328800140E0020240E002000B00008680E002054
:103298004CB00008640E0020B0B00008F00D00200B
:1032A800F40D002010B10008EC0D0020F84F0020AC
:1032B800045000201050002058B10008080E0020CB
:1032C80098300020F80D0020B0B10008500E002002
:1032D800E02000200000B4420000344300B200089F
:1032E800540E0020000080BF104E1149304601F0F6
:1032F80023FCD4F804800F494046D6F80490FDF723
:10330800E5FE20B148460021FDF7FEFE48B94046DB
:103318000949FDF7F9FE30B148460021FDF7D6FE10
:1033280008B14FF00009C6F80490FAE4FC0D00203B
:10333800540E0020F1665FBFD90FC93F2DE9F04157
:1033480001F0FEF8041E03DB00F062FC242C01D01F
:10335800BDE8F08101F01CF909281ADD00270125D4
:10336800B8463E46002401F0EBF83038FDF7BCFCC7
:10337800022C014612DDE31E022B25D9092C54D15B
:10338800FDF7CCFE0B2828D00A2D10D001340135CA
:10339800E9E72046BDE8F04101F0CCB84CB1012C7A
:1033A80010D03046FDF7ECFB0A2D0646EED1BDE8FD
:1033B800F0812D49FDF7ECFC01463046FDF7E0FBB6
:1033C8000646E3E72949F5E7032C40D0042C35D01D
:1033D8004046FDF7D5FB8046D6E730462449FDF741
:1033E80089FE30B130462349FDF77AFE08B1224BF9
:1033F8005E6040460021FDF77DFE38B140461F491A
:10340800FDF76EFE10B11C4BC3F800803846002152
:10341800FDF770FE0028B7D038461949FDF760FE61
:103428000028B1D0144B9F60AEE7062C1AD0072CA9
:103438000FD03846FDF7A4FB0746A5E70B49FDF773
:10344800A7FC01464046FDF79BFB80469EE70649E0
:10345800F5E70649FDF79CFC01463846FDF790FB69
:10346800074693E70049F5E70000C84200002041FD
:103478000000F04100000C43E0200020000034432D
:103488000000B443114B5A6802F00C02082A0ED10E
:103498005A685968C2F38342C90302F1020211D57E
:1034A8005B689B030ED40A4B03FB02F200E0084A58
:1034B800064B08485968084BC1F30311415CCA40E0
:1034C8001A607047054B03FB02F2F1E70010024057
:1034D80000127A00240000203400002000093D007A
:1034E800494B10B51968494A41F0010119605968FA
:1034F80082B00A405A601968002021F0847121F4D2
:103508008031196019684FF41F0421F48021196073
:1035180059681A4621F4FE0159609C600090019098
:10352800196841F48031196003E0009BB3F5A06F7E
:1035380009D0136803F400330193009B013300930F
:10354800019B002BF1D0304B314A1B6813F4003338
:1035580018BF01230193019B1068012B40F0100054
:1035680010601068284B20F003001060106819469E
:1035780040F0020010605A685A605A685A605A68E7
:1035880042F480625A605A6822F47C125A605A687F
:103598001FD042F460125A601A6842F080721A60B2
:1035A8000B68194A9B01FBD55368114623F00303A6
:1035B8005360536843F0020353604B6803F00C03F5
:1035C800082BFAD1FFF75EFF124A134B9A6002B03C
:1035D80010BD42F4E8125A601A6842F080721A600C
:1035E8000B68094A9801FBD55368114623F0030379
:1035F8005360536843F0020353604B6803F00C03B5
:10360800082BFAD1E0E700BF001002400000FFF8E5
:10361800002002400000000800ED00E000230360E5
:10362800C0F80C1243608360704700BF4FF400700D
:10363800704700BF426803680748D31A03F5007350
:103648001840002800DB704701386FEAC0506FEA65
:10365800D0500130704700BFFF01008038B532B349
:1036680040F2FF1501E0AB4210D1446802681E4BDE
:10367800A21A02F500721340002BF4DA013B6FEA3C
:10368800C3536FEAD3530133AB42EED04468426868
:1036980040F2FF139A4216BF4368002301330444E3
:1036A80021734360D0F80C3203B1984738BD4468A1
:1036B80002680D4BA21A02F500721340002B07DBBB
:1036C80040F2FF129342E1D183680133836038BD31
:1036D800013B6FEAC3536FEAD353013340F2FF1241
:1036E8009342D3D1F0E700BFFF010080F8B504464C
:1036F8000F461646EBB9416802682F4B8A1A02F545
:1037080000721340002B49DB3344B3F5007F1DDB07
:10371800A268D4F80C321644A66073BB2EE0013BB5
:103728006FEAC3536FEAD35301333344B3F5007FD1
:103738000CDB65682068204B281A00F500700340F0
:10374800002BECDB3344B3F5007FF2DA6568606880
:10375800C5F50075AE4212DD2044761B39462A466F
:103768000C30FDF701FD7919324604F10C00FDF724
:10377800FBFC6660D4F80C3203B19847F8BD2044CE
:1037880039460C303246FDF7EFFC63683344B3F535
:10379800007F0ED063681E446660EBE7013B6FEA6A
:1037A800C3536FEAD35301333344B3F5007FCDDB02
:1037B800AEE700236360DDE7FF010080016842682F
:1037C800034691420DD00068196840F2FF129142F9
:1037D80018BF1A6818440CBF00220132007B1A6017
:1037E80070474FF0FF30704710B5FEF763FDD020EB
:1037F800FEF706FEFEF774FE7520FEF701FEFEF7E3
:103808006FFEFEF77FFD012000F058FAFEF752FD2B
:10381800D120FEF7F5FDFEF763FEFEF727FE04460E
:10382800FEF7C4FDFEF76EFD682C40F0CB80052046
:1038380000F044FAFEF73EFDD020FEF7E1FDFEF76A
:103848004FFE6B20FEF7DCFDFEF74AFE8020FEF7F8
:10385800D7FDFEF745FEFEF755FD962000F02EFA3F
:10386800FEF728FDD020FEF7CBFDFEF739FE6B20D2
:10387800FEF7C6FDFEF734FE0320FEF7C1FDFEF796
:103888002FFEFEF73FFD052000F018FAFEF712FDA7
:10389800D020FEF7B5FDFEF723FE6C20FEF7B0FD45
:1038A800FEF71EFE0020FEF7ABFDFEF719FEFEF741
:1038B80029FD052000F002FAFEF7FCFCD020FEF7F7
:1038C8009FFDFEF70DFE1920FEF79AFDFEF708FE94
:1038D8000020FEF795FDFEF703FEFEF713FD052019
:1038E80000F0ECF9FEF7E6FCD020FEF789FDFEF7C4
:1038F800F7FD1A20FEF784FDFEF7F2FD0020FEF723
:103908007FFDFEF7EDFDFEF7FDFC052000F0D6F982
:10391800FEF7D0FCD020FEF773FDFEF7E1FD1B207B
:10392800FEF76EFDFEF7DCFD0020FEF769FDFEF7F1
:10393800D7FDFEF7E7FC052000F0C0F9FEF7BAFC5A
:10394800D020FEF75DFDFEF7CBFD1C20FEF758FDED
:10395800FEF7C6FD0020FEF753FDFEF7C1FDFEF79A
:10396800D1FC052000F0AAF9FEF7A4FCD020FEF750
:1039780047FDFEF7B5FD3720FEF742FDFEF7B0FD27
:103988000020FEF73DFDFEF7ABFDFEF7BBFC052072
:1039980000F094F9FEF78EFCD020FEF731FDFEF71B
:1039A8009FFD3820FEF72CFDFEF79AFD0020FEF75C
:1039B80027FDFEF795FDFEF7A5FC052000F07EF932
:1039C800002010BD4FF0FF3010BD00BF70B5224C75
:1039D800002323600E460546FEF76CFCD020FEF758
:1039E8000FFDFEF77DFD236803B170BDE8B2FEF759
:1039F80007FDFEF775FD2368002BF6D1FEF782FC64
:103A0800FEF758FCD120FEF7FBFCFEF769FD2368A2
:103A1800002BEAD1FEF72AFD3070FEF79DFCFEF779
:103A280025FD7070FEF798FCFEF720FDB070FEF7DC
:103A380093FCFEF71BFDF070FEF78EFCFEF716FDFB
:103A48003071FEF789FCFEF711FD7071FEF7AEFCD0
:103A5800BDE87040FEF756BC1C0F002010B582B0C0
:103A6800044669463B20FFF7B1FF114B1B68EBB9D1
:103A78009DF801309DF8000043EA002000B2FDF7F0
:103A880033F99DF802209DF80330206043EA0220B4
:103A980000B2FDF729F99DF804209DF80530606013
:103AA80043EA022000B2FDF71FF9A06002B010BD82
:103AB8001C0F002010B582B0044669464320FFF76A
:103AC80085FF1F4B1B68002B38D19DF800109DF80F
:103AD80001301C4A43EA0123138018B2FDF704F9A8
:103AE800194B1968FDF74AF81849FDF705FA9DF8CA
:103AF80002109DF80330164A43EA01231380206020
:103B080018B2FDF7F1F8134B1968FDF737F80F49AC
:103B1800FDF7F2F99DF804109DF805300E4A43EAC6
:103B280001231380606018B2FDF7DEF80B4B1968AB
:103B3800FDF724F80549FDF7DFF9A06002B010BDD4
:103B48001C0F0020740E0020780E0020FA8DEA4524
:103B58006C0E00207C0E0020760E0020700E0020D7
:103B68002DE9F04F234EDFF89CB0234DDFF898A0E5
:103B7800224CDFF8989085B04FF0960801A8FFF71F
:103B880099FFBBF90000FDF7AFF83168FCF7F8FFC3
:103B98003060BAF90000FDF7A7F82968FCF7F0FFD4
:103BA8002860B9F90000FDF79FF82168FCF7E8FFE5
:103BB8002060022000F082F8B8F101080F4FDDD133
:103BC8000C4B0F491868FDF797F90A4B0C49186018
:103BD800094B1868FDF790F9074B094918603868D0
:103BE800FDF78AF93860052000F068F805B0BDE8EF
:103BF800F08F00BF780E00207C0E0020700E002091
:103C080000001643740E00206C0E0020760E002073
:103C180002484FF48051FDF78FBE00BF000C0140F1
:103C280002484FF48051FDF789BE00BF000C0140E7
:103C380008B572B603484FF48051FDF787FE62B6A7
:103C480008BD00BF000C014001480821FDF774BE03
:103C58000008014001480821FDF770BE0008014036
:103C680008B572B602480821FDF770FE62B608BDB5
:103C78000008014038B50B4C422000F095FC204666
:103C88004FF48051FDF758FE074D28460138FDD8FE
:103C98004FF480512046FDF751FE28460138FDD8E3
:103CA80038BD00BF000C0140009F240000EB40001D
:103CB800830018460138FDD8704700BF42F6E0631C
:103CC80003FB00F318460138FDD8704708B50249D0
:103CD800FDF75EF808BD00BFE02E654208B5024951
:103CE800FDF756F808BD00BF35FA8E3C10B5002127
:103CF8000446FDF7FFF928B120464FF07C51FCF748
:103D08003FFF10BD20464FF07C51FCF737FF10BD38
:103D1800012870B418D002280FD1002A0ADD124CED
:103D28008E18254623885B06FCD511F8013BB14265
:103D3800AB80F7D1104670BC70470C4B09224FF08E
:103D4800FF301A6070BC7047002AF3DD064C8E18ED
:103D5800254623885806FCD511F8013BB142AB80B3
:103D6800F7D11046E7E700BF004C0040D8580020C4
:103D78000D4B10B51A68044692B11046EFF308814E
:103D880002198A4201D81A6010BD08491922022076
:103D9800FFF7BEFF064B0C221A604FF0FF3010BD34
:103DA80004481860EAE700BF800E002044B200080B
:103DB800D8580020DC580020704700BF024B034A47
:103DC800DA6000BFFDE700BF00ED00E00400FA057F
:103DD8000F4B10B5B3F1006F00D110BD0D490E4B5C
:103DE800C8690E4A40F0C050C8611C6846F6B43035
:103DF80044F4807444F6FC211C60A2F8B800A2F8D0
:103E0800BC101A6822F480721A60FFF7D7FF00BF4F
:103E1800000000080010024000700040006C0040E4
:103E280038B504460D46FDF743FF20462946FDF701
:103E380087FF20462946FDF7CBFF20460821FEF7DD
:103E48003FF820460821FEF743F820460821BDE840
:103E58003840FEF747B800BFF0B589B00D460024DA
:103E68004FF47A724FF40073064601A90327ADF8A0
:103E78000820ADF80A30ADF80470ADF80640FDF73B
:103E8800BDFE60220123304604A9ADF81850ADF8F4
:103E98001640ADF81020ADF81230FFF7C1FF09B099
:103EA800F0BD00BFF0B58DB0002403224FF47A7343
:103EB80001A90546ADF80420ADF80830ADF8064074
:103EC800ADF80A408DF80C40FDF798FE1B4B4FF4F7
:103ED800006ED3F800C028464FF480764FF40052A5
:103EE8004FF4804304A94FF48067ADF816C0ADF8CD
:103EF80010E0ADF81A20ADF81C30ADF81840ADF858
:103F08001270ADF81460FDF7A9FF284601220423BA
:103F1800602508A9ADF82640ADF82840ADF82A403C
:103F2800ADF82C60ADF82E40ADF82050ADF8222049
:103F3800ADF82430FFF774FF0DB0F0BD4400002049
:103F48000D4A30B4136800F10C05C3F5FA74640027
:103F58000168CB1AA342A8BF234640F8043B116866
:103F68008B42B8BF0023A84240F8043C01D0136834
:103F7800EEE730BC704700BF3C000020F8B5324B7C
:103F880004461D680F46284600211646FDF7B2F87C
:103F9800002850D02D492846FCF7AEFF4FF0894144
:103FA800FCF7F6FEFFF7A2FEFDF7B8F8284B034032
:103FB800002B42DB002BB8BF03F58063254803F2D2
:103FC800551103F2AB22C2F30902C1F3090130F91A
:103FD800135030F9111030F9123006EB860202FB4B
:103FE80001F102FB03F302FB05F21B4801F57F51C7
:103FF80003F57F5302F57F523F313F333F3280FB59
:10400800015680FB037580FB02700E441D4410446A
:10401800C917DB17D217C1EBA631C3EBA533C2EB27
:10402800A03201F5FA7103F5FA7302F5FA726160CC
:10403800A3602260F8BD3D46ACE7013B6FEA8353BD
:104048006FEA93530133B5E738000020DB0FC9400E
:10405800FF0300801C5000200300018000B585B0DC
:104068000A46014601A8FFF789FF72B6094B01A865
:1040780007C883E8070062B672B6074A0121138AA7
:1040880023F001031B041B0C1382918162B605B057
:104098005DF804FB840E00200034014000B585B0B3
:1040A8000A46014601A8FFF769FF72B6094B01A845
:1040B80007C883E8070062B672B6074A0121138A67
:1040C80023F001031B041B0C1382918162B605B017
:1040D8005DF804FB900E0020002C014000B585B06F
:1040E8000A46014601A8FFF749FF01A8FFF728FF84
:1040F80072B60B4B01A807C883E8070062B6094BE4
:1041080000221A6072B6084A0121138A23F00103BB
:104118001B041B0C1382918162B605B05DF804FB89
:104128009C0E002040000020000C0040274BF0B4FB
:104138001A8AD2071AD51A8A22F001021204120C1E
:104148001A8272B6224A234994689B8C8868013483
:104158009BB29460204A8342C8BF8B6091688B42AF
:10416800B8BF9360B3F5487F02D362B6F0BC70471E
:104178001A4B1B68EBB91A4B1A4A1B6814889088AB
:1041880011895B009BB2184A1F191E185D180F4B46
:10419800BFB2B6B2ADB29786168795879C86188748
:1041A80099870A4A938923F001031B041B0C938106
:1041B800DBE70D49054B40F2E93000228886088785
:1041C80088879A861A879A87EBE700BF000C004019
:1041D80010500020F84F002004500020400000201C
:1041E8003C0000209C0E002000080040174A10B434
:1041F800138A23F001031B041B0C138272B61448A4
:10420800938C144942689BB24C689342124A04F159
:1042180001044C605168C8BF43608B42B8BF53600B
:10422800B3F5487F0DD20D4A084B10889188128942
:10423800988619879A879A8922F001021204120C2B
:104248009A8162B65DF8044B704700BF002C0140AC
:10425800F84F00201050002004500020900E00203D
:10426800174A10B4138A23F001031B041B0C138292
:1042780072B61448938C144902689BB20C68934236
:10428800124A04F101040C601168C8BF03608B4234
:10429800B8BF1360B3F5487F0DD20D4A084B10889C
:1042A80091881289988619879A879A8922F001023B
:1042B8001204120C9A8162B65DF8044B704700BF75
:1042C80000340140F84F0020105000200450002016
:1042D800840E002010B5412000F066F972B60B4A32
:1042E800002313605360936062B672B6084A136085
:1042F8005360936062B6074C07480849084A01238F
:10430800236083818B81938110BD00BF840E0020C0
:10431800900E002040000020000C0040002C0140BE
:10432800003401402DE9F043DFF80881374B384964
:10433800384D394E83B0002440F2E9324046DFF868
:10434800F8909A605A601A608C604C600C60AC609F
:104358006C602C60314FFFF7A5FD3046FFF7A2FDDA
:1043680021464846FFF778FD38460221FFF774FDDD
:104378002B4B01251B8801A803F5A87103F29F2286
:1043880089B292B2BB84A8F824103223B2848DF883
:1043980004308DF805408DF806408DF80750FDF77C
:1043A800F5FB01A819238DF804308DF805408DF828
:1043B80006408DF80750FDF7E9FB2C2301A88DF87E
:1043C80005408DF806408DF807508DF80430FDF74C
:1043D800DDFB72B6134A144B1449154C0D60484660
:1043E8002560294615601D60FDF75AFD38462946A7
:1043F800FDF756FD40462946FDF752FD3046294651
:10440800FDF74EFD62B603B0BDE8F083045000200E
:10441800F84F0020105000200034014000080040F0
:104428003C00002000802542008026420080014296
:1044380000000142002C0140000C0040704700BF02
:10444800FEE700BFFEE700BFFEE700BFFEE700BFD4
:10445800704700BF704700BF704700BF01F026BC1F
:104468004FF48020FDF70ABB38B50546174C0120EC
:10447800FFF724FC00232360FDF71CFFAE20FDF7A7
:10448800BFFFFEF72DF82846FDF7BAFFFEF728F81C
:10449800FDF738FF0120FFF711FCFDF70BFFAF20F8
:1044A800FDF7AEFFFEF71CF8FDF7E0FF0546FDF748
:1044B8007DFFFDF727FF0120FFF700FC2368002B95
:1044C8000CBF28464FF0FF3038BD00BF1C0F00203E
:1044D80008B5FEF7EDF80748FEF772F8FEF766F83C
:1044E800FEF782F90448FEF76BF8BDE80840FEF7CE
:1044F8005DB800BF60B2000870B200080FB410B514
:10450800C2B044AC54F8042BFF21234602A80194FE
:1045180003F08AF802A8FEF753F802A803F02AF875
:10452800014602A8FEF774F942B0BDE8104004B095
:10453800704700BF014B1860704700BF480000205B
:1045480000B50C4B83B01868002805DB4FF0FF322C
:104558001A6003B05DF804FBFEF76AF938B10DF193
:1045680007000121FEF76AF99DF80700F1E7FEF759
:1045780011F8EEE74800002010B5002402E0642C92
:1045880004D00134FFF7DCFF0028F8DA204610BD1C
:1045980008B5FEF74DF918B9BDE80840FEF700B8B0
:1045A800BDE80840FEF744B9704700BF10B5084C95
:1045B80023685A1CB3F57A7F226008DDFFF738FBC1
:1045C800FFF788FE5720FFF7EFFF0023236010BD99
:1045D800AC0E002008B542F67D200121FDF792FDC2
:1045E80004480121FDF79AFDBDE808400120014675
:1045F800FDF77CBD0F000800014B1868704700BF2D
:10460800A80E002038B5FDF72BFEFFF7E3FF00F0FA
:1046180035FB62B6FFF75CFF4F48FFF76FFF4F4867
:10462800FFF76CFFFFF77EFE1424FFF701FBFFF78F
:1046380017FB6420FFF742FB013CF6D1FFF7F0FAC5
:1046480001F0AAFC002859D04548FFF757FF40F66B
:10465800B830FFF733FB01F09FFC012877D04148C1
:10466800FFF74CFF40484149FFF748FF404B414A9C
:104678001B68116813F4003F3F4B18BF3F48A3FB6A
:10468800012108BF3E48890CFFF738FF3D48FFF776
:1046980035FFFDF75BFD3C48FFF730FF0A24FFF7C5
:1046A800A3F8013C2146002833D03848FFF726FFFD
:1046B800FFF7E0FA002CF2D1354D36482C60FFF7B1
:1046C8001DFF3548FFF71AFF00F084FB2B6823BB5A
:1046D8003248FFF713FF00F0FFF800F055FBFFF733
:1046E8004BFF002802DD2E48FFF708FF2D48FFF793
:1046F80005FFBDE838402C48FDF7ACBD2B48FFF757
:10470800FDFE40F6B830FFF7D9FA2948FFF7F6FE64
:10471800A5E71F4D01232B60D3E72648FFF7EEFEE0
:104728000D24FFF785FA4FF47A70FFF7C7FA013CBA
:10473800F7D1FDF775FD01461F48FFF7DFFEFFF7CC
:104748000FFA1E48FFF7DAFEFEF75AF9C0E71C48D1
:10475800FFF7D4FE83E700BF84B20008BCB20008AC
:10476800D0B2000884B30008D8B3000810B4000819
:10477800001002403400002083DE1B4318B40008F8
:1047880050B400088CB400089CB40008B0B4000809
:10479800B00E0020B4B50008DCB4000850B500081D
:1047A80060B500089CB50008B545000820B30008AE
:1047B80050B30008F0B4000818B500083CB500086C
:1047C800ECB200082DE9F84FFFF71CFFFDF728FDB4
:1047D8000446FDF725FD8442FBD0FDF7F9FC0446AD
:1047E80072B60027FDF7F4FC001BB0F5FA7F07F15D
:1047F8000107F7D362B6FDF7EBFCDFF894A0DFF80A
:104808009490DFF894B0DFF894807F000646002487
:10481800FDF7DEFC0546801BB0F5FA6F04F10104D4
:10482800F6D3FCF75DFA06462046FCF75DFA154913
:10483800FCF7AEFA1449FCF7ABFA3146FCF75CFB1F
:1048480004463846FCF750FA01462046FCF754FB6C
:10485800D9F80030CAF8000013B9DBF8003053B9B2
:10486800FFF738FDFFF706FA00232E46C8F8003098
:10487800FEF764FDCBE705493046FCF73DFBFEF744
:104888001DFAF1E70000C84200007A440024744988
:10489800A80E0020F44F0020B00E0020AC0E00201F
:1048A80030B50C4C85B000234FF6FF72204601A9A5
:1048B8004725ADF80630ADF80A30ADF80820ADF858
:1048C8000450FDF79BF920460121FDF7DBFA05B0FE
:1048D80030BD00BF0004004030B585B072B6042476
:1048E8002A480121FDF736F803250DEB04014FF4A2
:1048F80000432748ADF804308DF807408DF806507E
:10490800FCF7B2FF182228230DEB04012148ADF86B
:1049180004208DF807308DF80650FCF7A5FF0DEB45
:1049280004011D48ADF80440FCF79EFF294601200C
:10493800FDF746F821460120FDF742F8022001461E
:10494800FDF73EF81C2400211022012302A88DF84F
:104958000C108DF80D208DF80E300294FDF746F8F6
:104968002046FDF783F82046FDF788F80B4B4FF4F7
:1049780000704FF480614FF48072186019601A60FB
:10498800FFF78EFF62B605B030BD00BF00023000F1
:1049980000080140000C01400010014000E100E067
:1049A8001B4B10B55B69180700D410BD3320FFF707
:1049B800FBFD18480821FCF7B9FF012822D0164C46
:1049C80014480821FCF7B2FFB0B1144B1B882188AA
:1049D80040F2E6325B1A9BB26FF47A71591889B2C9
:1049E800914203D80E4AA3F57A731360084B5A69AB
:1049F80042F008025A6110BD0A4B084A9B8C9BB2D0
:104A08001380E4E7074B044C9B8C2380D8E700BF56
:104A180000040140000C0140CA0E0020C80E00200E
:104A2800BC0E0020000400401B4B10B55B69580702
:104A380000D410BD3220FFF7B7FD18480421FCF759
:104A480075FF012822D0164C14480421FCF76EFF8C
:104A5800B0B1144B1B88218840F2E6325B1A9BB236
:104A68006FF47A71591889B2914203D80E4AA3F5A6
:104A78007A731360084B5A6942F004025A6110BDF8
:104A88000A4B084A9B8C9BB21380E4E7074B044C03
:104A98009B8C2380D8E700BF000401400010014030
:104AA800C40E0020C60E0020B80E002000040040EE
:104AB8001B4B10B55B69D80600D410BD3420FFF736
:104AC80073FD18481021FCF731FF012822D0164C3D
:104AD80014481021FCF72AFFB0B1144B1B88218819
:104AE80040F2E6325B1A9BB26FF47A71591889B2B8
:104AF800914203D80E4AA3F57A731360084B5A699A
:104B080042F010025A6110BD0A4B084A9B8C9BB2B6
:104B18001380E4E7074B044C9B8C2380D8E700BF45
:104B280000040140000C0140B40E0020B60E002025
:104B3800C00E0020000400402DE9F843464B474AC8
:104B4800D3F80080464B05460C4617681E68B8F136
:104B5800000F69D048684349FCF71AF98146404676
:104B6800FCF7C2F84049FCF709F801464846FCF74B
:104B780007F83E49FCF7C0F93D4960608046FCF7FC
:104B8800C3FA00284AD040463A49FCF701F9686060
:104B9800002F4DD033492068FCF7FAF88046384694
:104BA800FCF7A2F83049FBF7E9FF01464046FBF75E
:104BB800E7FF2E49FCF7A0F92D4920600746FCF7CE
:104BC800A3FA00283CD038462A49FCF7E1F82860C7
:104BD800002E31D02349A068FCF7DAF807463046A2
:104BE800FCF782F82049FBF7C9FF01463846FBF776
:104BF800C7FF1E49FCF780F91D49A0600646FCF76F
:104C080083FA20B930461C49FCF760FAA0B1304657
:104C18001849FCF7BDF8A860BDE8F8834046164976
:104C2800FCF754FA0028AED100236B60002FB1D1F5
:104C380000232B60002ECDD10023AB60BDE8F883A4
:104C480038460D49FCF742FA0028F1D038460949A0
:104C5800FCF79EF82860BBE7BC0E0020B80E0020C9
:104C6800C00E0020000047430000FA4300004843FC
:104C78000000A0416F12033B0000A0C12DE9F043E2
:104C8800DFF8008183B03D4E18250224404601A973
:104C98004FF4E063ADF804308DF806408DF8075006
:104CA800FCF7E2FD4FF4604301A93046ADF804304B
:104CB8008DF806404FF4E0798DF80750FCF7D4FDE5
:104CC80001A92F488DF806408DF80750ADF80490DB
:104CD800FCF7CAFD8023404601A90327ADF804303C
:104CE8008DF806408DF80750FCF7BEFD304601A947
:104CF8008DF806408DF80750ADF80470FCF7B4FD48
:104D08000723404601A9ADF804308DF806408DF818
:104D18000750FCF7A9FD304601A98DF80640ADF80B
:104D2800049010248DF80750FCF79EFD304601A929
:104D38004FF48053ADF804308DF806708DF80740B5
:104D4800FCF792FD404601A90823ADF804308DF820
:104D580007408DF80670FCF787FD4FF44062142376
:104D6800304601A98DF80670ADF804208DF807309B
:104D7800FCF77AFD03B0BDE8F08300BF000C0140EA
:104D8800001001400008014038B500200E4D0024F5
:104D98000BE02046FBF7A8FF0C49FBF7F9FF4FF0A3
:104DA8006A51FBF7F5FF01F083FA0949FBF7F0FFB9
:104DB800FEF79CFFFCF7B2F90134B4F5806F25F8D3
:104DC800020FE6D138BD00BF1A500020DB0FC940E2
:104DD80000FEFF4638B5084D0024E0B2FFF744FB5B
:104DE8000346FE2B98BF635505200134FEF766FF86
:104DF8000C2CF2D138BD00BF4C0000202DE9F04743
:104E0800002382B0DFF86491DFF87081544EADF86A
:104E18000630D8F80030534C9AB213F4004F524F72
:104E28004BF6BF705149A9F80020DFF834A100F013
:104E38008B800B884E4D03F00F039A0002F18042DD
:104E480002F5B8422B706BBB23689BB23380338862
:104E580003F030033B80338803F4405333802368E6
:104E6800184080F4005080F0200040F4004040F0EA
:104E7800800020600B88DB063DD523689BB2ADF827
:104E88000630BDF806301D0561D4BDF806301BB2EA
:104E9800002BBEDA226840F68F731340236000F0BF
:104EA80059FD2FE0116889B2ADF80610BDF806105B
:104EB80009B2002914DBBDF806301B06A9D52978EC
:104EC8002C488B0003F1804303F5B8431C6848F66F
:104ED8000F72013922401A6050F82130984798E73C
:104EE8001468254840F68F712140013B50F8233063
:104EF80011609847DFE7226848F60F731340236074
:104F080000F0B8FD2168BAF800204BF6BF73D4044E
:104F1800BAF8002001EA030348BF83F480539004E1
:104F28003A8848BF83F40053D1063A8848BF83F0D3
:104F38001003920648BF83F0200343F4004343F074
:104F48008003084A9BB2136002B0BDE8F08722686C
:104F580040F68F731340236000F03CFBD2E700BF9C
:104F68001C580020005C00401E5800207C5800207F
:104F78002C5800205800002074000020445C004099
:104F88004FF6F873014A034013607047505C0040C5
:104F9800800000F1804000F5B840036823F4EC433A
:104FA80023F0700319438BB203607047800000F14F
:104FB800804000F5B8400368CA0623F4E04323F0B4
:104FC80040039BB248BF83F010038A0648BF83F0B2
:104FD800200343F4004343F080030360704700BF9D
:104FE800800000F1804000F5B8400368CA0423F44B
:104FF800804323F070039BB248BF83F480538A0434
:1050080048BF83F4005343F4004343F08003036034
:10501800704700BF800000F1804000F5B840036889
:1050280023F4E04323F040039BB283F0300343F4BE
:10503800004343F080030360704700BF800000F125
:10504800804000F5B840036823F4804323F07003E0
:105058009BB283F4405343F4004343F0800303605E
:10506800704700BF800000F1804000F5B840036839
:1050780040F60F62134043F4004343F0800303609B
:10508800704700BF800000F1804000F5B840036819
:105098005B0408D5026840F60F73134043F440439D
:1050A80043F0800303607047800000F1804000F502
:1050B800B84003685B0608D5026840F60F731340D2
:1050C80043F4004343F0C00303607047064B4908AC
:1050D8001B6849009BB203EBC00000F1005000F5CB
:1050E8004050400001607047505C0040054A064B44
:1050F8001268490892B202EBC000034449005B0001
:1051080019607047505C004004300020054B1B6854
:105118009BB203EBC00000F1005000F54050400086
:1051280000887047505C0040044A054B126892B2F0
:1051380002EBC00003445B0018887047505C0040D5
:1051480004300020044A054B126892B202EBC000FA
:1051580003445B0019607047505C00400230002037
:105168000E4A0F4B12683E2992B202EBC00003446C
:105178004FEA43030AD94A09C80604BF02F1FF32BD
:1051880092B2920242F400421A6070474A08C90774
:1051980048BF013292021A60704700BF505C00405D
:1051A80006300020054A064B126892B202EBC00096
:1051B80003445B001868C0F309007047505C004066
:1051C80006300020C3B2000A40EA0320704700BF3F
:1051D80008B538B1064B1B681B689847054B18681B
:1051E8000A3008BD034B01221B681A8208BD00BFA4
:1051F8004C5800205058002008B538B1064B1B68A1
:105208009B689847054B18680C3008BD034B012272
:105218001B681A8208BD00BF4C5800205058002057
:1052280008B5224B002832D021481A680021018095
:10523800137813F07F0316D0012B27D0022B24D12B
:10524800537903F00F021B0625D4930003F1804322
:1052580003F5B8431B6803F44053B3F5805F0ED1E0
:10526800012303700BE0537A9A0654BF0278022296
:1052780059064CBF42F0010222F0010202700D4BA8
:105288001B681B6998470A4808BD084608BD1B6883
:1052980002221A8208BD920002F1804202F5B84249
:1052A800136803F03003102BE9D1D9E750580020D8
:1052B800205800204C5800202DE9F041264F3C682A
:1052C800238A267A23B9042E2DD0A58A042603E042
:1052D800A58AAB42FAD902269D4228BF1D46284618
:1052E800A369984780460020FFF710FF2A46014629
:1052F800404600F029FC29460020FFF723FF618A79
:10530800B4F810C01548164BC5EB0C0C3A680D44A0
:1053180030274FF440510780A4F810C065821980E7
:105328001672BDE8F0810F490A78012A07D00B4BA5
:1053380022460726102116721980BDE8F0810A4816
:105348000A4A05680548ADB22A44570030253B6033
:1053580022460B700580E3E7505800201E580020B5
:105368001C580020CC0E0020505C00400230002069
:1053780010B50B4B0B4A1B685178DA78914201D271
:10538800022010BD99780029FAD19C88002CF7D109
:1053980005499A720B685B689847204610BD00BFA4
:1053A800505800201C0100204C58002038B5104AE5
:1053B800104C126823685879D978936998472368FC
:1053C8009A7A0AB9022038BD0028FBD11A79002A36
:1053D800F8D19D78002DF5D1074B1B68DB689847FD
:1053E800236828465979DA78D9721A7338BD00BF0C
:1053F80028580020505800204C58002038B5324B0F
:105408001B68187810F07F0003D0022806D002200D
:1054180038BD5A7A22F020025A7238BD5A88002ABA
:10542800F6D11A79002AF3D15A7922F08000840043
:1054380004F18041150601F5B84156BF09680D68A9
:1054480001F44055214948BF05F0300509788842E4
:10545800DDD2002DDBD09B7A002BD8D004F180441C
:1054680004F5B8441206236809D503F03003102B5D
:105478001ED0174B1B685B699847002038BD03F4A2
:105488004053B3F5805FF4D1D8B9124B93F82C1080
:10549800FFF766FE236823F4804323F070039BB272
:1054A80083F4405343F4004343F080032360E0E770
:1054B800C4B22046FFF7F8FD20463021FFF776FDFD
:1054C800D7E7FFF7DFFDE5E7505800201C01002073
:1054D8004C5800209800002038B5244B18684379B0
:1054E80023F08002940004F180411D0601F5B841C3
:1054F80056BF09680D6801F440551D4948BF05F0BD
:10550800300509788A4201D3022038BD4288002A32
:10551800FAD1002DF8D0827A002AF5D004F180441F
:1055280004F5B84413F0800F236811D023F4E04346
:1055380023F040039BB283F0100343F4004343F08D
:10554800800323600B4B1B689B699847002038BD7C
:1055580023F4804323F070039BB283F4805343F415
:10556800004343F080032360ECE700BF505800205D
:105578001C0100204C580020054B1B685A8A10B1AA
:1055880008681044704789888A1A1A82704700BFD1
:105598005058002010B50B4B002093F82C10FFF743
:1055A800DFFD094B1B68187A082806D10749084B04
:1055B8004FF4805410220C801A80B0F1090358422D
:1055C800584110BD98000020505800201C58002059
:1055D8001E58002070B5A94BA94D1A682C68A94B14
:1055E80092B21344227A5B00092A82B01E6847D01F
:1055F800B6B2760006F1804606F5C04633782370C9
:1056080073786370B088FFF7DDFD608030892C689F
:10561800FFF7D8FDA080B2892B680121DA801972C2
:10562800002A33D05878062800F08680002846D112
:105638005988002900F09380934C23681B69984788
:1056480003282B684BD01A8A4FF6FF718A4246D03E
:1056580002280FD072B193F900100029C0F2B4806B
:105668008A494FF44050032208801A72FFF792FFCC
:1056780002B070BD08221A72FFF78CFF02B070BD2D
:10568800E288234601211972002ACBD11A785C7866
:1056980012F07F0229D0012A00F0AC80022A00F023
:1056A800CE80794B20461B685B699847032800F039
:1056B80001812B68002831D008221A72D6E7082801
:1056C8005FD11A785206B7D1714A00209A61588280
:1056D80090472B684FF6FF711A8A8A42BAD109227D
:1056E8001A72FFF757FF02B070BD092C00F0C28094
:1056F800052C00F09280032C00F0AA80012CD0D158
:10570800DA78012ACDD19A88002ACAD15B7A99061B
:10571800C7D5FFF773FE0028C3D12B6857495D4AE8
:105728000868002480B2024452005B4914603020AB
:10573800062208801A7299E71A7852067FF47CAF1D
:105748009A78514C012A00F0AF80022A5FD0032AD0
:105758007FF473AF2268526A002AB6D16DE75A689F
:1057680022F47F42B2F5003F7FF466AF1A7812F058
:105778007F0240F0A3809A88002A7FF45DAF474AF1
:10578800A3E70A287FF458AF1A7802F07F02012AAB
:105798007FF452AF9A7A002A3FF44EAF5988002915
:1057A8007FF44AAF5A68384C22F47F42B2F5803F02
:1057B8007FF443AF587923689B6998472B68002882
:1057C80000F0BD80587838E7D98801910198824265
:1057D80016D88A4280F095802B49096891F82C10D8
:1057E8008A4280F093802E4A002010709982FFF739
:1057F80063FD41E70B2C7FF454AFFFF7D7FD8AE731
:10580800214A01991268198292F82C10EEE7226851
:10581800126A002A7FF459AF0FE793F90320002A90
:10582800FFF64AAF9A78002A7FF446AF9A88002A92
:105838007FF442AF9A7A002A3FF470AF3CE7012C1C
:105848003FF467AF032C7FF42CAFFFF745FE62E708
:10585800DA78012A7FF425AF9A88002A7FF421AFED
:10586800597A104A41F0200112685972D369984751
:105878002B6853E7FFF77CFD4DE700BF505C004005
:105888005058002004300020285800201C580020C0
:10589800D9510008023000201E5800202952000863
:1058A800CC0E00204C5800202268D269002A7FF4D0
:1058B8000CAFC2E62B6809221A72D7E6012A30D04B
:1058C800022A7FF4B9AE5A7902F00F04A10001F15F
:1058D8008041160601F5B84156BF09680E6801F403
:1058E8004056184948BF06F0300609788C42BFF484
:1058F800A3AE12F0700F7FF49FAE002E7FF43FAF7F
:105908009AE6114A126892F82C106FE792FBF1F0B0
:1059180001FB1022002A7FF469AF0C4A01201070A5
:1059280064E7094C587923689B69984720B92B6824
:105938009A7A002A7FF423AF2B6858787DE6044AC8
:10594800C3E600BF1C01002028580020CC0E002010
:1059580001520008F8B5314D2C68237A022B07D084
:10596800042B05D0032B09D0052B07D0072B0ED00D
:1059780008232372BDE8F840FFF70CBEA169238A0B
:1059880011B35BB9A38A002B3FD0254A2EE0254BE3
:105998001B68DB6898472C680823EAE7A68A9E42BA
:1059A80028BF1E4630468847228A638A921B3344A2
:1059B8006382074622820020FFF7B6FB3246014683
:1059C800384600F0DFF8238A002BDBD0164B002086
:1059D8004FF4405201461A80FFF7B4FB238AA18A8C
:1059E8000F4A3020994210800FD993B92C680621AC
:1059F8000E4B217219680E4B89B20B445B000021D3
:105A080019603021237A1180B3E72C6803232372AD
:105A1800AFE72C6805232372ABE700BF505800207E
:105A28001E580020285800201C580020505C0040B8
:105A38000230002070B40C4B1E787EB10B4C002352
:105A4800256843F4004140F60F722A4041F0800176
:105A580001330A439E4244F8042BF1D8044B40F02A
:105A68008000186070BC70471C010020005C00407A
:105A78004C5C004010B5184C2268137A022B17D0E2
:105A8800042B15D0062B05D008231372BDE810404F
:105A9800FFF780BD5378052B13D0104B1B689B680C
:105AA8009847226808231372BDE81040FFF772BDBB
:105AB800FFF702FC2268137A1372BDE81040FFF763
:105AC80069BD13785B06E8D1D078FFF7B3FF044BC4
